{
  "contractName": "auth0",
  "abi": [
    {
      "inputs": [],
      "stateMutability": "nonpayable",
      "type": "constructor"
    },
    {
      "anonymous": false,
      "inputs": [
        {
          "indexed": true,
          "internalType": "address",
          "name": "previousOwner",
          "type": "address"
        },
        {
          "indexed": true,
          "internalType": "address",
          "name": "newOwner",
          "type": "address"
        }
      ],
      "name": "OwnershipTransferred",
      "type": "event"
    },
    {
      "inputs": [],
      "name": "admin",
      "outputs": [
        {
          "internalType": "address",
          "name": "wallet",
          "type": "address"
        },
        {
          "internalType": "string",
          "name": "name",
          "type": "string"
        },
        {
          "internalType": "string",
          "name": "email",
          "type": "string"
        },
        {
          "internalType": "string",
          "name": "password",
          "type": "string"
        }
      ],
      "stateMutability": "view",
      "type": "function",
      "constant": true
    },
    {
      "inputs": [],
      "name": "laboratoryCounter",
      "outputs": [
        {
          "internalType": "uint256",
          "name": "",
          "type": "uint256"
        }
      ],
      "stateMutability": "view",
      "type": "function",
      "constant": true
    },
    {
      "inputs": [
        {
          "internalType": "uint256",
          "name": "",
          "type": "uint256"
        }
      ],
      "name": "laboratorys",
      "outputs": [
        {
          "internalType": "uint256",
          "name": "id",
          "type": "uint256"
        },
        {
          "internalType": "string",
          "name": "name",
          "type": "string"
        },
        {
          "internalType": "string",
          "name": "email",
          "type": "string"
        },
        {
          "internalType": "string",
          "name": "password",
          "type": "string"
        },
        {
          "internalType": "address",
          "name": "wallet",
          "type": "address"
        },
        {
          "internalType": "string",
          "name": "role",
          "type": "string"
        },
        {
          "internalType": "string",
          "name": "license",
          "type": "string"
        },
        {
          "internalType": "string",
          "name": "discription",
          "type": "string"
        }
      ],
      "stateMutability": "view",
      "type": "function",
      "constant": true
    },
    {
      "inputs": [],
      "name": "owner",
      "outputs": [
        {
          "internalType": "address",
          "name": "",
          "type": "address"
        }
      ],
      "stateMutability": "view",
      "type": "function",
      "constant": true
    },
    {
      "inputs": [],
      "name": "patientCounter",
      "outputs": [
        {
          "internalType": "uint256",
          "name": "",
          "type": "uint256"
        }
      ],
      "stateMutability": "view",
      "type": "function",
      "constant": true
    },
    {
      "inputs": [
        {
          "internalType": "uint256",
          "name": "",
          "type": "uint256"
        }
      ],
      "name": "patients",
      "outputs": [
        {
          "internalType": "uint256",
          "name": "id",
          "type": "uint256"
        },
        {
          "internalType": "string",
          "name": "nom",
          "type": "string"
        },
        {
          "internalType": "string",
          "name": "prenom",
          "type": "string"
        },
        {
          "internalType": "string",
          "name": "email",
          "type": "string"
        },
        {
          "internalType": "string",
          "name": "password",
          "type": "string"
        },
        {
          "internalType": "address",
          "name": "wallet",
          "type": "address"
        },
        {
          "internalType": "string",
          "name": "role",
          "type": "string"
        },
        {
          "internalType": "uint256",
          "name": "birthday",
          "type": "uint256"
        },
        {
          "internalType": "string",
          "name": "sexe",
          "type": "string"
        }
      ],
      "stateMutability": "view",
      "type": "function",
      "constant": true
    },
    {
      "inputs": [],
      "name": "renounceOwnership",
      "outputs": [],
      "stateMutability": "nonpayable",
      "type": "function"
    },
    {
      "inputs": [
        {
          "internalType": "address",
          "name": "newOwner",
          "type": "address"
        }
      ],
      "name": "transferOwnership",
      "outputs": [],
      "stateMutability": "nonpayable",
      "type": "function"
    },
    {
      "inputs": [
        {
          "internalType": "string",
          "name": "nom",
          "type": "string"
        },
        {
          "internalType": "string",
          "name": "prenom",
          "type": "string"
        },
        {
          "internalType": "string",
          "name": "email",
          "type": "string"
        },
        {
          "internalType": "string",
          "name": "hash",
          "type": "string"
        },
        {
          "internalType": "string",
          "name": "sexe",
          "type": "string"
        },
        {
          "internalType": "uint256",
          "name": "date",
          "type": "uint256"
        }
      ],
      "name": "createPatient",
      "outputs": [],
      "stateMutability": "nonpayable",
      "type": "function"
    },
    {
      "inputs": [
        {
          "internalType": "string",
          "name": "name",
          "type": "string"
        },
        {
          "internalType": "string",
          "name": "email",
          "type": "string"
        },
        {
          "internalType": "string",
          "name": "hash",
          "type": "string"
        },
        {
          "internalType": "address",
          "name": "wallet",
          "type": "address"
        },
        {
          "internalType": "string",
          "name": "license",
          "type": "string"
        },
        {
          "internalType": "string",
          "name": "discription",
          "type": "string"
        }
      ],
      "name": "createLaboratory",
      "outputs": [],
      "stateMutability": "nonpayable",
      "type": "function"
    },
    {
      "inputs": [
        {
          "internalType": "uint256",
          "name": "id",
          "type": "uint256"
        },
        {
          "internalType": "string",
          "name": "hash",
          "type": "string"
        }
      ],
      "name": "changePasswordLaboratory",
      "outputs": [],
      "stateMutability": "nonpayable",
      "type": "function"
    },
    {
      "inputs": [
        {
          "internalType": "uint256",
          "name": "id",
          "type": "uint256"
        },
        {
          "internalType": "string",
          "name": "hash",
          "type": "string"
        }
      ],
      "name": "changePasswordPaitent",
      "outputs": [],
      "stateMutability": "nonpayable",
      "type": "function"
    },
    {
      "inputs": [
        {
          "internalType": "string",
          "name": "hash",
          "type": "string"
        }
      ],
      "name": "changePasswordAdmin",
      "outputs": [],
      "stateMutability": "nonpayable",
      "type": "function"
    },
    {
      "inputs": [
        {
          "internalType": "string",
          "name": "email",
          "type": "string"
        },
        {
          "internalType": "string",
          "name": "hash",
          "type": "string"
        }
      ],
      "name": "createAdmin",
      "outputs": [],
      "stateMutability": "nonpayable",
      "type": "function"
    },
    {
      "inputs": [
        {
          "internalType": "address",
          "name": "wallet",
          "type": "address"
        }
      ],
      "name": "getPatient",
      "outputs": [
        {
          "components": [
            {
              "internalType": "uint256",
              "name": "id",
              "type": "uint256"
            },
            {
              "internalType": "string",
              "name": "nom",
              "type": "string"
            },
            {
              "internalType": "string",
              "name": "prenom",
              "type": "string"
            },
            {
              "internalType": "string",
              "name": "email",
              "type": "string"
            },
            {
              "internalType": "string",
              "name": "password",
              "type": "string"
            },
            {
              "internalType": "address",
              "name": "wallet",
              "type": "address"
            },
            {
              "internalType": "string",
              "name": "role",
              "type": "string"
            },
            {
              "internalType": "uint256",
              "name": "birthday",
              "type": "uint256"
            },
            {
              "internalType": "string",
              "name": "sexe",
              "type": "string"
            }
          ],
          "internalType": "struct auth0.Patient",
          "name": "",
          "type": "tuple"
        }
      ],
      "stateMutability": "view",
      "type": "function",
      "constant": true
    },
    {
      "inputs": [
        {
          "internalType": "address",
          "name": "wallet",
          "type": "address"
        }
      ],
      "name": "getLaboratory",
      "outputs": [
        {
          "components": [
            {
              "internalType": "uint256",
              "name": "id",
              "type": "uint256"
            },
            {
              "internalType": "string",
              "name": "name",
              "type": "string"
            },
            {
              "internalType": "string",
              "name": "email",
              "type": "string"
            },
            {
              "internalType": "string",
              "name": "password",
              "type": "string"
            },
            {
              "internalType": "address",
              "name": "wallet",
              "type": "address"
            },
            {
              "internalType": "string",
              "name": "role",
              "type": "string"
            },
            {
              "internalType": "string",
              "name": "license",
              "type": "string"
            },
            {
              "internalType": "string",
              "name": "discription",
              "type": "string"
            }
          ],
          "internalType": "struct auth0.Laboratory",
          "name": "",
          "type": "tuple"
        }
      ],
      "stateMutability": "view",
      "type": "function",
      "constant": true
    },
    {
      "inputs": [
        {
          "internalType": "address",
          "name": "wallet",
          "type": "address"
        }
      ],
      "name": "getUserType",
      "outputs": [
        {
          "internalType": "string",
          "name": "",
          "type": "string"
        }
      ],
      "stateMutability": "view",
      "type": "function",
      "constant": true
    },
    {
      "inputs": [],
      "name": "getLaboratorys",
      "outputs": [
        {
          "components": [
            {
              "internalType": "uint256",
              "name": "id",
              "type": "uint256"
            },
            {
              "internalType": "string",
              "name": "name",
              "type": "string"
            },
            {
              "internalType": "string",
              "name": "email",
              "type": "string"
            },
            {
              "internalType": "string",
              "name": "password",
              "type": "string"
            },
            {
              "internalType": "address",
              "name": "wallet",
              "type": "address"
            },
            {
              "internalType": "string",
              "name": "role",
              "type": "string"
            },
            {
              "internalType": "string",
              "name": "license",
              "type": "string"
            },
            {
              "internalType": "string",
              "name": "discription",
              "type": "string"
            }
          ],
          "internalType": "struct auth0.Laboratory[]",
          "name": "",
          "type": "tuple[]"
        }
      ],
      "stateMutability": "view",
      "type": "function",
      "constant": true
    },
    {
      "inputs": [],
      "name": "getPatients",
      "outputs": [
        {
          "components": [
            {
              "internalType": "uint256",
              "name": "id",
              "type": "uint256"
            },
            {
              "internalType": "string",
              "name": "nom",
              "type": "string"
            },
            {
              "internalType": "string",
              "name": "prenom",
              "type": "string"
            },
            {
              "internalType": "string",
              "name": "email",
              "type": "string"
            },
            {
              "internalType": "string",
              "name": "password",
              "type": "string"
            },
            {
              "internalType": "address",
              "name": "wallet",
              "type": "address"
            },
            {
              "internalType": "string",
              "name": "role",
              "type": "string"
            },
            {
              "internalType": "uint256",
              "name": "birthday",
              "type": "uint256"
            },
            {
              "internalType": "string",
              "name": "sexe",
              "type": "string"
            }
          ],
          "internalType": "struct auth0.Patient[]",
          "name": "",
          "type": "tuple[]"
        }
      ],
      "stateMutability": "view",
      "type": "function",
      "constant": true
    }
  ],
  "bytecode": "0x60806040523480156200001157600080fd5b5062000032620000266200003860201b60201c565b6200004060201b60201c565b62000104565b600033905090565b60008060009054906101000a900473ffffffffffffffffffffffffffffffffffffffff169050816000806101000a81548173ffffffffffffffffffffffffffffffffffffffff021916908373ffffffffffffffffffffffffffffffffffffffff1602179055508173ffffffffffffffffffffffffffffffffffffffff168173ffffffffffffffffffffffffffffffffffffffff167f8be0079c531659141344cd1fd0a4f28419497f9722a3daafe3b4186f6b6457e060405160405180910390a35050565b61496e80620001146000396000f3fe608060405234801561001057600080fd5b50600436106101215760003560e01c8063b5368e20116100ad578063e4f9771311610071578063e4f9771314610317578063e8e0b05c14610333578063f1ed918514610351578063f2fde38b1461036d578063f851a4401461038957610121565b8063b5368e2014610258578063c35a717114610288578063cb029771146102a6578063d681d07c146102dd578063d6b3f1f2146102fb57610121565b8063899a0e2a116100f4578063899a0e2a146101865780638b3f863f146101b65780638da5cb5b146101e657806393119a831461020457806399d143e21461023c57610121565b806312ad1c3714610126578063282a7cb314610144578063715018a6146101605780637c67794a1461016a575b600080fd5b61012e6103aa565b60405161013b919061332d565b60405180910390f35b61015e600480360381019061015991906134c4565b610849565b005b610168610c92565b005b610184600480360381019061017f91906135dd565b610ca6565b005b6101a0600480360381019061019b9190613626565b610d38565b6040516101ad9190613726565b60405180910390f35b6101d060048036038101906101cb9190613626565b6111cd565b6040516101dd9190613792565b60405180910390f35b6101ee6113f0565b6040516101fb91906137c3565b60405180910390f35b61021e6004803603810190610219919061380a565b611419565b60405161023399989796959493929190613846565b60405180910390f35b610256600480360381019061025191906138fd565b6117b7565b005b610272600480360381019061026d9190613626565b61193f565b60405161027f9190613a5d565b60405180910390f35b610290611dde565b60405161029d9190613c14565b60405180910390f35b6102c060048036038101906102bb919061380a565b612273565b6040516102d4989796959493929190613c36565b60405180910390f35b6102e561260b565b6040516102f29190613cde565b60405180910390f35b61031560048036038101906103109190613cf9565b612611565b005b610331600480360381019061032c9190613d55565b6126c5565b005b61033b612b7f565b6040516103489190613cde565b60405180910390f35b61036b60048036038101906103669190613cf9565b612b85565b005b61038760048036038101906103829190613626565b612c39565b005b610391612cbc565b6040516103a19493929190613e6e565b60405180910390f35b60606103b4612e92565b600060015467ffffffffffffffff8111156103d2576103d161336d565b5b60405190808252806020026020018201604052801561040b57816020015b6103f8612fdc565b8152602001906001900390816103f05790505b50905060005b6001548110156108415760076000828152602001908152602001600020604051806101200160405290816000820154815260200160018201805461045490613ef7565b80601f016020809104026020016040519081016040528092919081815260200182805461048090613ef7565b80156104cd5780601f106104a2576101008083540402835291602001916104cd565b820191906000526020600020905b8154815290600101906020018083116104b057829003601f168201915b505050505081526020016002820180546104e690613ef7565b80601f016020809104026020016040519081016040528092919081815260200182805461051290613ef7565b801561055f5780601f106105345761010080835404028352916020019161055f565b820191906000526020600020905b81548152906001019060200180831161054257829003601f168201915b5050505050815260200160038201805461057890613ef7565b80601f01602080910402602001604051908101604052809291908181526020018280546105a490613ef7565b80156105f15780601f106105c6576101008083540402835291602001916105f1565b820191906000526020600020905b8154815290600101906020018083116105d457829003601f168201915b5050505050815260200160048201805461060a90613ef7565b80601f016020809104026020016040519081016040528092919081815260200182805461063690613ef7565b80156106835780601f1061065857610100808354040283529160200191610683565b820191906000526020600020905b81548152906001019060200180831161066657829003601f168201915b505050505081526020016005820160009054906101000a900473ffffffffffffffffffffffffffffffffffffffff1673ffffffffffffffffffffffffffffffffffffffff1673ffffffffffffffffffffffffffffffffffffffff1681526020016006820180546106f290613ef7565b80601f016020809104026020016040519081016040528092919081815260200182805461071e90613ef7565b801561076b5780601f106107405761010080835404028352916020019161076b565b820191906000526020600020905b81548152906001019060200180831161074e57829003601f168201915b505050505081526020016007820154815260200160088201805461078e90613ef7565b80601f01602080910402602001604051908101604052809291908181526020018280546107ba90613ef7565b80156108075780601f106107dc57610100808354040283529160200191610807565b820191906000526020600020905b8154815290600101906020018083116107ea57829003601f168201915b50505050508152505082828151811061082357610822613f28565b5b6020026020010181905250808061083990613f86565b915050610411565b508091505090565b610851612e92565b3373ffffffffffffffffffffffffffffffffffffffff168373ffffffffffffffffffffffffffffffffffffffff16036108bf576040517f08c379a00000000000000000000000000000000000000000000000000000000081526004016108b690614040565b60405180910390fd5b600960008473ffffffffffffffffffffffffffffffffffffffff1673ffffffffffffffffffffffffffffffffffffffff16815260200190815260200160002060009054906101000a900460ff161561094c576040517f08c379a0000000000000000000000000000000000000000000000000000000008152600401610943906140ac565b60405180910390fd5b6000865111610990576040517f08c379a000000000000000000000000000000000000000000000000000000000815260040161098790614118565b60405180910390fd5b60008551116109d4576040517f08c379a00000000000000000000000000000000000000000000000000000000081526004016109cb90614184565b60405180910390fd5b6000845111610a18576040517f08c379a0000000000000000000000000000000000000000000000000000000008152600401610a0f906141f0565b60405180910390fd5b6000825111610a5c576040517f08c379a0000000000000000000000000000000000000000000000000000000008152600401610a53906141f0565b60405180910390fd5b6000815111610aa0576040517f08c379a0000000000000000000000000000000000000000000000000000000008152600401610a979061425c565b60405180910390fd5b600060405180610100016040528060025481526020018881526020018781526020018681526020018573ffffffffffffffffffffffffffffffffffffffff1681526020016040518060400160405280600a81526020017f4c61626f7261746f727900000000000000000000000000000000000000000000815250815260200184815260200183815250905080600860006002548152602001908152602001600020600082015181600001556020820151816001019081610b609190614428565b506040820151816002019081610b769190614428565b506060820151816003019081610b8c9190614428565b5060808201518160040160006101000a81548173ffffffffffffffffffffffffffffffffffffffff021916908373ffffffffffffffffffffffffffffffffffffffff16021790555060a0820151816005019081610be99190614428565b5060c0820151816006019081610bff9190614428565b5060e0820151816007019081610c159190614428565b5090505060026000815480929190610c2c90613f86565b91905055506001600960008673ffffffffffffffffffffffffffffffffffffffff1673ffffffffffffffffffffffffffffffffffffffff16815260200190815260200160002060006101000a81548160ff02191690831515021790555050505050505050565b610c9a612e92565b610ca46000612f10565b565b610cae612e92565b3373ffffffffffffffffffffffffffffffffffffffff16610ccd6113f0565b73ffffffffffffffffffffffffffffffffffffffff1614610d23576040517f08c379a0000000000000000000000000000000000000000000000000000000008152600401610d1a90614546565b60405180910390fd5b80600380019081610d349190614428565b5050565b610d4061303e565b610d4861303e565b60005b6002548110156111c3578373ffffffffffffffffffffffffffffffffffffffff166008600083815260200190815260200160002060040160009054906101000a900473ffffffffffffffffffffffffffffffffffffffff1673ffffffffffffffffffffffffffffffffffffffff16036111b057600860008281526020019081526020016000206040518061010001604052908160008201548152602001600182018054610df790613ef7565b80601f0160208091040260200160405190810160405280929190818152602001828054610e2390613ef7565b8015610e705780601f10610e4557610100808354040283529160200191610e70565b820191906000526020600020905b815481529060010190602001808311610e5357829003601f168201915b50505050508152602001600282018054610e8990613ef7565b80601f0160208091040260200160405190810160405280929190818152602001828054610eb590613ef7565b8015610f025780601f10610ed757610100808354040283529160200191610f02565b820191906000526020600020905b815481529060010190602001808311610ee557829003601f168201915b50505050508152602001600382018054610f1b90613ef7565b80601f0160208091040260200160405190810160405280929190818152602001828054610f4790613ef7565b8015610f945780601f10610f6957610100808354040283529160200191610f94565b820191906000526020600020905b815481529060010190602001808311610f7757829003601f168201915b505050505081526020016004820160009054906101000a900473ffffffffffffffffffffffffffffffffffffffff1673ffffffffffffffffffffffffffffffffffffffff1673ffffffffffffffffffffffffffffffffffffffff16815260200160058201805461100390613ef7565b80601f016020809104026020016040519081016040528092919081815260200182805461102f90613ef7565b801561107c5780601f106110515761010080835404028352916020019161107c565b820191906000526020600020905b81548152906001019060200180831161105f57829003601f168201915b5050505050815260200160068201805461109590613ef7565b80601f01602080910402602001604051908101604052809291908181526020018280546110c190613ef7565b801561110e5780601f106110e35761010080835404028352916020019161110e565b820191906000526020600020905b8154815290600101906020018083116110f157829003601f168201915b5050505050815260200160078201805461112790613ef7565b80601f016020809104026020016040519081016040528092919081815260200182805461115390613ef7565b80156111a05780601f10611175576101008083540402835291602001916111a0565b820191906000526020600020905b81548152906001019060200180831161118357829003601f168201915b50505050508152505091506111c3565b80806111bb90613f86565b915050610d4b565b5080915050919050565b606080600360000160009054906101000a900473ffffffffffffffffffffffffffffffffffffffff1673ffffffffffffffffffffffffffffffffffffffff168373ffffffffffffffffffffffffffffffffffffffff1603611261576040518060400160405280600581526020017f61646d696e00000000000000000000000000000000000000000000000000000081525090505b60005b600154811015611323578373ffffffffffffffffffffffffffffffffffffffff166007600083815260200190815260200160002060050160009054906101000a900473ffffffffffffffffffffffffffffffffffffffff1673ffffffffffffffffffffffffffffffffffffffff1603611310576040518060400160405280600781526020017f70617469656e740000000000000000000000000000000000000000000000000081525091505b808061131b90613f86565b915050611264565b5060005b6002548110156113e6578373ffffffffffffffffffffffffffffffffffffffff166008600083815260200190815260200160002060040160009054906101000a900473ffffffffffffffffffffffffffffffffffffffff1673ffffffffffffffffffffffffffffffffffffffff16036113d3576040518060400160405280600a81526020017f6c61626f7261746f72790000000000000000000000000000000000000000000081525091505b80806113de90613f86565b915050611327565b5080915050919050565b60008060009054906101000a900473ffffffffffffffffffffffffffffffffffffffff16905090565b600760205280600052604060002060009150905080600001549080600101805461144290613ef7565b80601f016020809104026020016040519081016040528092919081815260200182805461146e90613ef7565b80156114bb5780601f10611490576101008083540402835291602001916114bb565b820191906000526020600020905b81548152906001019060200180831161149e57829003601f168201915b5050505050908060020180546114d090613ef7565b80601f01602080910402602001604051908101604052809291908181526020018280546114fc90613ef7565b80156115495780601f1061151e57610100808354040283529160200191611549565b820191906000526020600020905b81548152906001019060200180831161152c57829003601f168201915b50505050509080600301805461155e90613ef7565b80601f016020809104026020016040519081016040528092919081815260200182805461158a90613ef7565b80156115d75780601f106115ac576101008083540402835291602001916115d7565b820191906000526020600020905b8154815290600101906020018083116115ba57829003601f168201915b5050505050908060040180546115ec90613ef7565b80601f016020809104026020016040519081016040528092919081815260200182805461161890613ef7565b80156116655780601f1061163a57610100808354040283529160200191611665565b820191906000526020600020905b81548152906001019060200180831161164857829003601f168201915b5050505050908060050160009054906101000a900473ffffffffffffffffffffffffffffffffffffffff16908060060180546116a090613ef7565b80601f01602080910402602001604051908101604052809291908181526020018280546116cc90613ef7565b80156117195780601f106116ee57610100808354040283529160200191611719565b820191906000526020600020905b8154815290600101906020018083116116fc57829003601f168201915b50505050509080600701549080600801805461173490613ef7565b80601f016020809104026020016040519081016040528092919081815260200182805461176090613ef7565b80156117ad5780601f10611782576101008083540402835291602001916117ad565b820191906000526020600020905b81548152906001019060200180831161179057829003601f168201915b5050505050905089565b6117bf612e92565b3373ffffffffffffffffffffffffffffffffffffffff166117de6113f0565b73ffffffffffffffffffffffffffffffffffffffff1614611834576040517f08c379a000000000000000000000000000000000000000000000000000000000815260040161182b906145d8565b60405180910390fd5b600060405180608001604052806118496113f0565b73ffffffffffffffffffffffffffffffffffffffff1681526020016040518060400160405280600581526020017f61646d696e000000000000000000000000000000000000000000000000000000815250815260200184815260200183815250905080600360008201518160000160006101000a81548173ffffffffffffffffffffffffffffffffffffffff021916908373ffffffffffffffffffffffffffffffffffffffff160217905550602082015181600101908161190a9190614428565b5060408201518160020190816119209190614428565b5060608201518160030190816119369190614428565b50905050505050565b611947612fdc565b61194f612fdc565b60005b600154811015611dd4578373ffffffffffffffffffffffffffffffffffffffff166007600083815260200190815260200160002060050160009054906101000a900473ffffffffffffffffffffffffffffffffffffffff1673ffffffffffffffffffffffffffffffffffffffff1603611dc1576007600082815260200190815260200160002060405180610120016040529081600082015481526020016001820180546119fe90613ef7565b80601f0160208091040260200160405190810160405280929190818152602001828054611a2a90613ef7565b8015611a775780601f10611a4c57610100808354040283529160200191611a77565b820191906000526020600020905b815481529060010190602001808311611a5a57829003601f168201915b50505050508152602001600282018054611a9090613ef7565b80601f0160208091040260200160405190810160405280929190818152602001828054611abc90613ef7565b8015611b095780601f10611ade57610100808354040283529160200191611b09565b820191906000526020600020905b815481529060010190602001808311611aec57829003601f168201915b50505050508152602001600382018054611b2290613ef7565b80601f0160208091040260200160405190810160405280929190818152602001828054611b4e90613ef7565b8015611b9b5780601f10611b7057610100808354040283529160200191611b9b565b820191906000526020600020905b815481529060010190602001808311611b7e57829003601f168201915b50505050508152602001600482018054611bb490613ef7565b80601f0160208091040260200160405190810160405280929190818152602001828054611be090613ef7565b8015611c2d5780601f10611c0257610100808354040283529160200191611c2d565b820191906000526020600020905b815481529060010190602001808311611c1057829003601f168201915b505050505081526020016005820160009054906101000a900473ffffffffffffffffffffffffffffffffffffffff1673ffffffffffffffffffffffffffffffffffffffff1673ffffffffffffffffffffffffffffffffffffffff168152602001600682018054611c9c90613ef7565b80601f0160208091040260200160405190810160405280929190818152602001828054611cc890613ef7565b8015611d155780601f10611cea57610100808354040283529160200191611d15565b820191906000526020600020905b815481529060010190602001808311611cf857829003601f168201915b5050505050815260200160078201548152602001600882018054611d3890613ef7565b80601f0160208091040260200160405190810160405280929190818152602001828054611d6490613ef7565b8015611db15780601f10611d8657610100808354040283529160200191611db1565b820191906000526020600020905b815481529060010190602001808311611d9457829003601f168201915b5050505050815250509150611dd4565b8080611dcc90613f86565b915050611952565b5080915050919050565b6060611de8612e92565b600060025467ffffffffffffffff811115611e0657611e0561336d565b5b604051908082528060200260200182016040528015611e3f57816020015b611e2c61303e565b815260200190600190039081611e245790505b50905060005b60025481101561226b57600860008281526020019081526020016000206040518061010001604052908160008201548152602001600182018054611e8890613ef7565b80601f0160208091040260200160405190810160405280929190818152602001828054611eb490613ef7565b8015611f015780601f10611ed657610100808354040283529160200191611f01565b820191906000526020600020905b815481529060010190602001808311611ee457829003601f168201915b50505050508152602001600282018054611f1a90613ef7565b80601f0160208091040260200160405190810160405280929190818152602001828054611f4690613ef7565b8015611f935780601f10611f6857610100808354040283529160200191611f93565b820191906000526020600020905b815481529060010190602001808311611f7657829003601f168201915b50505050508152602001600382018054611fac90613ef7565b80601f0160208091040260200160405190810160405280929190818152602001828054611fd890613ef7565b80156120255780601f10611ffa57610100808354040283529160200191612025565b820191906000526020600020905b81548152906001019060200180831161200857829003601f168201915b505050505081526020016004820160009054906101000a900473ffffffffffffffffffffffffffffffffffffffff1673ffffffffffffffffffffffffffffffffffffffff1673ffffffffffffffffffffffffffffffffffffffff16815260200160058201805461209490613ef7565b80601f01602080910402602001604051908101604052809291908181526020018280546120c090613ef7565b801561210d5780601f106120e25761010080835404028352916020019161210d565b820191906000526020600020905b8154815290600101906020018083116120f057829003601f168201915b5050505050815260200160068201805461212690613ef7565b80601f016020809104026020016040519081016040528092919081815260200182805461215290613ef7565b801561219f5780601f106121745761010080835404028352916020019161219f565b820191906000526020600020905b81548152906001019060200180831161218257829003601f168201915b505050505081526020016007820180546121b890613ef7565b80601f01602080910402602001604051908101604052809291908181526020018280546121e490613ef7565b80156122315780601f1061220657610100808354040283529160200191612231565b820191906000526020600020905b81548152906001019060200180831161221457829003601f168201915b50505050508152505082828151811061224d5761224c613f28565b5b6020026020010181905250808061226390613f86565b915050611e45565b508091505090565b600860205280600052604060002060009150905080600001549080600101805461229c90613ef7565b80601f01602080910402602001604051908101604052809291908181526020018280546122c890613ef7565b80156123155780601f106122ea57610100808354040283529160200191612315565b820191906000526020600020905b8154815290600101906020018083116122f857829003601f168201915b50505050509080600201805461232a90613ef7565b80601f016020809104026020016040519081016040528092919081815260200182805461235690613ef7565b80156123a35780601f10612378576101008083540402835291602001916123a3565b820191906000526020600020905b81548152906001019060200180831161238657829003601f168201915b5050505050908060030180546123b890613ef7565b80601f01602080910402602001604051908101604052809291908181526020018280546123e490613ef7565b80156124315780601f1061240657610100808354040283529160200191612431565b820191906000526020600020905b81548152906001019060200180831161241457829003601f168201915b5050505050908060040160009054906101000a900473ffffffffffffffffffffffffffffffffffffffff169080600501805461246c90613ef7565b80601f016020809104026020016040519081016040528092919081815260200182805461249890613ef7565b80156124e55780601f106124ba576101008083540402835291602001916124e5565b820191906000526020600020905b8154815290600101906020018083116124c857829003601f168201915b5050505050908060060180546124fa90613ef7565b80601f016020809104026020016040519081016040528092919081815260200182805461252690613ef7565b80156125735780601f1061254857610100808354040283529160200191612573565b820191906000526020600020905b81548152906001019060200180831161255657829003601f168201915b50505050509080600701805461258890613ef7565b80601f01602080910402602001604051908101604052809291908181526020018280546125b490613ef7565b80156126015780601f106125d657610100808354040283529160200191612601565b820191906000526020600020905b8154815290600101906020018083116125e457829003601f168201915b5050505050905088565b60025481565b600960003373ffffffffffffffffffffffffffffffffffffffff1673ffffffffffffffffffffffffffffffffffffffff16815260200190815260200160002060009054906101000a900460ff1661269d576040517f08c379a000000000000000000000000000000000000000000000000000000000815260040161269490614644565b60405180910390fd5b806008600084815260200190815260200160002060030190816126c09190614428565b505050565b3373ffffffffffffffffffffffffffffffffffffffff16600360000160009054906101000a900473ffffffffffffffffffffffffffffffffffffffff1673ffffffffffffffffffffffffffffffffffffffff1603612758576040517f08c379a000000000000000000000000000000000000000000000000000000000815260040161274f906146d6565b60405180910390fd5b600960003373ffffffffffffffffffffffffffffffffffffffff1673ffffffffffffffffffffffffffffffffffffffff16815260200190815260200160002060009054906101000a900460ff16156127e5576040517f08c379a00000000000000000000000000000000000000000000000000000000081526004016127dc906140ac565b60405180910390fd5b6000865111612829576040517f08c379a000000000000000000000000000000000000000000000000000000000815260040161282090614118565b60405180910390fd5b600085511161286d576040517f08c379a000000000000000000000000000000000000000000000000000000000815260040161286490614742565b60405180910390fd5b60008451116128b1576040517f08c379a00000000000000000000000000000000000000000000000000000000081526004016128a890614184565b60405180910390fd5b60008351116128f5576040517f08c379a00000000000000000000000000000000000000000000000000000000081526004016128ec906141f0565b60405180910390fd5b6000825111612939576040517f08c379a0000000000000000000000000000000000000000000000000000000008152600401612930906147ae565b60405180910390fd5b6000811161297c576040517f08c379a00000000000000000000000000000000000000000000000000000000081526004016129739061481a565b60405180910390fd5b600060405180610120016040528060015481526020018881526020018781526020018681526020018581526020013373ffffffffffffffffffffffffffffffffffffffff1681526020016040518060400160405280600781526020017f50617469656e7400000000000000000000000000000000000000000000000000815250815260200183815260200184815250905080600760006001548152602001908152602001600020600082015181600001556020820151816001019081612a429190614428565b506040820151816002019081612a589190614428565b506060820151816003019081612a6e9190614428565b506080820151816004019081612a849190614428565b5060a08201518160050160006101000a81548173ffffffffffffffffffffffffffffffffffffffff021916908373ffffffffffffffffffffffffffffffffffffffff16021790555060c0820151816006019081612ae19190614428565b5060e08201518160070155610100820151816008019081612b029190614428565b5090505060016000815480929190612b1990613f86565b91905055506001600960003373ffffffffffffffffffffffffffffffffffffffff1673ffffffffffffffffffffffffffffffffffffffff16815260200190815260200160002060006101000a81548160ff02191690831515021790555050505050505050565b60015481565b600960003373ffffffffffffffffffffffffffffffffffffffff1673ffffffffffffffffffffffffffffffffffffffff16815260200190815260200160002060009054906101000a900460ff16612c11576040517f08c379a0000000000000000000000000000000000000000000000000000000008152600401612c0890614644565b60405180910390fd5b80600760008481526020019081526020016000206004019081612c349190614428565b505050565b612c41612e92565b600073ffffffffffffffffffffffffffffffffffffffff168173ffffffffffffffffffffffffffffffffffffffff1603612cb0576040517f08c379a0000000000000000000000000000000000000000000000000000000008152600401612ca7906148ac565b60405180910390fd5b612cb981612f10565b50565b60038060000160009054906101000a900473ffffffffffffffffffffffffffffffffffffffff1690806001018054612cf390613ef7565b80601f0160208091040260200160405190810160405280929190818152602001828054612d1f90613ef7565b8015612d6c5780601f10612d4157610100808354040283529160200191612d6c565b820191906000526020600020905b815481529060010190602001808311612d4f57829003601f168201915b505050505090806002018054612d8190613ef7565b80601f0160208091040260200160405190810160405280929190818152602001828054612dad90613ef7565b8015612dfa5780601f10612dcf57610100808354040283529160200191612dfa565b820191906000526020600020905b815481529060010190602001808311612ddd57829003601f168201915b505050505090806003018054612e0f90613ef7565b80601f0160208091040260200160405190810160405280929190818152602001828054612e3b90613ef7565b8015612e885780601f10612e5d57610100808354040283529160200191612e88565b820191906000526020600020905b815481529060010190602001808311612e6b57829003601f168201915b5050505050905084565b612e9a612fd4565b73ffffffffffffffffffffffffffffffffffffffff16612eb86113f0565b73ffffffffffffffffffffffffffffffffffffffff1614612f0e576040517f08c379a0000000000000000000000000000000000000000000000000000000008152600401612f0590614918565b60405180910390fd5b565b60008060009054906101000a900473ffffffffffffffffffffffffffffffffffffffff169050816000806101000a81548173ffffffffffffffffffffffffffffffffffffffff021916908373ffffffffffffffffffffffffffffffffffffffff1602179055508173ffffffffffffffffffffffffffffffffffffffff168173ffffffffffffffffffffffffffffffffffffffff167f8be0079c531659141344cd1fd0a4f28419497f9722a3daafe3b4186f6b6457e060405160405180910390a35050565b600033905090565b6040518061012001604052806000815260200160608152602001606081526020016060815260200160608152602001600073ffffffffffffffffffffffffffffffffffffffff1681526020016060815260200160008152602001606081525090565b60405180610100016040528060008152602001606081526020016060815260200160608152602001600073ffffffffffffffffffffffffffffffffffffffff1681526020016060815260200160608152602001606081525090565b600081519050919050565b600082825260208201905092915050565b6000819050602082019050919050565b6000819050919050565b6130d8816130c5565b82525050565b600081519050919050565b600082825260208201905092915050565b60005b838110156131185780820151818401526020810190506130fd565b60008484015250505050565b6000601f19601f8301169050919050565b6000613140826130de565b61314a81856130e9565b935061315a8185602086016130fa565b61316381613124565b840191505092915050565b600073ffffffffffffffffffffffffffffffffffffffff82169050919050565b60006131998261316e565b9050919050565b6131a98161318e565b82525050565b6000610120830160008301516131c860008601826130cf565b50602083015184820360208601526131e08282613135565b915050604083015184820360408601526131fa8282613135565b915050606083015184820360608601526132148282613135565b9150506080830151848203608086015261322e8282613135565b91505060a083015161324360a08601826131a0565b5060c083015184820360c086015261325b8282613135565b91505060e083015161327060e08601826130cf565b5061010083015184820361010086015261328a8282613135565b9150508091505092915050565b60006132a383836131af565b905092915050565b6000602082019050919050565b60006132c382613099565b6132cd81856130a4565b9350836020820285016132df856130b5565b8060005b8581101561331b57848403895281516132fc8582613297565b9450613307836132ab565b925060208a019950506001810190506132e3565b50829750879550505050505092915050565b6000602082019050818103600083015261334781846132b8565b905092915050565b6000604051905090565b600080fd5b600080fd5b600080fd5b600080fd5b7f4e487b7100000000000000000000000000000000000000000000000000000000600052604160045260246000fd5b6133a582613124565b810181811067ffffffffffffffff821117156133c4576133c361336d565b5b80604052505050565b60006133d761334f565b90506133e3828261339c565b919050565b600067ffffffffffffffff8211156134035761340261336d565b5b61340c82613124565b9050602081019050919050565b82818337600083830152505050565b600061343b613436846133e8565b6133cd565b90508281526020810184848401111561345757613456613368565b5b613462848285613419565b509392505050565b600082601f83011261347f5761347e613363565b5b813561348f848260208601613428565b91505092915050565b6134a18161318e565b81146134ac57600080fd5b50565b6000813590506134be81613498565b92915050565b60008060008060008060c087890312156134e1576134e0613359565b5b600087013567ffffffffffffffff8111156134ff576134fe61335e565b5b61350b89828a0161346a565b965050602087013567ffffffffffffffff81111561352c5761352b61335e565b5b61353889828a0161346a565b955050604087013567ffffffffffffffff8111156135595761355861335e565b5b61356589828a0161346a565b945050606061357689828a016134af565b935050608087013567ffffffffffffffff8111156135975761359661335e565b5b6135a389828a0161346a565b92505060a087013567ffffffffffffffff8111156135c4576135c361335e565b5b6135d089828a0161346a565b9150509295509295509295565b6000602082840312156135f3576135f2613359565b5b600082013567ffffffffffffffff8111156136115761361061335e565b5b61361d8482850161346a565b91505092915050565b60006020828403121561363c5761363b613359565b5b600061364a848285016134af565b91505092915050565b60006101008301600083015161366c60008601826130cf565b50602083015184820360208601526136848282613135565b9150506040830151848203604086015261369e8282613135565b915050606083015184820360608601526136b88282613135565b91505060808301516136cd60808601826131a0565b5060a083015184820360a08601526136e58282613135565b91505060c083015184820360c08601526136ff8282613135565b91505060e083015184820360e08601526137198282613135565b9150508091505092915050565b600060208201905081810360008301526137408184613653565b905092915050565b600082825260208201905092915050565b6000613764826130de565b61376e8185613748565b935061377e8185602086016130fa565b61378781613124565b840191505092915050565b600060208201905081810360008301526137ac8184613759565b905092915050565b6137bd8161318e565b82525050565b60006020820190506137d860008301846137b4565b92915050565b6137e7816130c5565b81146137f257600080fd5b50565b600081359050613804816137de565b92915050565b6000602082840312156138205761381f613359565b5b600061382e848285016137f5565b91505092915050565b613840816130c5565b82525050565b60006101208201905061385c600083018c613837565b818103602083015261386e818b613759565b90508181036040830152613882818a613759565b905081810360608301526138968189613759565b905081810360808301526138aa8188613759565b90506138b960a08301876137b4565b81810360c08301526138cb8186613759565b90506138da60e0830185613837565b8181036101008301526138ed8184613759565b90509a9950505050505050505050565b6000806040838503121561391457613913613359565b5b600083013567ffffffffffffffff8111156139325761393161335e565b5b61393e8582860161346a565b925050602083013567ffffffffffffffff81111561395f5761395e61335e565b5b61396b8582860161346a565b9150509250929050565b60006101208301600083015161398e60008601826130cf565b50602083015184820360208601526139a68282613135565b915050604083015184820360408601526139c08282613135565b915050606083015184820360608601526139da8282613135565b915050608083015184820360808601526139f48282613135565b91505060a0830151613a0960a08601826131a0565b5060c083015184820360c0860152613a218282613135565b91505060e0830151613a3660e08601826130cf565b50610100830151848203610100860152613a508282613135565b9150508091505092915050565b60006020820190508181036000830152613a778184613975565b905092915050565b600081519050919050565b600082825260208201905092915050565b6000819050602082019050919050565b600061010083016000830151613ac460008601826130cf565b5060208301518482036020860152613adc8282613135565b91505060408301518482036040860152613af68282613135565b91505060608301518482036060860152613b108282613135565b9150506080830151613b2560808601826131a0565b5060a083015184820360a0860152613b3d8282613135565b91505060c083015184820360c0860152613b578282613135565b91505060e083015184820360e0860152613b718282613135565b9150508091505092915050565b6000613b8a8383613aab565b905092915050565b6000602082019050919050565b6000613baa82613a7f565b613bb48185613a8a565b935083602082028501613bc685613a9b565b8060005b85811015613c025784840389528151613be38582613b7e565b9450613bee83613b92565b925060208a01995050600181019050613bca565b50829750879550505050505092915050565b60006020820190508181036000830152613c2e8184613b9f565b905092915050565b600061010082019050613c4c600083018b613837565b8181036020830152613c5e818a613759565b90508181036040830152613c728189613759565b90508181036060830152613c868188613759565b9050613c9560808301876137b4565b81810360a0830152613ca78186613759565b905081810360c0830152613cbb8185613759565b905081810360e0830152613ccf8184613759565b90509998505050505050505050565b6000602082019050613cf36000830184613837565b92915050565b60008060408385031215613d1057613d0f613359565b5b6000613d1e858286016137f5565b925050602083013567ffffffffffffffff811115613d3f57613d3e61335e565b5b613d4b8582860161346a565b9150509250929050565b60008060008060008060c08789031215613d7257613d71613359565b5b600087013567ffffffffffffffff811115613d9057613d8f61335e565b5b613d9c89828a0161346a565b965050602087013567ffffffffffffffff811115613dbd57613dbc61335e565b5b613dc989828a0161346a565b955050604087013567ffffffffffffffff811115613dea57613de961335e565b5b613df689828a0161346a565b945050606087013567ffffffffffffffff811115613e1757613e1661335e565b5b613e2389828a0161346a565b935050608087013567ffffffffffffffff811115613e4457613e4361335e565b5b613e5089828a0161346a565b92505060a0613e6189828a016137f5565b9150509295509295509295565b6000608082019050613e8360008301876137b4565b8181036020830152613e958186613759565b90508181036040830152613ea98185613759565b90508181036060830152613ebd8184613759565b905095945050505050565b7f4e487b7100000000000000000000000000000000000000000000000000000000600052602260045260246000fd5b60006002820490506001821680613f0f57607f821691505b602082108103613f2257613f21613ec8565b5b50919050565b7f4e487b7100000000000000000000000000000000000000000000000000000000600052603260045260246000fd5b7f4e487b7100000000000000000000000000000000000000000000000000000000600052601160045260246000fd5b6000613f91826130c5565b91507fffffffffffffffffffffffffffffffffffffffffffffffffffffffffffffffff8203613fc357613fc2613f57565b5b600182019050919050565b7f596f752063616e277420637265617465206c61626f7261746f7279206163636f60008201527f756e7420776974682061646d696e206164647265737300000000000000000000602082015250565b600061402a603683613748565b915061403582613fce565b604082019050919050565b600060208201905081810360008301526140598161401d565b9050919050565b7f54686973206164647265737320697320616c6c72656164792075736564000000600082015250565b6000614096601d83613748565b91506140a182614060565b602082019050919050565b600060208201905081810360008301526140c581614089565b9050919050565b7f6e6f6d206d757374206265206e6f7420656d7074790000000000000000000000600082015250565b6000614102601583613748565b915061410d826140cc565b602082019050919050565b60006020820190508181036000830152614131816140f5565b9050919050565b7f656d61696c206d757374206265206e6f7420656d707479000000000000000000600082015250565b600061416e601783613748565b915061417982614138565b602082019050919050565b6000602082019050818103600083015261419d81614161565b9050919050565b7f70617373776f7264206d757374206265206e6f7420656d707479000000000000600082015250565b60006141da601a83613748565b91506141e5826141a4565b602082019050919050565b60006020820190508181036000830152614209816141cd565b9050919050565b7f6469736372697074696f6e206d757374206265206e6f7420656d707479000000600082015250565b6000614246601d83613748565b915061425182614210565b602082019050919050565b6000602082019050818103600083015261427581614239565b9050919050565b60008190508160005260206000209050919050565b60006020601f8301049050919050565b600082821b905092915050565b6000600883026142de7fffffffffffffffffffffffffffffffffffffffffffffffffffffffffffffffff826142a1565b6142e886836142a1565b95508019841693508086168417925050509392505050565b6000819050919050565b600061432561432061431b846130c5565b614300565b6130c5565b9050919050565b6000819050919050565b61433f8361430a565b61435361434b8261432c565b8484546142ae565b825550505050565b600090565b61436861435b565b614373818484614336565b505050565b5b818110156143975761438c600082614360565b600181019050614379565b5050565b601f8211156143dc576143ad8161427c565b6143b684614291565b810160208510156143c5578190505b6143d96143d185614291565b830182614378565b50505b505050565b600082821c905092915050565b60006143ff600019846008026143e1565b1980831691505092915050565b600061441883836143ee565b9150826002028217905092915050565b614431826130de565b67ffffffffffffffff81111561444a5761444961336d565b5b6144548254613ef7565b61445f82828561439b565b600060209050601f8311600181146144925760008415614480578287015190505b61448a858261440c565b8655506144f2565b601f1984166144a08661427c565b60005b828110156144c8578489015182556001820191506020850194506020810190506144a3565b868310156144e557848901516144e1601f8916826143ee565b8355505b6001600288020188555050505b505050505050565b7f596f757220617265206e6f74207468652061646d696e00000000000000000000600082015250565b6000614530601683613748565b915061453b826144fa565b602082019050919050565b6000602082019050818103600083015261455f81614523565b9050919050565b7f596f757220617265206e6f7420746865206f776e6572206f662074686973206360008201527f6f6e747261637420000000000000000000000000000000000000000000000000602082015250565b60006145c2602883613748565b91506145cd82614566565b604082019050919050565b600060208201905081810360008301526145f1816145b5565b9050919050565b7f54686973206163636f756e74206973206e6f7420666f756e6400000000000000600082015250565b600061462e601983613748565b9150614639826145f8565b602082019050919050565b6000602082019050818103600083015261465d81614621565b9050919050565b7f596f752063616e2774206372656174652070617469656e74206163636f756e7460008201527f20776974682061646d696e206164647265737300000000000000000000000000602082015250565b60006146c0603383613748565b91506146cb82614664565b604082019050919050565b600060208201905081810360008301526146ef816146b3565b9050919050565b7f7072656e6f6d206d757374206265206e6f7420656d7074790000000000000000600082015250565b600061472c601883613748565b9150614737826146f6565b602082019050919050565b6000602082019050818103600083015261475b8161471f565b9050919050565b7f73657865206d757374206265206e6f7420656d70747900000000000000000000600082015250565b6000614798601683613748565b91506147a382614762565b602082019050919050565b600060208201905081810360008301526147c78161478b565b9050919050565b7f64617465206d757374206265206e6f7420656d70747900000000000000000000600082015250565b6000614804601683613748565b915061480f826147ce565b602082019050919050565b60006020820190508181036000830152614833816147f7565b9050919050565b7f4f776e61626c653a206e6577206f776e657220697320746865207a65726f206160008201527f6464726573730000000000000000000000000000000000000000000000000000602082015250565b6000614896602683613748565b91506148a18261483a565b604082019050919050565b600060208201905081810360008301526148c581614889565b9050919050565b7f4f776e61626c653a2063616c6c6572206973206e6f7420746865206f776e6572600082015250565b6000614902602083613748565b915061490d826148cc565b602082019050919050565b60006020820190508181036000830152614931816148f5565b905091905056fea264697066735822122085f9af7940e31b83cd6b97decffdab0db675326aa728ee3bb3c251ee1d7f7c6164736f6c63430008120033",
  "immutableReferences": {},
  "source": "// SPDX-License-Identifier: MIT\r\npragma solidity ^0.8.0;\r\nimport \"@openzeppelin/contracts/access/Ownable.sol\";\r\n\r\ncontract auth0 is Ownable {\r\n    uint256 public patientCounter;\r\n    uint256 public laboratoryCounter;\r\n\r\n    struct Admin {\r\n        address wallet;\r\n        string name;\r\n        string email;\r\n        string password;\r\n    }\r\n\r\n    struct Patient {\r\n        uint256 id;\r\n        string nom;\r\n        string prenom;\r\n        string email;\r\n        string password;\r\n        address wallet;\r\n        string role;\r\n        uint256 birthday;\r\n        string sexe;\r\n    }\r\n    struct Laboratory {\r\n        uint256 id;\r\n        string name;\r\n        string email;\r\n        string password;\r\n        address wallet;\r\n        string role;\r\n        string license;\r\n        string discription;\r\n    }\r\n\r\n    Admin public admin;\r\n    mapping(uint256 => Patient) public patients;\r\n    mapping(uint256 => Laboratory) public laboratorys;\r\n    mapping(address => bool) private addressArray;\r\n\r\n    constructor() {}\r\n\r\n    //create patient\r\n    function createPatient(\r\n        string memory nom,\r\n        string memory prenom,\r\n        string memory email,\r\n        string memory hash,\r\n        string memory sexe,\r\n        uint256 date\r\n    ) public {\r\n        require(\r\n            admin.wallet != msg.sender,\r\n            \"You can't create patient account with admin address\"\r\n        );\r\n\r\n        require(!addressArray[msg.sender], \"This address is allready used\");\r\n        require(bytes(nom).length > 0, \"nom must be not empty\");\r\n        require(bytes(prenom).length > 0, \"prenom must be not empty\");\r\n        require(bytes(email).length > 0, \"email must be not empty\");\r\n        require(bytes(hash).length > 0, \"password must be not empty\");\r\n        require(bytes(sexe).length > 0, \"sexe must be not empty\");\r\n        require(date > 0, \"date must be not empty\");\r\n        Patient memory data = Patient({\r\n            id: patientCounter,\r\n            nom: nom,\r\n            prenom: prenom,\r\n            email: email,\r\n            password: hash,\r\n            wallet: msg.sender,\r\n            role: \"Patient\",\r\n            birthday: date,\r\n            sexe: sexe\r\n        });\r\n        patients[patientCounter] = data;\r\n        patientCounter++;\r\n        addressArray[msg.sender] = true;\r\n    }\r\n\r\n    //create laboratory\r\n    function createLaboratory(\r\n        string memory name,\r\n        string memory email,\r\n        string memory hash,\r\n        address wallet,\r\n        string memory license,\r\n        string memory discription\r\n    ) public onlyOwner {\r\n        require(\r\n            wallet != msg.sender,\r\n            \"You can't create laboratory account with admin address\"\r\n        );\r\n        require(!addressArray[wallet], \"This address is allready used\");\r\n        require(bytes(name).length > 0, \"nom must be not empty\");\r\n        require(bytes(email).length > 0, \"email must be not empty\");\r\n        require(bytes(hash).length > 0, \"password must be not empty\");\r\n        require(bytes(license).length > 0, \"password must be not empty\");\r\n        require(bytes(discription).length > 0, \"discription must be not empty\");\r\n        Laboratory memory data = Laboratory({\r\n            id: laboratoryCounter,\r\n            name: name,\r\n            email: email,\r\n            password: hash,\r\n            wallet: wallet,\r\n            role: \"Laboratory\",\r\n            license: license,\r\n            discription: discription\r\n        });\r\n        laboratorys[laboratoryCounter] = data;\r\n        laboratoryCounter++;\r\n        addressArray[wallet] = true;\r\n    }\r\n\r\n    //change password laboratory\r\n    function changePasswordLaboratory(uint256 id, string memory hash) public {\r\n        require(addressArray[msg.sender], \"This account is not found\");\r\n        laboratorys[id].password = hash;\r\n    }\r\n\r\n    function changePasswordPaitent(uint256 id, string memory hash) public {\r\n        require(addressArray[msg.sender], \"This account is not found\");\r\n        patients[id].password = hash;\r\n    }\r\n\r\n    function changePasswordAdmin(string memory hash) public onlyOwner {\r\n        require(owner() == msg.sender, \"Your are not the admin\");\r\n        admin.password = hash;\r\n    }\r\n\r\n    function createAdmin(string memory email, string memory hash)\r\n        public\r\n        onlyOwner\r\n    {\r\n        require(\r\n            owner() == msg.sender,\r\n            \"Your are not the owner of this contract \"\r\n        );\r\n        Admin memory data = Admin({\r\n            wallet: owner(),\r\n            name: \"admin\",\r\n            email: email,\r\n            password: hash\r\n        });\r\n\r\n        admin = data;\r\n    }\r\n\r\n    function getPatient(address wallet) public view returns (Patient memory) {\r\n        Patient memory data;\r\n        for (uint256 i = 0; i < patientCounter; i++) {\r\n            if (patients[i].wallet == wallet) {\r\n                data = patients[i];\r\n                break;\r\n            }\r\n        }\r\n        return data;\r\n    }\r\n\r\n    function getLaboratory(address wallet)\r\n        public\r\n        view\r\n        returns (Laboratory memory)\r\n    {\r\n        Laboratory memory data;\r\n        for (uint256 i = 0; i < laboratoryCounter; i++) {\r\n            if (laboratorys[i].wallet == wallet) {\r\n                data = laboratorys[i];\r\n                break;\r\n            }\r\n        }\r\n        return data;\r\n    }\r\n\r\n    function getUserType(address wallet) public view returns(string memory){\r\n        string memory result;\r\n        if(wallet == admin.wallet){\r\n            result = \"admin\";\r\n        }\r\n        for (uint256 i = 0; i < patientCounter; i++) {\r\n            if (patients[i].wallet == wallet) {\r\n                result = \"patient\";\r\n            }\r\n        }\r\n        for (uint256 j = 0; j < laboratoryCounter; j++) {\r\n            if (laboratorys[j].wallet == wallet) {\r\n                result = \"laboratory\";\r\n            }\r\n        }\r\n        return result;\r\n    }\r\n\r\n    function getLaboratorys()\r\n        public\r\n        view\r\n        onlyOwner\r\n        returns (Laboratory[] memory)\r\n    {\r\n        Laboratory[] memory list = new Laboratory[](laboratoryCounter);\r\n        for (uint256 i = 0; i < laboratoryCounter; i++) {\r\n            list[i] = laboratorys[i];\r\n        }\r\n        return list;\r\n    }\r\n\r\n    function getPatients() public view onlyOwner returns (Patient[] memory) {\r\n        Patient[] memory list = new Patient[](patientCounter);\r\n        for (uint256 i = 0; i < patientCounter; i++) {\r\n            list[i] = patients[i];\r\n        }\r\n        return list;\r\n    }\r\n}\r\n",
  "sourcePath": "D:\\Marketpalce\\contracts\\auth0.sol",
  "compiler": {
    "name": "solc",
    "version": "0.8.18+commit.87f61d96.Emscripten.clang"
  },
  "schemaVersion": "3.4.12",
  "updatedAt": "2023-05-21T16:48:07.014Z",
  "networkType": "ethereum",
  "devdoc": {
    "kind": "dev",
    "methods": {
      "owner()": {
        "details": "Returns the address of the current owner."
      },
      "renounceOwnership()": {
        "details": "Leaves the contract without owner. It will not be possible to call `onlyOwner` functions anymore. Can only be called by the current owner. NOTE: Renouncing ownership will leave the contract without an owner, thereby removing any functionality that is only available to the owner."
      },
      "transferOwnership(address)": {
        "details": "Transfers ownership of the contract to a new account (`newOwner`). Can only be called by the current owner."
      }
    },
    "version": 1
  },
  "userdoc": {
    "kind": "user",
    "methods": {},
    "version": 1
  }
}