{
  "contractName": "Composable",
  "abi": [
    {
      "inputs": [],
      "stateMutability": "nonpayable",
      "type": "constructor"
    },
    {
      "anonymous": false,
      "inputs": [
        {
          "indexed": true,
          "internalType": "address",
          "name": "account",
          "type": "address"
        },
        {
          "indexed": true,
          "internalType": "address",
          "name": "operator",
          "type": "address"
        },
        {
          "indexed": false,
          "internalType": "bool",
          "name": "approved",
          "type": "bool"
        }
      ],
      "name": "ApprovalForAll",
      "type": "event"
    },
    {
      "anonymous": false,
      "inputs": [
        {
          "indexed": true,
          "internalType": "address",
          "name": "previousOwner",
          "type": "address"
        },
        {
          "indexed": true,
          "internalType": "address",
          "name": "newOwner",
          "type": "address"
        }
      ],
      "name": "OwnershipTransferred",
      "type": "event"
    },
    {
      "anonymous": false,
      "inputs": [
        {
          "indexed": true,
          "internalType": "address",
          "name": "operator",
          "type": "address"
        },
        {
          "indexed": true,
          "internalType": "address",
          "name": "from",
          "type": "address"
        },
        {
          "indexed": true,
          "internalType": "address",
          "name": "to",
          "type": "address"
        },
        {
          "indexed": false,
          "internalType": "uint256[]",
          "name": "ids",
          "type": "uint256[]"
        },
        {
          "indexed": false,
          "internalType": "uint256[]",
          "name": "values",
          "type": "uint256[]"
        }
      ],
      "name": "TransferBatch",
      "type": "event"
    },
    {
      "anonymous": false,
      "inputs": [
        {
          "indexed": true,
          "internalType": "address",
          "name": "operator",
          "type": "address"
        },
        {
          "indexed": true,
          "internalType": "address",
          "name": "from",
          "type": "address"
        },
        {
          "indexed": true,
          "internalType": "address",
          "name": "to",
          "type": "address"
        },
        {
          "indexed": false,
          "internalType": "uint256",
          "name": "id",
          "type": "uint256"
        },
        {
          "indexed": false,
          "internalType": "uint256",
          "name": "value",
          "type": "uint256"
        }
      ],
      "name": "TransferSingle",
      "type": "event"
    },
    {
      "anonymous": false,
      "inputs": [
        {
          "indexed": false,
          "internalType": "string",
          "name": "value",
          "type": "string"
        },
        {
          "indexed": true,
          "internalType": "uint256",
          "name": "id",
          "type": "uint256"
        }
      ],
      "name": "URI",
      "type": "event"
    },
    {
      "inputs": [],
      "name": "_RequestsCounter",
      "outputs": [
        {
          "internalType": "uint256",
          "name": "",
          "type": "uint256"
        }
      ],
      "stateMutability": "view",
      "type": "function",
      "constant": true
    },
    {
      "inputs": [
        {
          "internalType": "address",
          "name": "account",
          "type": "address"
        },
        {
          "internalType": "uint256",
          "name": "id",
          "type": "uint256"
        }
      ],
      "name": "balanceOf",
      "outputs": [
        {
          "internalType": "uint256",
          "name": "",
          "type": "uint256"
        }
      ],
      "stateMutability": "view",
      "type": "function",
      "constant": true
    },
    {
      "inputs": [
        {
          "internalType": "address[]",
          "name": "accounts",
          "type": "address[]"
        },
        {
          "internalType": "uint256[]",
          "name": "ids",
          "type": "uint256[]"
        }
      ],
      "name": "balanceOfBatch",
      "outputs": [
        {
          "internalType": "uint256[]",
          "name": "",
          "type": "uint256[]"
        }
      ],
      "stateMutability": "view",
      "type": "function",
      "constant": true
    },
    {
      "inputs": [
        {
          "internalType": "address",
          "name": "account",
          "type": "address"
        },
        {
          "internalType": "address",
          "name": "operator",
          "type": "address"
        }
      ],
      "name": "isApprovedForAll",
      "outputs": [
        {
          "internalType": "bool",
          "name": "",
          "type": "bool"
        }
      ],
      "stateMutability": "view",
      "type": "function",
      "constant": true
    },
    {
      "inputs": [
        {
          "internalType": "address",
          "name": "",
          "type": "address"
        }
      ],
      "name": "labs",
      "outputs": [
        {
          "internalType": "bool",
          "name": "",
          "type": "bool"
        }
      ],
      "stateMutability": "view",
      "type": "function",
      "constant": true
    },
    {
      "inputs": [],
      "name": "owner",
      "outputs": [
        {
          "internalType": "address",
          "name": "",
          "type": "address"
        }
      ],
      "stateMutability": "view",
      "type": "function",
      "constant": true
    },
    {
      "inputs": [],
      "name": "renounceOwnership",
      "outputs": [],
      "stateMutability": "nonpayable",
      "type": "function"
    },
    {
      "inputs": [
        {
          "internalType": "uint256",
          "name": "",
          "type": "uint256"
        }
      ],
      "name": "requests",
      "outputs": [
        {
          "internalType": "string",
          "name": "collection",
          "type": "string"
        },
        {
          "internalType": "uint256",
          "name": "id",
          "type": "uint256"
        },
        {
          "internalType": "uint256",
          "name": "date",
          "type": "uint256"
        },
        {
          "internalType": "uint256",
          "name": "period",
          "type": "uint256"
        },
        {
          "internalType": "uint256",
          "name": "price",
          "type": "uint256"
        },
        {
          "internalType": "address",
          "name": "buyer",
          "type": "address"
        },
        {
          "internalType": "address",
          "name": "seller",
          "type": "address"
        },
        {
          "internalType": "bool",
          "name": "isSeenBySeller",
          "type": "bool"
        },
        {
          "internalType": "bool",
          "name": "isAcceptedBySeller",
          "type": "bool"
        },
        {
          "internalType": "bool",
          "name": "isSeenByBuyer",
          "type": "bool"
        },
        {
          "internalType": "bool",
          "name": "isPayedByBuyer",
          "type": "bool"
        }
      ],
      "stateMutability": "view",
      "type": "function",
      "constant": true
    },
    {
      "inputs": [
        {
          "internalType": "address",
          "name": "from",
          "type": "address"
        },
        {
          "internalType": "address",
          "name": "to",
          "type": "address"
        },
        {
          "internalType": "uint256[]",
          "name": "ids",
          "type": "uint256[]"
        },
        {
          "internalType": "uint256[]",
          "name": "amounts",
          "type": "uint256[]"
        },
        {
          "internalType": "bytes",
          "name": "data",
          "type": "bytes"
        }
      ],
      "name": "safeBatchTransferFrom",
      "outputs": [],
      "stateMutability": "nonpayable",
      "type": "function"
    },
    {
      "inputs": [
        {
          "internalType": "address",
          "name": "from",
          "type": "address"
        },
        {
          "internalType": "address",
          "name": "to",
          "type": "address"
        },
        {
          "internalType": "uint256",
          "name": "id",
          "type": "uint256"
        },
        {
          "internalType": "uint256",
          "name": "amount",
          "type": "uint256"
        },
        {
          "internalType": "bytes",
          "name": "data",
          "type": "bytes"
        }
      ],
      "name": "safeTransferFrom",
      "outputs": [],
      "stateMutability": "nonpayable",
      "type": "function"
    },
    {
      "inputs": [
        {
          "internalType": "address",
          "name": "operator",
          "type": "address"
        },
        {
          "internalType": "bool",
          "name": "approved",
          "type": "bool"
        }
      ],
      "name": "setApprovalForAll",
      "outputs": [],
      "stateMutability": "nonpayable",
      "type": "function"
    },
    {
      "inputs": [
        {
          "internalType": "bytes4",
          "name": "interfaceId",
          "type": "bytes4"
        }
      ],
      "name": "supportsInterface",
      "outputs": [
        {
          "internalType": "bool",
          "name": "",
          "type": "bool"
        }
      ],
      "stateMutability": "view",
      "type": "function",
      "constant": true
    },
    {
      "inputs": [
        {
          "internalType": "address",
          "name": "newOwner",
          "type": "address"
        }
      ],
      "name": "transferOwnership",
      "outputs": [],
      "stateMutability": "nonpayable",
      "type": "function"
    },
    {
      "inputs": [
        {
          "internalType": "uint256",
          "name": "",
          "type": "uint256"
        }
      ],
      "name": "uri",
      "outputs": [
        {
          "internalType": "string",
          "name": "",
          "type": "string"
        }
      ],
      "stateMutability": "view",
      "type": "function",
      "constant": true
    },
    {
      "inputs": [
        {
          "internalType": "address",
          "name": "_lab",
          "type": "address"
        }
      ],
      "name": "toggleTrue",
      "outputs": [],
      "stateMutability": "nonpayable",
      "type": "function"
    },
    {
      "inputs": [
        {
          "internalType": "address",
          "name": "_lab",
          "type": "address"
        }
      ],
      "name": "toggleFalse",
      "outputs": [],
      "stateMutability": "nonpayable",
      "type": "function"
    },
    {
      "inputs": [],
      "name": "getComposition",
      "outputs": [
        {
          "components": [
            {
              "internalType": "uint256",
              "name": "id",
              "type": "uint256"
            },
            {
              "internalType": "string",
              "name": "collection",
              "type": "string"
            },
            {
              "internalType": "address",
              "name": "owner",
              "type": "address"
            },
            {
              "internalType": "address",
              "name": "buyer",
              "type": "address"
            },
            {
              "internalType": "uint256",
              "name": "date",
              "type": "uint256"
            },
            {
              "internalType": "bool",
              "name": "deleted",
              "type": "bool"
            },
            {
              "internalType": "uint256",
              "name": "price",
              "type": "uint256"
            },
            {
              "internalType": "uint256[]",
              "name": "nfts",
              "type": "uint256[]"
            }
          ],
          "internalType": "struct Composable.ComposedToken[]",
          "name": "",
          "type": "tuple[]"
        }
      ],
      "stateMutability": "view",
      "type": "function",
      "constant": true
    },
    {
      "inputs": [],
      "name": "getlength",
      "outputs": [
        {
          "internalType": "uint256",
          "name": "",
          "type": "uint256"
        }
      ],
      "stateMutability": "view",
      "type": "function",
      "constant": true
    },
    {
      "inputs": [
        {
          "components": [
            {
              "internalType": "string",
              "name": "name",
              "type": "string"
            },
            {
              "internalType": "address",
              "name": "buyer",
              "type": "address"
            },
            {
              "internalType": "address",
              "name": "owner",
              "type": "address"
            },
            {
              "internalType": "uint256",
              "name": "price",
              "type": "uint256"
            },
            {
              "internalType": "uint256",
              "name": "period",
              "type": "uint256"
            },
            {
              "internalType": "uint256[]",
              "name": "nfts",
              "type": "uint256[]"
            }
          ],
          "internalType": "struct Composable.LabRequest[]",
          "name": "orders",
          "type": "tuple[]"
        }
      ],
      "name": "addBuyRequest",
      "outputs": [],
      "stateMutability": "nonpayable",
      "type": "function"
    },
    {
      "inputs": [
        {
          "internalType": "uint256",
          "name": "id",
          "type": "uint256"
        },
        {
          "internalType": "bool",
          "name": "accept",
          "type": "bool"
        }
      ],
      "name": "rejectAndAcceptRequest",
      "outputs": [],
      "stateMutability": "nonpayable",
      "type": "function"
    },
    {
      "inputs": [
        {
          "internalType": "uint256",
          "name": "id",
          "type": "uint256"
        }
      ],
      "name": "rejectPayment",
      "outputs": [],
      "stateMutability": "nonpayable",
      "type": "function"
    },
    {
      "inputs": [
        {
          "internalType": "uint256",
          "name": "id",
          "type": "uint256"
        }
      ],
      "name": "acceptPayment",
      "outputs": [],
      "stateMutability": "payable",
      "type": "function",
      "payable": true
    },
    {
      "inputs": [],
      "name": "getRequests",
      "outputs": [
        {
          "components": [
            {
              "internalType": "string",
              "name": "collection",
              "type": "string"
            },
            {
              "internalType": "uint256",
              "name": "id",
              "type": "uint256"
            },
            {
              "internalType": "uint256[]",
              "name": "ids",
              "type": "uint256[]"
            },
            {
              "internalType": "uint256",
              "name": "date",
              "type": "uint256"
            },
            {
              "internalType": "uint256",
              "name": "period",
              "type": "uint256"
            },
            {
              "internalType": "uint256",
              "name": "price",
              "type": "uint256"
            },
            {
              "internalType": "address",
              "name": "buyer",
              "type": "address"
            },
            {
              "internalType": "address",
              "name": "seller",
              "type": "address"
            },
            {
              "internalType": "bool",
              "name": "isSeenBySeller",
              "type": "bool"
            },
            {
              "internalType": "bool",
              "name": "isAcceptedBySeller",
              "type": "bool"
            },
            {
              "internalType": "bool",
              "name": "isSeenByBuyer",
              "type": "bool"
            },
            {
              "internalType": "bool",
              "name": "isPayedByBuyer",
              "type": "bool"
            }
          ],
          "internalType": "struct Composable.Request[]",
          "name": "",
          "type": "tuple[]"
        }
      ],
      "stateMutability": "view",
      "type": "function",
      "constant": true
    }
  ],
  "bytecode": "0x60806040523480156200001157600080fd5b506040518060200160405280600081525062000033816200005a60201b60201c565b5062000054620000486200006f60201b60201c565b6200007760201b60201c565b6200049e565b80600290816200006b9190620003b7565b5050565b600033905090565b6000600360009054906101000a900473ffffffffffffffffffffffffffffffffffffffff16905081600360006101000a81548173ffffffffffffffffffffffffffffffffffffffff021916908373ffffffffffffffffffffffffffffffffffffffff1602179055508173ffffffffffffffffffffffffffffffffffffffff168173ffffffffffffffffffffffffffffffffffffffff167f8be0079c531659141344cd1fd0a4f28419497f9722a3daafe3b4186f6b6457e060405160405180910390a35050565b600081519050919050565b7f4e487b7100000000000000000000000000000000000000000000000000000000600052604160045260246000fd5b7f4e487b7100000000000000000000000000000000000000000000000000000000600052602260045260246000fd5b60006002820490506001821680620001bf57607f821691505b602082108103620001d557620001d462000177565b5b50919050565b60008190508160005260206000209050919050565b60006020601f8301049050919050565b600082821b905092915050565b6000600883026200023f7fffffffffffffffffffffffffffffffffffffffffffffffffffffffffffffffff8262000200565b6200024b868362000200565b95508019841693508086168417925050509392505050565b6000819050919050565b6000819050919050565b600062000298620002926200028c8462000263565b6200026d565b62000263565b9050919050565b6000819050919050565b620002b48362000277565b620002cc620002c3826200029f565b8484546200020d565b825550505050565b600090565b620002e3620002d4565b620002f0818484620002a9565b505050565b5b8181101562000318576200030c600082620002d9565b600181019050620002f6565b5050565b601f82111562000367576200033181620001db565b6200033c84620001f0565b810160208510156200034c578190505b620003646200035b85620001f0565b830182620002f5565b50505b505050565b600082821c905092915050565b60006200038c600019846008026200036c565b1980831691505092915050565b6000620003a7838362000379565b9150826002028217905092915050565b620003c2826200013d565b67ffffffffffffffff811115620003de57620003dd62000148565b5b620003ea8254620001a6565b620003f78282856200031c565b600060209050601f8311600181146200042f57600084156200041a578287015190505b62000426858262000399565b86555062000496565b601f1984166200043f86620001db565b60005b82811015620004695784890151825560018201915060208501945060208101905062000442565b8683101562000489578489015162000485601f89168262000379565b8355505b6001600288020188555050505b505050505050565b61548680620004ae6000396000f3fe60806040526004361061013f5760003560e01c80638813ce12116100b6578063bc0862381161006f578063bc08623814610477578063bf846e04146104a0578063e797f97e146104bc578063e985e9c5146104e5578063f242432a14610522578063f2fde38b1461054b5761013f565b80638813ce12146103795780638d920b02146103a45780638da5cb5b146103cd5780639fb4835b146103f8578063a16d359814610423578063a22cb4651461044e5761013f565b80632eb2c2d6116101085780632eb2c2d6146102635780634c7d66d01461028c5780634e1273f4146102b55780636cf62d25146102f2578063715018a61461031b57806381d12c58146103325761013f565b8062fdd58e1461014457806301ffc9a71461018157806308d72102146101be5780630e89341c146101e9578063277d589114610226575b600080fd5b34801561015057600080fd5b5061016b600480360381019061016691906134c7565b610574565b6040516101789190613516565b60405180910390f35b34801561018d57600080fd5b506101a860048036038101906101a39190613589565b61063c565b6040516101b591906135d1565b60405180910390f35b3480156101ca57600080fd5b506101d361071e565b6040516101e091906138d1565b60405180910390f35b3480156101f557600080fd5b50610210600480360381019061020b91906138f3565b610a72565b60405161021d919061396a565b60405180910390f35b34801561023257600080fd5b5061024d6004803603810190610248919061398c565b610b06565b60405161025a91906135d1565b60405180910390f35b34801561026f57600080fd5b5061028a60048036038101906102859190613bb6565b610b26565b005b34801561029857600080fd5b506102b360048036038101906102ae919061398c565b610bc7565b005b3480156102c157600080fd5b506102dc60048036038101906102d79190613d48565b610c2a565b6040516102e99190613e2f565b60405180910390f35b3480156102fe57600080fd5b5061031960048036038101906103149190613e7d565b610d43565b005b34801561032757600080fd5b50610330610e08565b005b34801561033e57600080fd5b50610359600480360381019061035491906138f3565b610e1c565b6040516103709b9a99989796959493929190613ecc565b60405180910390f35b34801561038557600080fd5b5061038e610f72565b60405161039b919061414b565b60405180910390f35b3480156103b057600080fd5b506103cb60048036038101906103c691906138f3565b61130d565b005b3480156103d957600080fd5b506103e2611435565b6040516103ef919061416d565b60405180910390f35b34801561040457600080fd5b5061040d61145f565b60405161041a9190613516565b60405180910390f35b34801561042f57600080fd5b50610438611465565b6040516104459190613516565b60405180910390f35b34801561045a57600080fd5b5061047560048036038101906104709190614188565b611788565b005b34801561048357600080fd5b5061049e6004803603810190610499919061398c565b61179e565b005b6104ba60048036038101906104b591906138f3565b611801565b005b3480156104c857600080fd5b506104e360048036038101906104de919061442c565b611d85565b005b3480156104f157600080fd5b5061050c60048036038101906105079190614475565b61220c565b60405161051991906135d1565b60405180910390f35b34801561052e57600080fd5b50610549600480360381019061054491906144b5565b6122a0565b005b34801561055757600080fd5b50610572600480360381019061056d919061398c565b612341565b005b60008073ffffffffffffffffffffffffffffffffffffffff168373ffffffffffffffffffffffffffffffffffffffff16036105e4576040517f08c379a00000000000000000000000000000000000000000000000000000000081526004016105db906145be565b60405180910390fd5b60008083815260200190815260200160002060008473ffffffffffffffffffffffffffffffffffffffff1673ffffffffffffffffffffffffffffffffffffffff16815260200190815260200160002054905092915050565b60007fd9b67a26000000000000000000000000000000000000000000000000000000007bffffffffffffffffffffffffffffffffffffffffffffffffffffffff1916827bffffffffffffffffffffffffffffffffffffffffffffffffffffffff1916148061070757507f0e89341c000000000000000000000000000000000000000000000000000000007bffffffffffffffffffffffffffffffffffffffffffffffffffffffff1916827bffffffffffffffffffffffffffffffffffffffffffffffffffffffff1916145b806107175750610716826123c4565b5b9050919050565b60606000600960003373ffffffffffffffffffffffffffffffffffffffff1673ffffffffffffffffffffffffffffffffffffffff168152602001908152602001600020805480602002602001604051908101604052809291908181526020016000905b82821015610983578382906000526020600020906008020160405180610100016040529081600082015481526020016001820180546107bf9061460d565b80601f01602080910402602001604051908101604052809291908181526020018280546107eb9061460d565b80156108385780601f1061080d57610100808354040283529160200191610838565b820191906000526020600020905b81548152906001019060200180831161081b57829003601f168201915b505050505081526020016002820160009054906101000a900473ffffffffffffffffffffffffffffffffffffffff1673ffffffffffffffffffffffffffffffffffffffff1673ffffffffffffffffffffffffffffffffffffffff1681526020016003820160009054906101000a900473ffffffffffffffffffffffffffffffffffffffff1673ffffffffffffffffffffffffffffffffffffffff1673ffffffffffffffffffffffffffffffffffffffff168152602001600482015481526020016005820160009054906101000a900460ff16151515158152602001600682015481526020016007820180548060200260200160405190810160405280929190818152602001828054801561096b57602002820191906000526020600020905b815481526020019060010190808311610957575b50505050508152505081526020019060010190610781565b5050505090506000610993611465565b905060008167ffffffffffffffff8111156109b1576109b06139be565b5b6040519080825280602002602001820160405280156109ea57816020015b6109d76132ad565b8152602001906001900390816109cf5790505b50905060005b82811015610a6857838181518110610a0b57610a0a61463e565b5b602002602001015160a00151610a5557838181518110610a2e57610a2d61463e565b5b6020026020010151828281518110610a4957610a4861463e565b5b60200260200101819052505b8080610a609061469c565b9150506109f0565b5080935050505090565b606060028054610a819061460d565b80601f0160208091040260200160405190810160405280929190818152602001828054610aad9061460d565b8015610afa5780601f10610acf57610100808354040283529160200191610afa565b820191906000526020600020905b815481529060010190602001808311610add57829003601f168201915b50505050509050919050565b600a6020528060005260406000206000915054906101000a900460ff1681565b610b2e61242e565b73ffffffffffffffffffffffffffffffffffffffff168573ffffffffffffffffffffffffffffffffffffffff161480610b745750610b7385610b6e61242e565b61220c565b5b610bb3576040517f08c379a0000000000000000000000000000000000000000000000000000000008152600401610baa90614756565b60405180910390fd5b610bc08585858585612436565b5050505050565b610bcf612757565b6001600a60008373ffffffffffffffffffffffffffffffffffffffff1673ffffffffffffffffffffffffffffffffffffffff16815260200190815260200160002060006101000a81548160ff02191690831515021790555050565b60608151835114610c70576040517f08c379a0000000000000000000000000000000000000000000000000000000008152600401610c67906147e8565b60405180910390fd5b6000835167ffffffffffffffff811115610c8d57610c8c6139be565b5b604051908082528060200260200182016040528015610cbb5781602001602082028036833780820191505090505b50905060005b8451811015610d3857610d08858281518110610ce057610cdf61463e565b5b6020026020010151858381518110610cfb57610cfa61463e565b5b6020026020010151610574565b828281518110610d1b57610d1a61463e565b5b60200260200101818152505080610d319061469c565b9050610cc1565b508091505092915050565b6007600083815260200190815260200160002060070160149054906101000a900460ff1615610da7576040517f08c379a0000000000000000000000000000000000000000000000000000000008152600401610d9e9061487a565b60405180910390fd5b60016007600084815260200190815260200160002060070160146101000a81548160ff021916908315150217905550806007600084815260200190815260200160002060070160156101000a81548160ff0219169083151502179055505050565b610e10612757565b610e1a60006127d5565b565b6007602052806000526040600020600091509050806000018054610e3f9061460d565b80601f0160208091040260200160405190810160405280929190818152602001828054610e6b9061460d565b8015610eb85780601f10610e8d57610100808354040283529160200191610eb8565b820191906000526020600020905b815481529060010190602001808311610e9b57829003601f168201915b5050505050908060010154908060030154908060040154908060050154908060060160009054906101000a900473ffffffffffffffffffffffffffffffffffffffff16908060070160009054906101000a900473ffffffffffffffffffffffffffffffffffffffff16908060070160149054906101000a900460ff16908060070160159054906101000a900460ff16908060070160169054906101000a900460ff16908060070160179054906101000a900460ff1690508b565b60606000600860003373ffffffffffffffffffffffffffffffffffffffff1673ffffffffffffffffffffffffffffffffffffffff168152602001908152602001600020805480602002602001604051908101604052809291908181526020018280548015610fff57602002820191906000526020600020905b815481526020019060010190808311610feb575b5050505050905060008151905060008167ffffffffffffffff811115611028576110276139be565b5b60405190808252806020026020018201604052801561106157816020015b61104e613320565b8152602001906001900390816110465790505b50905060005b8281101561130357600760008583815181106110865761108561463e565b5b60200260200101518152602001908152602001600020604051806101800160405290816000820180546110b89061460d565b80601f01602080910402602001604051908101604052809291908181526020018280546110e49061460d565b80156111315780601f1061110657610100808354040283529160200191611131565b820191906000526020600020905b81548152906001019060200180831161111457829003601f168201915b50505050508152602001600182015481526020016002820180548060200260200160405190810160405280929190818152602001828054801561119357602002820191906000526020600020905b81548152602001906001019080831161117f575b505050505081526020016003820154815260200160048201548152602001600582015481526020016006820160009054906101000a900473ffffffffffffffffffffffffffffffffffffffff1673ffffffffffffffffffffffffffffffffffffffff1673ffffffffffffffffffffffffffffffffffffffff1681526020016007820160009054906101000a900473ffffffffffffffffffffffffffffffffffffffff1673ffffffffffffffffffffffffffffffffffffffff1673ffffffffffffffffffffffffffffffffffffffff1681526020016007820160149054906101000a900460ff161515151581526020016007820160159054906101000a900460ff161515151581526020016007820160169054906101000a900460ff161515151581526020016007820160179054906101000a900460ff1615151515815250508282815181106112e5576112e461463e565b5b602002602001018190525080806112fb9061469c565b915050611067565b5080935050505090565b6007600082815260200190815260200160002060070160169054906101000a900460ff1615611371576040517f08c379a00000000000000000000000000000000000000000000000000000000081526004016113689061487a565b60405180910390fd5b6007600082815260200190815260200160002060070160159054906101000a900460ff166113d4576040517f08c379a00000000000000000000000000000000000000000000000000000000081526004016113cb9061490c565b60405180910390fd5b60016007600083815260200190815260200160002060070160166101000a81548160ff02191690831515021790555060006007600083815260200190815260200160002060070160176101000a81548160ff02191690831515021790555050565b6000600360009054906101000a900473ffffffffffffffffffffffffffffffffffffffff16905090565b60065481565b600080600090506000600960003373ffffffffffffffffffffffffffffffffffffffff1673ffffffffffffffffffffffffffffffffffffffff168152602001908152602001600020805480602002602001604051908101604052809291908181526020016000905b828210156116cf5783829060005260206000209060080201604051806101000160405290816000820154815260200160018201805461150b9061460d565b80601f01602080910402602001604051908101604052809291908181526020018280546115379061460d565b80156115845780601f1061155957610100808354040283529160200191611584565b820191906000526020600020905b81548152906001019060200180831161156757829003601f168201915b505050505081526020016002820160009054906101000a900473ffffffffffffffffffffffffffffffffffffffff1673ffffffffffffffffffffffffffffffffffffffff1673ffffffffffffffffffffffffffffffffffffffff1681526020016003820160009054906101000a900473ffffffffffffffffffffffffffffffffffffffff1673ffffffffffffffffffffffffffffffffffffffff1673ffffffffffffffffffffffffffffffffffffffff168152602001600482015481526020016005820160009054906101000a900460ff1615151515815260200160068201548152602001600782018054806020026020016040519081016040528092919081815260200182805480156116b757602002820191906000526020600020905b8154815260200190600101908083116116a3575b505050505081525050815260200190600101906114cd565b50505050905060005b815181101561177f578181815181106116f4576116f361463e565b5b602002602001015160a001518061172857508181815181106117195761171861463e565b5b60200260200101516080015142115b1561175d5760008282815181106117425761174161463e565b5b602002602001015160a001901515908115158152505061176c565b82806117689061469c565b9350505b80806117779061469c565b9150506116d8565b50819250505090565b61179a61179361242e565b838361289b565b5050565b6117a6612757565b6000600a60008373ffffffffffffffffffffffffffffffffffffffff1673ffffffffffffffffffffffffffffffffffffffff16815260200190815260200160002060006101000a81548160ff02191690831515021790555050565b6007600082815260200190815260200160002060070160169054906101000a900460ff1615611865576040517f08c379a000000000000000000000000000000000000000000000000000000000815260040161185c9061487a565b60405180910390fd5b6007600082815260200190815260200160002060070160159054906101000a900460ff166118c8576040517f08c379a00000000000000000000000000000000000000000000000000000000081526004016118bf9061499e565b60405180910390fd5b60016007600083815260200190815260200160002060070160166101000a81548160ff02191690831515021790555060016007600083815260200190815260200160002060070160176101000a81548160ff0219169083151502179055506000604051806101000160405280600760008581526020019081526020016000206001015481526020016007600085815260200190815260200160002060000180546119719061460d565b80601f016020809104026020016040519081016040528092919081815260200182805461199d9061460d565b80156119ea5780601f106119bf576101008083540402835291602001916119ea565b820191906000526020600020905b8154815290600101906020018083116119cd57829003601f168201915b505050505081526020016007600085815260200190815260200160002060070160009054906101000a900473ffffffffffffffffffffffffffffffffffffffff1673ffffffffffffffffffffffffffffffffffffffff1681526020016007600085815260200190815260200160002060060160009054906101000a900473ffffffffffffffffffffffffffffffffffffffff1673ffffffffffffffffffffffffffffffffffffffff168152602001600760008581526020019081526020016000206004015442611aba91906149be565b81526020016000151581526020016007600085815260200190815260200160002060050154815260200160076000858152602001908152602001600020600201805480602002602001604051908101604052809291908181526020018280548015611b4457602002820191906000526020600020905b815481526020019060010190808311611b30575b50505050508152509050600960003373ffffffffffffffffffffffffffffffffffffffff1673ffffffffffffffffffffffffffffffffffffffff168152602001908152602001600020819080600181540180825580915050600190039060005260206000209060080201600090919091909150600082015181600001556020820151816001019081611bd69190614b9e565b5060408201518160020160006101000a81548173ffffffffffffffffffffffffffffffffffffffff021916908373ffffffffffffffffffffffffffffffffffffffff16021790555060608201518160030160006101000a81548173ffffffffffffffffffffffffffffffffffffffff021916908373ffffffffffffffffffffffffffffffffffffffff1602179055506080820151816004015560a08201518160050160006101000a81548160ff02191690831515021790555060c0820151816006015560e0820151816007019080519060200190611cb59291906133b5565b5050506007600083815260200190815260200160002060070160009054906101000a900473ffffffffffffffffffffffffffffffffffffffff1673ffffffffffffffffffffffffffffffffffffffff166108fc60076000858152602001908152602001600020600501549081150290604051600060405180830381858888f19350505050158015611d4a573d6000803e3d6000fd5b50611d6933600454600160405180602001604052806000815250612a07565b60046000815480929190611d7c9061469c565b91905055505050565b60011515600a60003373ffffffffffffffffffffffffffffffffffffffff1673ffffffffffffffffffffffffffffffffffffffff16815260200190815260200160002060009054906101000a900460ff16151503611e18576040517f08c379a0000000000000000000000000000000000000000000000000000000008152600401611e0f90614cbc565b60405180910390fd5b60005b8151811015612208576000604051806101800160405280848481518110611e4557611e4461463e565b5b60200260200101516000015181526020016006548152602001848481518110611e7157611e7061463e565b5b602002602001015160a001518152602001428152602001848481518110611e9b57611e9a61463e565b5b6020026020010151608001518152602001848481518110611ebf57611ebe61463e565b5b6020026020010151606001518152602001848481518110611ee357611ee261463e565b5b60200260200101516020015173ffffffffffffffffffffffffffffffffffffffff168152602001848481518110611f1d57611f1c61463e565b5b60200260200101516040015173ffffffffffffffffffffffffffffffffffffffff168152602001600015158152602001600015158152602001600015158152602001600015158152509050806007600060065481526020019081526020016000206000820151816000019081611f939190614b9e565b50602082015181600101556040820151816002019080519060200190611fba9291906133b5565b50606082015181600301556080820151816004015560a0820151816005015560c08201518160060160006101000a81548173ffffffffffffffffffffffffffffffffffffffff021916908373ffffffffffffffffffffffffffffffffffffffff16021790555060e08201518160070160006101000a81548173ffffffffffffffffffffffffffffffffffffffff021916908373ffffffffffffffffffffffffffffffffffffffff1602179055506101008201518160070160146101000a81548160ff0219169083151502179055506101208201518160070160156101000a81548160ff0219169083151502179055506101408201518160070160166101000a81548160ff0219169083151502179055506101608201518160070160176101000a81548160ff021916908315150217905550905050600860003373ffffffffffffffffffffffffffffffffffffffff1673ffffffffffffffffffffffffffffffffffffffff16815260200190815260200160002060065490806001815401808255809150506001900390600052602060002001600090919091909150556008600084848151811061216d5761216c61463e565b5b60200260200101516040015173ffffffffffffffffffffffffffffffffffffffff1673ffffffffffffffffffffffffffffffffffffffff1681526020019081526020016000206006549080600181540180825580915050600190039060005260206000200160009091909190915055600660008154809291906121ef9061469c565b91905055505080806122009061469c565b915050611e1b565b5050565b6000600160008473ffffffffffffffffffffffffffffffffffffffff1673ffffffffffffffffffffffffffffffffffffffff16815260200190815260200160002060008373ffffffffffffffffffffffffffffffffffffffff1673ffffffffffffffffffffffffffffffffffffffff16815260200190815260200160002060009054906101000a900460ff16905092915050565b6122a861242e565b73ffffffffffffffffffffffffffffffffffffffff168573ffffffffffffffffffffffffffffffffffffffff1614806122ee57506122ed856122e861242e565b61220c565b5b61232d576040517f08c379a000000000000000000000000000000000000000000000000000000000815260040161232490614756565b60405180910390fd5b61233a8585858585612bb7565b5050505050565b612349612757565b600073ffffffffffffffffffffffffffffffffffffffff168173ffffffffffffffffffffffffffffffffffffffff16036123b8576040517f08c379a00000000000000000000000000000000000000000000000000000000081526004016123af90614d4e565b60405180910390fd5b6123c1816127d5565b50565b60007f01ffc9a7000000000000000000000000000000000000000000000000000000007bffffffffffffffffffffffffffffffffffffffffffffffffffffffff1916827bffffffffffffffffffffffffffffffffffffffffffffffffffffffff1916149050919050565b600033905090565b815183511461247a576040517f08c379a000000000000000000000000000000000000000000000000000000000815260040161247190614de0565b60405180910390fd5b600073ffffffffffffffffffffffffffffffffffffffff168473ffffffffffffffffffffffffffffffffffffffff16036124e9576040517f08c379a00000000000000000000000000000000000000000000000000000000081526004016124e090614e72565b60405180910390fd5b60006124f361242e565b9050612503818787878787612e52565b60005b84518110156126b45760008582815181106125245761252361463e565b5b6020026020010151905060008583815181106125435761254261463e565b5b60200260200101519050600080600084815260200190815260200160002060008b73ffffffffffffffffffffffffffffffffffffffff1673ffffffffffffffffffffffffffffffffffffffff168152602001908152602001600020549050818110156125e4576040517f08c379a00000000000000000000000000000000000000000000000000000000081526004016125db90614f04565b60405180910390fd5b81810360008085815260200190815260200160002060008c73ffffffffffffffffffffffffffffffffffffffff1673ffffffffffffffffffffffffffffffffffffffff168152602001908152602001600020819055508160008085815260200190815260200160002060008b73ffffffffffffffffffffffffffffffffffffffff1673ffffffffffffffffffffffffffffffffffffffff168152602001908152602001600020600082825461269991906149be565b92505081905550505050806126ad9061469c565b9050612506565b508473ffffffffffffffffffffffffffffffffffffffff168673ffffffffffffffffffffffffffffffffffffffff168273ffffffffffffffffffffffffffffffffffffffff167f4a39dc06d4c0dbc64b70af90fd698a233a518aa5d07e595d983b8c0526c8f7fb878760405161272b929190614f24565b60405180910390a4612741818787878787612e5a565b61274f818787878787612e62565b505050505050565b61275f61242e565b73ffffffffffffffffffffffffffffffffffffffff1661277d611435565b73ffffffffffffffffffffffffffffffffffffffff16146127d3576040517f08c379a00000000000000000000000000000000000000000000000000000000081526004016127ca90614fa7565b60405180910390fd5b565b6000600360009054906101000a900473ffffffffffffffffffffffffffffffffffffffff16905081600360006101000a81548173ffffffffffffffffffffffffffffffffffffffff021916908373ffffffffffffffffffffffffffffffffffffffff1602179055508173ffffffffffffffffffffffffffffffffffffffff168173ffffffffffffffffffffffffffffffffffffffff167f8be0079c531659141344cd1fd0a4f28419497f9722a3daafe3b4186f6b6457e060405160405180910390a35050565b8173ffffffffffffffffffffffffffffffffffffffff168373ffffffffffffffffffffffffffffffffffffffff1603612909576040517f08c379a000000000000000000000000000000000000000000000000000000000815260040161290090615039565b60405180910390fd5b80600160008573ffffffffffffffffffffffffffffffffffffffff1673ffffffffffffffffffffffffffffffffffffffff16815260200190815260200160002060008473ffffffffffffffffffffffffffffffffffffffff1673ffffffffffffffffffffffffffffffffffffffff16815260200190815260200160002060006101000a81548160ff0219169083151502179055508173ffffffffffffffffffffffffffffffffffffffff168373ffffffffffffffffffffffffffffffffffffffff167f17307eab39ab6107e8899845ad3d59bd9653f200f220920489ca2b5937696c31836040516129fa91906135d1565b60405180910390a3505050565b600073ffffffffffffffffffffffffffffffffffffffff168473ffffffffffffffffffffffffffffffffffffffff1603612a76576040517f08c379a0000000000000000000000000000000000000000000000000000000008152600401612a6d906150cb565b60405180910390fd5b6000612a8061242e565b90506000612a8d85613039565b90506000612a9a85613039565b9050612aab83600089858589612e52565b8460008088815260200190815260200160002060008973ffffffffffffffffffffffffffffffffffffffff1673ffffffffffffffffffffffffffffffffffffffff1681526020019081526020016000206000828254612b0a91906149be565b925050819055508673ffffffffffffffffffffffffffffffffffffffff16600073ffffffffffffffffffffffffffffffffffffffff168473ffffffffffffffffffffffffffffffffffffffff167fc3d58168c5ae7397731d063d5bbf3d657854427343f4c083240f7aacaa2d0f628989604051612b889291906150eb565b60405180910390a4612b9f83600089858589612e5a565b612bae836000898989896130b3565b50505050505050565b600073ffffffffffffffffffffffffffffffffffffffff168473ffffffffffffffffffffffffffffffffffffffff1603612c26576040517f08c379a0000000000000000000000000000000000000000000000000000000008152600401612c1d90614e72565b60405180910390fd5b6000612c3061242e565b90506000612c3d85613039565b90506000612c4a85613039565b9050612c5a838989858589612e52565b600080600088815260200190815260200160002060008a73ffffffffffffffffffffffffffffffffffffffff1673ffffffffffffffffffffffffffffffffffffffff16815260200190815260200160002054905085811015612cf1576040517f08c379a0000000000000000000000000000000000000000000000000000000008152600401612ce890614f04565b60405180910390fd5b85810360008089815260200190815260200160002060008b73ffffffffffffffffffffffffffffffffffffffff1673ffffffffffffffffffffffffffffffffffffffff168152602001908152602001600020819055508560008089815260200190815260200160002060008a73ffffffffffffffffffffffffffffffffffffffff1673ffffffffffffffffffffffffffffffffffffffff1681526020019081526020016000206000828254612da691906149be565b925050819055508773ffffffffffffffffffffffffffffffffffffffff168973ffffffffffffffffffffffffffffffffffffffff168573ffffffffffffffffffffffffffffffffffffffff167fc3d58168c5ae7397731d063d5bbf3d657854427343f4c083240f7aacaa2d0f628a8a604051612e239291906150eb565b60405180910390a4612e39848a8a86868a612e5a565b612e47848a8a8a8a8a6130b3565b505050505050505050565b505050505050565b505050505050565b612e818473ffffffffffffffffffffffffffffffffffffffff1661328a565b15613031578373ffffffffffffffffffffffffffffffffffffffff1663bc197c8187878686866040518663ffffffff1660e01b8152600401612ec7959493929190615169565b6020604051808303816000875af1925050508015612f0357506040513d601f19601f82011682018060405250810190612f0091906151e6565b60015b612fa857612f0f615220565b806308c379a003612f6b5750612f23615242565b80612f2e5750612f6d565b806040517f08c379a0000000000000000000000000000000000000000000000000000000008152600401612f62919061396a565b60405180910390fd5b505b6040517f08c379a0000000000000000000000000000000000000000000000000000000008152600401612f9f90615344565b60405180910390fd5b63bc197c8160e01b7bffffffffffffffffffffffffffffffffffffffffffffffffffffffff1916817bffffffffffffffffffffffffffffffffffffffffffffffffffffffff19161461302f576040517f08c379a0000000000000000000000000000000000000000000000000000000008152600401613026906153d6565b60405180910390fd5b505b505050505050565b60606000600167ffffffffffffffff811115613058576130576139be565b5b6040519080825280602002602001820160405280156130865781602001602082028036833780820191505090505b509050828160008151811061309e5761309d61463e565b5b60200260200101818152505080915050919050565b6130d28473ffffffffffffffffffffffffffffffffffffffff1661328a565b15613282578373ffffffffffffffffffffffffffffffffffffffff1663f23a6e6187878686866040518663ffffffff1660e01b81526004016131189594939291906153f6565b6020604051808303816000875af192505050801561315457506040513d601f19601f8201168201806040525081019061315191906151e6565b60015b6131f957613160615220565b806308c379a0036131bc5750613174615242565b8061317f57506131be565b806040517f08c379a00000000000000000000000000000000000000000000000000000000081526004016131b3919061396a565b60405180910390fd5b505b6040517f08c379a00000000000000000000000000000000000000000000000000000000081526004016131f090615344565b60405180910390fd5b63f23a6e6160e01b7bffffffffffffffffffffffffffffffffffffffffffffffffffffffff1916817bffffffffffffffffffffffffffffffffffffffffffffffffffffffff191614613280576040517f08c379a0000000000000000000000000000000000000000000000000000000008152600401613277906153d6565b60405180910390fd5b505b505050505050565b6000808273ffffffffffffffffffffffffffffffffffffffff163b119050919050565b6040518061010001604052806000815260200160608152602001600073ffffffffffffffffffffffffffffffffffffffff168152602001600073ffffffffffffffffffffffffffffffffffffffff1681526020016000815260200160001515815260200160008152602001606081525090565b604051806101800160405280606081526020016000815260200160608152602001600081526020016000815260200160008152602001600073ffffffffffffffffffffffffffffffffffffffff168152602001600073ffffffffffffffffffffffffffffffffffffffff1681526020016000151581526020016000151581526020016000151581526020016000151581525090565b8280548282559060005260206000209081019282156133f1579160200282015b828111156133f05782518255916020019190600101906133d5565b5b5090506133fe9190613402565b5090565b5b8082111561341b576000816000905550600101613403565b5090565b6000604051905090565b600080fd5b600080fd5b600073ffffffffffffffffffffffffffffffffffffffff82169050919050565b600061345e82613433565b9050919050565b61346e81613453565b811461347957600080fd5b50565b60008135905061348b81613465565b92915050565b6000819050919050565b6134a481613491565b81146134af57600080fd5b50565b6000813590506134c18161349b565b92915050565b600080604083850312156134de576134dd613429565b5b60006134ec8582860161347c565b92505060206134fd858286016134b2565b9150509250929050565b61351081613491565b82525050565b600060208201905061352b6000830184613507565b92915050565b60007fffffffff0000000000000000000000000000000000000000000000000000000082169050919050565b61356681613531565b811461357157600080fd5b50565b6000813590506135838161355d565b92915050565b60006020828403121561359f5761359e613429565b5b60006135ad84828501613574565b91505092915050565b60008115159050919050565b6135cb816135b6565b82525050565b60006020820190506135e660008301846135c2565b92915050565b600081519050919050565b600082825260208201905092915050565b6000819050602082019050919050565b61362181613491565b82525050565b600081519050919050565b600082825260208201905092915050565b60005b83811015613661578082015181840152602081019050613646565b60008484015250505050565b6000601f19601f8301169050919050565b600061368982613627565b6136938185613632565b93506136a3818560208601613643565b6136ac8161366d565b840191505092915050565b6136c081613453565b82525050565b6136cf816135b6565b82525050565b600081519050919050565b600082825260208201905092915050565b6000819050602082019050919050565b600061370d8383613618565b60208301905092915050565b6000602082019050919050565b6000613731826136d5565b61373b81856136e0565b9350613746836136f1565b8060005b8381101561377757815161375e8882613701565b975061376983613719565b92505060018101905061374a565b5085935050505092915050565b60006101008301600083015161379d6000860182613618565b50602083015184820360208601526137b5828261367e565b91505060408301516137ca60408601826136b7565b5060608301516137dd60608601826136b7565b5060808301516137f06080860182613618565b5060a083015161380360a08601826136c6565b5060c083015161381660c0860182613618565b5060e083015184820360e086015261382e8282613726565b9150508091505092915050565b60006138478383613784565b905092915050565b6000602082019050919050565b6000613867826135ec565b61387181856135f7565b93508360208202850161388385613608565b8060005b858110156138bf57848403895281516138a0858261383b565b94506138ab8361384f565b925060208a01995050600181019050613887565b50829750879550505050505092915050565b600060208201905081810360008301526138eb818461385c565b905092915050565b60006020828403121561390957613908613429565b5b6000613917848285016134b2565b91505092915050565b600082825260208201905092915050565b600061393c82613627565b6139468185613920565b9350613956818560208601613643565b61395f8161366d565b840191505092915050565b600060208201905081810360008301526139848184613931565b905092915050565b6000602082840312156139a2576139a1613429565b5b60006139b08482850161347c565b91505092915050565b600080fd5b7f4e487b7100000000000000000000000000000000000000000000000000000000600052604160045260246000fd5b6139f68261366d565b810181811067ffffffffffffffff82111715613a1557613a146139be565b5b80604052505050565b6000613a2861341f565b9050613a3482826139ed565b919050565b600067ffffffffffffffff821115613a5457613a536139be565b5b602082029050602081019050919050565b600080fd5b6000613a7d613a7884613a39565b613a1e565b90508083825260208201905060208402830185811115613aa057613a9f613a65565b5b835b81811015613ac95780613ab588826134b2565b845260208401935050602081019050613aa2565b5050509392505050565b600082601f830112613ae857613ae76139b9565b5b8135613af8848260208601613a6a565b91505092915050565b600080fd5b600067ffffffffffffffff821115613b2157613b206139be565b5b613b2a8261366d565b9050602081019050919050565b82818337600083830152505050565b6000613b59613b5484613b06565b613a1e565b905082815260208101848484011115613b7557613b74613b01565b5b613b80848285613b37565b509392505050565b600082601f830112613b9d57613b9c6139b9565b5b8135613bad848260208601613b46565b91505092915050565b600080600080600060a08688031215613bd257613bd1613429565b5b6000613be08882890161347c565b9550506020613bf18882890161347c565b945050604086013567ffffffffffffffff811115613c1257613c1161342e565b5b613c1e88828901613ad3565b935050606086013567ffffffffffffffff811115613c3f57613c3e61342e565b5b613c4b88828901613ad3565b925050608086013567ffffffffffffffff811115613c6c57613c6b61342e565b5b613c7888828901613b88565b9150509295509295909350565b600067ffffffffffffffff821115613ca057613c9f6139be565b5b602082029050602081019050919050565b6000613cc4613cbf84613c85565b613a1e565b90508083825260208201905060208402830185811115613ce757613ce6613a65565b5b835b81811015613d105780613cfc888261347c565b845260208401935050602081019050613ce9565b5050509392505050565b600082601f830112613d2f57613d2e6139b9565b5b8135613d3f848260208601613cb1565b91505092915050565b60008060408385031215613d5f57613d5e613429565b5b600083013567ffffffffffffffff811115613d7d57613d7c61342e565b5b613d8985828601613d1a565b925050602083013567ffffffffffffffff811115613daa57613da961342e565b5b613db685828601613ad3565b9150509250929050565b600082825260208201905092915050565b6000613ddc826136d5565b613de68185613dc0565b9350613df1836136f1565b8060005b83811015613e22578151613e098882613701565b9750613e1483613719565b925050600181019050613df5565b5085935050505092915050565b60006020820190508181036000830152613e498184613dd1565b905092915050565b613e5a816135b6565b8114613e6557600080fd5b50565b600081359050613e7781613e51565b92915050565b60008060408385031215613e9457613e93613429565b5b6000613ea2858286016134b2565b9250506020613eb385828601613e68565b9150509250929050565b613ec681613453565b82525050565b6000610160820190508181036000830152613ee7818e613931565b9050613ef6602083018d613507565b613f03604083018c613507565b613f10606083018b613507565b613f1d608083018a613507565b613f2a60a0830189613ebd565b613f3760c0830188613ebd565b613f4460e08301876135c2565b613f526101008301866135c2565b613f606101208301856135c2565b613f6e6101408301846135c2565b9c9b505050505050505050505050565b600081519050919050565b600082825260208201905092915050565b6000819050602082019050919050565b6000610180830160008301518482036000860152613fc8828261367e565b9150506020830151613fdd6020860182613618565b5060408301518482036040860152613ff58282613726565b915050606083015161400a6060860182613618565b50608083015161401d6080860182613618565b5060a083015161403060a0860182613618565b5060c083015161404360c08601826136b7565b5060e083015161405660e08601826136b7565b5061010083015161406b6101008601826136c6565b506101208301516140806101208601826136c6565b506101408301516140956101408601826136c6565b506101608301516140aa6101608601826136c6565b508091505092915050565b60006140c18383613faa565b905092915050565b6000602082019050919050565b60006140e182613f7e565b6140eb8185613f89565b9350836020820285016140fd85613f9a565b8060005b85811015614139578484038952815161411a85826140b5565b9450614125836140c9565b925060208a01995050600181019050614101565b50829750879550505050505092915050565b6000602082019050818103600083015261416581846140d6565b905092915050565b60006020820190506141826000830184613ebd565b92915050565b6000806040838503121561419f5761419e613429565b5b60006141ad8582860161347c565b92505060206141be85828601613e68565b9150509250929050565b600067ffffffffffffffff8211156141e3576141e26139be565b5b602082029050602081019050919050565b600080fd5b600080fd5b600067ffffffffffffffff821115614219576142186139be565b5b6142228261366d565b9050602081019050919050565b600061424261423d846141fe565b613a1e565b90508281526020810184848401111561425e5761425d613b01565b5b614269848285613b37565b509392505050565b600082601f830112614286576142856139b9565b5b813561429684826020860161422f565b91505092915050565b600060c082840312156142b5576142b46141f4565b5b6142bf60c0613a1e565b9050600082013567ffffffffffffffff8111156142df576142de6141f9565b5b6142eb84828501614271565b60008301525060206142ff8482850161347c565b60208301525060406143138482850161347c565b6040830152506060614327848285016134b2565b606083015250608061433b848285016134b2565b60808301525060a082013567ffffffffffffffff81111561435f5761435e6141f9565b5b61436b84828501613ad3565b60a08301525092915050565b600061438a614385846141c8565b613a1e565b905080838252602082019050602084028301858111156143ad576143ac613a65565b5b835b818110156143f457803567ffffffffffffffff8111156143d2576143d16139b9565b5b8086016143df898261429f565b855260208501945050506020810190506143af565b5050509392505050565b600082601f830112614413576144126139b9565b5b8135614423848260208601614377565b91505092915050565b60006020828403121561444257614441613429565b5b600082013567ffffffffffffffff8111156144605761445f61342e565b5b61446c848285016143fe565b91505092915050565b6000806040838503121561448c5761448b613429565b5b600061449a8582860161347c565b92505060206144ab8582860161347c565b9150509250929050565b600080600080600060a086880312156144d1576144d0613429565b5b60006144df8882890161347c565b95505060206144f08882890161347c565b9450506040614501888289016134b2565b9350506060614512888289016134b2565b925050608086013567ffffffffffffffff8111156145335761453261342e565b5b61453f88828901613b88565b9150509295509295909350565b7f455243313135353a2061646472657373207a65726f206973206e6f742061207660008201527f616c6964206f776e657200000000000000000000000000000000000000000000602082015250565b60006145a8602a83613920565b91506145b38261454c565b604082019050919050565b600060208201905081810360008301526145d78161459b565b9050919050565b7f4e487b7100000000000000000000000000000000000000000000000000000000600052602260045260246000fd5b6000600282049050600182168061462557607f821691505b602082108103614638576146376145de565b5b50919050565b7f4e487b7100000000000000000000000000000000000000000000000000000000600052603260045260246000fd5b7f4e487b7100000000000000000000000000000000000000000000000000000000600052601160045260246000fd5b60006146a782613491565b91507fffffffffffffffffffffffffffffffffffffffffffffffffffffffffffffffff82036146d9576146d861466d565b5b600182019050919050565b7f455243313135353a2063616c6c6572206973206e6f7420746f6b656e206f776e60008201527f6572206f7220617070726f766564000000000000000000000000000000000000602082015250565b6000614740602e83613920565b915061474b826146e4565b604082019050919050565b6000602082019050818103600083015261476f81614733565b9050919050565b7f455243313135353a206163636f756e747320616e6420696473206c656e67746860008201527f206d69736d617463680000000000000000000000000000000000000000000000602082015250565b60006147d2602983613920565b91506147dd82614776565b604082019050919050565b60006020820190508181036000830152614801816147c5565b9050919050565b7f596f752063616e277420616c6c7265616479207365656e20746869732072657160008201527f756573742e000000000000000000000000000000000000000000000000000000602082015250565b6000614864602583613920565b915061486f82614808565b604082019050919050565b6000602082019050818103600083015261489381614857565b9050919050565b7f596f752063616e27742072656a656374206e6f6e20616363657074656420726560008201527f7175657374000000000000000000000000000000000000000000000000000000602082015250565b60006148f6602583613920565b91506149018261489a565b604082019050919050565b60006020820190508181036000830152614925816148e9565b9050919050565b7f596f752063616e27742070617920666f72206e6f6e206163636570746564207260008201527f6571756573740000000000000000000000000000000000000000000000000000602082015250565b6000614988602683613920565b91506149938261492c565b604082019050919050565b600060208201905081810360008301526149b78161497b565b9050919050565b60006149c982613491565b91506149d483613491565b92508282019050808211156149ec576149eb61466d565b5b92915050565b60008190508160005260206000209050919050565b60006020601f8301049050919050565b600082821b905092915050565b600060088302614a547fffffffffffffffffffffffffffffffffffffffffffffffffffffffffffffffff82614a17565b614a5e8683614a17565b95508019841693508086168417925050509392505050565b6000819050919050565b6000614a9b614a96614a9184613491565b614a76565b613491565b9050919050565b6000819050919050565b614ab583614a80565b614ac9614ac182614aa2565b848454614a24565b825550505050565b600090565b614ade614ad1565b614ae9818484614aac565b505050565b5b81811015614b0d57614b02600082614ad6565b600181019050614aef565b5050565b601f821115614b5257614b23816149f2565b614b2c84614a07565b81016020851015614b3b578190505b614b4f614b4785614a07565b830182614aee565b50505b505050565b600082821c905092915050565b6000614b7560001984600802614b57565b1980831691505092915050565b6000614b8e8383614b64565b9150826002028217905092915050565b614ba782613627565b67ffffffffffffffff811115614bc057614bbf6139be565b5b614bca825461460d565b614bd5828285614b11565b600060209050601f831160018114614c085760008415614bf6578287015190505b614c008582614b82565b865550614c68565b601f198416614c16866149f2565b60005b82811015614c3e57848901518255600182019150602085019450602081019050614c19565b86831015614c5b5784890151614c57601f891682614b64565b8355505b6001600288020188555050505b505050505050565b7f596f752061726520626c6f636b656420666f726d20627579696e67206e667473600082015250565b6000614ca6602083613920565b9150614cb182614c70565b602082019050919050565b60006020820190508181036000830152614cd581614c99565b9050919050565b7f4f776e61626c653a206e6577206f776e657220697320746865207a65726f206160008201527f6464726573730000000000000000000000000000000000000000000000000000602082015250565b6000614d38602683613920565b9150614d4382614cdc565b604082019050919050565b60006020820190508181036000830152614d6781614d2b565b9050919050565b7f455243313135353a2069647320616e6420616d6f756e7473206c656e6774682060008201527f6d69736d61746368000000000000000000000000000000000000000000000000602082015250565b6000614dca602883613920565b9150614dd582614d6e565b604082019050919050565b60006020820190508181036000830152614df981614dbd565b9050919050565b7f455243313135353a207472616e7366657220746f20746865207a65726f20616460008201527f6472657373000000000000000000000000000000000000000000000000000000602082015250565b6000614e5c602583613920565b9150614e6782614e00565b604082019050919050565b60006020820190508181036000830152614e8b81614e4f565b9050919050565b7f455243313135353a20696e73756666696369656e742062616c616e636520666f60008201527f72207472616e7366657200000000000000000000000000000000000000000000602082015250565b6000614eee602a83613920565b9150614ef982614e92565b604082019050919050565b60006020820190508181036000830152614f1d81614ee1565b9050919050565b60006040820190508181036000830152614f3e8185613dd1565b90508181036020830152614f528184613dd1565b90509392505050565b7f4f776e61626c653a2063616c6c6572206973206e6f7420746865206f776e6572600082015250565b6000614f91602083613920565b9150614f9c82614f5b565b602082019050919050565b60006020820190508181036000830152614fc081614f84565b9050919050565b7f455243313135353a2073657474696e6720617070726f76616c2073746174757360008201527f20666f722073656c660000000000000000000000000000000000000000000000602082015250565b6000615023602983613920565b915061502e82614fc7565b604082019050919050565b6000602082019050818103600083015261505281615016565b9050919050565b7f455243313135353a206d696e7420746f20746865207a65726f2061646472657360008201527f7300000000000000000000000000000000000000000000000000000000000000602082015250565b60006150b5602183613920565b91506150c082615059565b604082019050919050565b600060208201905081810360008301526150e4816150a8565b9050919050565b60006040820190506151006000830185613507565b61510d6020830184613507565b9392505050565b600081519050919050565b600082825260208201905092915050565b600061513b82615114565b615145818561511f565b9350615155818560208601613643565b61515e8161366d565b840191505092915050565b600060a08201905061517e6000830188613ebd565b61518b6020830187613ebd565b818103604083015261519d8186613dd1565b905081810360608301526151b18185613dd1565b905081810360808301526151c58184615130565b90509695505050505050565b6000815190506151e08161355d565b92915050565b6000602082840312156151fc576151fb613429565b5b600061520a848285016151d1565b91505092915050565b60008160e01c9050919050565b600060033d111561523f5760046000803e61523c600051615213565b90505b90565b600060443d106152cf5761525461341f565b60043d036004823e80513d602482011167ffffffffffffffff8211171561527c5750506152cf565b808201805167ffffffffffffffff81111561529a57505050506152cf565b80602083010160043d0385018111156152b75750505050506152cf565b6152c6826020018501866139ed565b82955050505050505b90565b7f455243313135353a207472616e7366657220746f206e6f6e2d4552433131353560008201527f526563656976657220696d706c656d656e746572000000000000000000000000602082015250565b600061532e603483613920565b9150615339826152d2565b604082019050919050565b6000602082019050818103600083015261535d81615321565b9050919050565b7f455243313135353a204552433131353552656365697665722072656a6563746560008201527f6420746f6b656e73000000000000000000000000000000000000000000000000602082015250565b60006153c0602883613920565b91506153cb82615364565b604082019050919050565b600060208201905081810360008301526153ef816153b3565b9050919050565b600060a08201905061540b6000830188613ebd565b6154186020830187613ebd565b6154256040830186613507565b6154326060830185613507565b81810360808301526154448184615130565b9050969550505050505056fea2646970667358221220e30f5ff2ab29854743756c534fe9c830a4771c9dc44e255d8e6c4dd696ee0ed164736f6c63430008120033",
  "immutableReferences": {},
  "source": "// SPDX-License-Identifier: MIT\r\npragma solidity ^0.8.0;\r\n\r\nimport \"@openzeppelin/contracts/token/ERC1155/ERC1155.sol\";\r\nimport \"@openzeppelin/contracts/access/Ownable.sol\";\r\nimport \"@openzeppelin/contracts/utils/math/SafeMath.sol\";\r\n\r\ncontract Composable is ERC1155, Ownable {\r\n    using SafeMath for uint256;\r\n    uint256 compositionCount;\r\n    uint256 collectionCount;\r\n    uint256 public _RequestsCounter;\r\n\r\n    struct ComposedToken {\r\n        uint256 id;\r\n        string collection;\r\n        address owner;\r\n        address buyer;\r\n        uint256 date;\r\n        bool deleted;\r\n        uint256 price;\r\n        uint256[] nfts;\r\n    }\r\n\r\n    struct Request {\r\n        string collection;\r\n        uint256 id;\r\n        uint256[] ids;\r\n        uint256 date;\r\n        uint256 period;\r\n        uint256 price;\r\n        address buyer;\r\n        address seller;\r\n        bool isSeenBySeller;\r\n        bool isAcceptedBySeller;\r\n        bool isSeenByBuyer;\r\n        bool isPayedByBuyer;\r\n    }\r\n    struct LabRequest {\r\n        string name;\r\n        address buyer;\r\n        address owner;\r\n        uint256 price;\r\n        uint256 period;\r\n        uint256[] nfts;\r\n    }\r\n\r\n    //mapping for requests\r\n    mapping(uint256 => Request) public requests;\r\n    mapping(address => uint256[]) private requestPerUser;\r\n\r\n    mapping(address => ComposedToken[]) private _tokenComposition;\r\n    //mapping to track users request count\r\n    mapping(address => bool) public labs;\r\n\r\n    constructor() ERC1155(\"\") {}\r\n\r\n    function toggleTrue(address _lab) public onlyOwner {\r\n        labs[_lab] = true;\r\n    }\r\n\r\n    function toggleFalse(address _lab) public onlyOwner {\r\n        labs[_lab] = false;\r\n    }\r\n\r\n    //get all the composed nfts if the composed nft is disponible\r\n    function getComposition() public view returns (ComposedToken[] memory) {\r\n        ComposedToken[] memory list = _tokenComposition[msg.sender];\r\n        uint256 l = getlength();\r\n        ComposedToken[] memory newList = new ComposedToken[](l);\r\n        for (uint256 i = 0; i < l; i++) {\r\n            if (!list[i].deleted) {\r\n                newList[i] = list[i];\r\n            }\r\n        }\r\n        return newList;\r\n    }\r\n\r\n    //get the length of disponsible composed nfts\r\n    function getlength() public view returns (uint256) {\r\n        uint256 count = 0;\r\n        ComposedToken[] memory list = _tokenComposition[msg.sender];\r\n        for (uint256 i = 0; i < list.length; i++) {\r\n            if (list[i].deleted || block.timestamp > list[i].date) {\r\n                list[i].deleted = false;\r\n            } else {\r\n                count++;\r\n            }\r\n        }\r\n        return count;\r\n    }\r\n\r\n    //add request to buy list of nfts per user\r\n    function addBuyRequest(LabRequest[] memory orders) public {\r\n        require(labs[msg.sender] != true, \"You are blocked form buying nfts\");\r\n        for (uint256 i = 0; i < orders.length; i++) {\r\n            Request memory dataStruct = Request({\r\n                collection: orders[i].name,\r\n                id: _RequestsCounter,\r\n                ids: orders[i].nfts,\r\n                date: block.timestamp,\r\n                buyer: orders[i].buyer,\r\n                period: orders[i].period,\r\n                price: orders[i].price,\r\n                seller: orders[i].owner,\r\n                isSeenBySeller: false,\r\n                isAcceptedBySeller: false,\r\n                isSeenByBuyer: false,\r\n                isPayedByBuyer: false\r\n            });\r\n            requests[_RequestsCounter] = dataStruct;\r\n            requestPerUser[msg.sender].push(_RequestsCounter);\r\n            requestPerUser[orders[i].owner].push(_RequestsCounter);\r\n            _RequestsCounter++;\r\n        }\r\n    }\r\n\r\n    //reject/accept request\r\n    function rejectAndAcceptRequest(uint256 id, bool accept) public {\r\n        require(\r\n            !requests[id].isSeenBySeller,\r\n            \"You can't allready seen this request.\"\r\n        );\r\n        requests[id].isSeenBySeller = true;\r\n        requests[id].isAcceptedBySeller = accept;\r\n    }\r\n\r\n    //reject Payment\r\n    function rejectPayment(uint256 id) public {\r\n        require(\r\n            !requests[id].isSeenByBuyer,\r\n            \"You can't allready seen this request.\"\r\n        );\r\n        require(\r\n            requests[id].isAcceptedBySeller,\r\n            \"You can't reject non accepted request\"\r\n        );\r\n\r\n        requests[id].isSeenByBuyer = true;\r\n        requests[id].isPayedByBuyer = false;\r\n    }\r\n\r\n    //accept Payment and add compsable nft to the list of composable nfts for the buyer\r\n    function acceptPayment(uint256 id) public payable {\r\n        require(\r\n            !requests[id].isSeenByBuyer,\r\n            \"You can't allready seen this request.\"\r\n        );\r\n\r\n        require(\r\n            requests[id].isAcceptedBySeller,\r\n            \"You can't pay for non accepted request\"\r\n        );\r\n        requests[id].isSeenByBuyer = true;\r\n        requests[id].isPayedByBuyer = true;\r\n        ComposedToken memory data = ComposedToken({\r\n            id: requests[id].id,\r\n            collection: requests[id].collection,\r\n            owner: requests[id].seller,\r\n            buyer: requests[id].buyer,\r\n            date: block.timestamp + requests[id].period,\r\n            price: requests[id].price,\r\n            nfts: requests[id].ids,\r\n            deleted: false\r\n        });\r\n        _tokenComposition[msg.sender].push(data);\r\n        payable(requests[id].seller).transfer(requests[id].price);\r\n        _mint(msg.sender, compositionCount, 1, \"\");\r\n        compositionCount++;\r\n    }\r\n\r\n    function getRequests() public view returns (Request[] memory) {\r\n        uint256[] memory RequestIds = requestPerUser[msg.sender];\r\n        uint256 l = RequestIds.length;\r\n        Request[] memory result = new Request[](l);\r\n        for (uint256 i = 0; i < l; i++) {\r\n            result[i] = requests[RequestIds[i]];\r\n        }\r\n        return result;\r\n    }\r\n}\r\n",
  "sourcePath": "D:\\Marketpalce\\contracts\\Composable.sol",
  "compiler": {
    "name": "solc",
    "version": "0.8.18+commit.87f61d96.Emscripten.clang"
  },
  "schemaVersion": "3.4.12",
  "updatedAt": "2023-05-15T00:59:29.299Z",
  "networkType": "ethereum",
  "devdoc": {
    "events": {
      "ApprovalForAll(address,address,bool)": {
        "details": "Emitted when `account` grants or revokes permission to `operator` to transfer their tokens, according to `approved`."
      },
      "TransferBatch(address,address,address,uint256[],uint256[])": {
        "details": "Equivalent to multiple {TransferSingle} events, where `operator`, `from` and `to` are the same for all transfers."
      },
      "TransferSingle(address,address,address,uint256,uint256)": {
        "details": "Emitted when `value` tokens of token type `id` are transferred from `from` to `to` by `operator`."
      },
      "URI(string,uint256)": {
        "details": "Emitted when the URI for token type `id` changes to `value`, if it is a non-programmatic URI. If an {URI} event was emitted for `id`, the standard https://eips.ethereum.org/EIPS/eip-1155#metadata-extensions[guarantees] that `value` will equal the value returned by {IERC1155MetadataURI-uri}."
      }
    },
    "kind": "dev",
    "methods": {
      "balanceOf(address,uint256)": {
        "details": "See {IERC1155-balanceOf}. Requirements: - `account` cannot be the zero address."
      },
      "balanceOfBatch(address[],uint256[])": {
        "details": "See {IERC1155-balanceOfBatch}. Requirements: - `accounts` and `ids` must have the same length."
      },
      "isApprovedForAll(address,address)": {
        "details": "See {IERC1155-isApprovedForAll}."
      },
      "owner()": {
        "details": "Returns the address of the current owner."
      },
      "renounceOwnership()": {
        "details": "Leaves the contract without owner. It will not be possible to call `onlyOwner` functions anymore. Can only be called by the current owner. NOTE: Renouncing ownership will leave the contract without an owner, thereby removing any functionality that is only available to the owner."
      },
      "safeBatchTransferFrom(address,address,uint256[],uint256[],bytes)": {
        "details": "See {IERC1155-safeBatchTransferFrom}."
      },
      "safeTransferFrom(address,address,uint256,uint256,bytes)": {
        "details": "See {IERC1155-safeTransferFrom}."
      },
      "setApprovalForAll(address,bool)": {
        "details": "See {IERC1155-setApprovalForAll}."
      },
      "supportsInterface(bytes4)": {
        "details": "See {IERC165-supportsInterface}."
      },
      "transferOwnership(address)": {
        "details": "Transfers ownership of the contract to a new account (`newOwner`). Can only be called by the current owner."
      },
      "uri(uint256)": {
        "details": "See {IERC1155MetadataURI-uri}. This implementation returns the same URI for *all* token types. It relies on the token type ID substitution mechanism https://eips.ethereum.org/EIPS/eip-1155#metadata[defined in the EIP]. Clients calling this function must replace the `\\{id\\}` substring with the actual token type ID."
      }
    },
    "version": 1
  },
  "userdoc": {
    "kind": "user",
    "methods": {},
    "version": 1
  }
}