{
  "contractName": "MedicalDataNFT",
  "abi": [
    {
      "inputs": [],
      "stateMutability": "nonpayable",
      "type": "constructor"
    },
    {
      "anonymous": false,
      "inputs": [
        {
          "indexed": true,
          "internalType": "address",
          "name": "owner",
          "type": "address"
        },
        {
          "indexed": true,
          "internalType": "address",
          "name": "approved",
          "type": "address"
        },
        {
          "indexed": true,
          "internalType": "uint256",
          "name": "tokenId",
          "type": "uint256"
        }
      ],
      "name": "Approval",
      "type": "event"
    },
    {
      "anonymous": false,
      "inputs": [
        {
          "indexed": true,
          "internalType": "address",
          "name": "owner",
          "type": "address"
        },
        {
          "indexed": true,
          "internalType": "address",
          "name": "operator",
          "type": "address"
        },
        {
          "indexed": false,
          "internalType": "bool",
          "name": "approved",
          "type": "bool"
        }
      ],
      "name": "ApprovalForAll",
      "type": "event"
    },
    {
      "anonymous": false,
      "inputs": [
        {
          "indexed": true,
          "internalType": "address",
          "name": "previousOwner",
          "type": "address"
        },
        {
          "indexed": true,
          "internalType": "address",
          "name": "newOwner",
          "type": "address"
        }
      ],
      "name": "OwnershipTransferred",
      "type": "event"
    },
    {
      "anonymous": false,
      "inputs": [
        {
          "indexed": true,
          "internalType": "address",
          "name": "from",
          "type": "address"
        },
        {
          "indexed": true,
          "internalType": "address",
          "name": "to",
          "type": "address"
        },
        {
          "indexed": true,
          "internalType": "uint256",
          "name": "tokenId",
          "type": "uint256"
        }
      ],
      "name": "Transfer",
      "type": "event"
    },
    {
      "inputs": [
        {
          "internalType": "address",
          "name": "",
          "type": "address"
        },
        {
          "internalType": "uint256",
          "name": "",
          "type": "uint256"
        }
      ],
      "name": "Requests",
      "outputs": [
        {
          "internalType": "string",
          "name": "collection",
          "type": "string"
        },
        {
          "internalType": "uint256",
          "name": "id",
          "type": "uint256"
        },
        {
          "internalType": "uint256",
          "name": "date",
          "type": "uint256"
        },
        {
          "internalType": "uint256",
          "name": "price",
          "type": "uint256"
        },
        {
          "internalType": "address",
          "name": "buyer",
          "type": "address"
        },
        {
          "internalType": "address",
          "name": "seller",
          "type": "address"
        },
        {
          "internalType": "bool",
          "name": "isSeenBySeller",
          "type": "bool"
        },
        {
          "internalType": "bool",
          "name": "isAcceptedBySeller",
          "type": "bool"
        },
        {
          "internalType": "bool",
          "name": "isSeenByBuyer",
          "type": "bool"
        },
        {
          "internalType": "bool",
          "name": "isPayedByBuyer",
          "type": "bool"
        }
      ],
      "stateMutability": "view",
      "type": "function",
      "constant": true
    },
    {
      "inputs": [
        {
          "internalType": "address",
          "name": "",
          "type": "address"
        }
      ],
      "name": "Users",
      "outputs": [
        {
          "internalType": "address",
          "name": "wallet",
          "type": "address"
        },
        {
          "internalType": "uint256",
          "name": "requests",
          "type": "uint256"
        },
        {
          "internalType": "uint256",
          "name": "nft",
          "type": "uint256"
        },
        {
          "internalType": "uint256",
          "name": "collection",
          "type": "uint256"
        },
        {
          "internalType": "bool",
          "name": "enable",
          "type": "bool"
        }
      ],
      "stateMutability": "view",
      "type": "function",
      "constant": true
    },
    {
      "inputs": [
        {
          "internalType": "address",
          "name": "",
          "type": "address"
        },
        {
          "internalType": "string",
          "name": "",
          "type": "string"
        },
        {
          "internalType": "uint256",
          "name": "",
          "type": "uint256"
        }
      ],
      "name": "UsersCollections",
      "outputs": [
        {
          "internalType": "uint256",
          "name": "",
          "type": "uint256"
        }
      ],
      "stateMutability": "view",
      "type": "function",
      "constant": true
    },
    {
      "inputs": [
        {
          "internalType": "address",
          "name": "",
          "type": "address"
        },
        {
          "internalType": "uint256",
          "name": "",
          "type": "uint256"
        }
      ],
      "name": "UsersNfts",
      "outputs": [
        {
          "internalType": "uint256",
          "name": "",
          "type": "uint256"
        }
      ],
      "stateMutability": "view",
      "type": "function",
      "constant": true
    },
    {
      "inputs": [],
      "name": "_NftsCounter",
      "outputs": [
        {
          "internalType": "uint256",
          "name": "",
          "type": "uint256"
        }
      ],
      "stateMutability": "view",
      "type": "function",
      "constant": true
    },
    {
      "inputs": [],
      "name": "_RequestsCounter",
      "outputs": [
        {
          "internalType": "uint256",
          "name": "",
          "type": "uint256"
        }
      ],
      "stateMutability": "view",
      "type": "function",
      "constant": true
    },
    {
      "inputs": [
        {
          "internalType": "address",
          "name": "to",
          "type": "address"
        },
        {
          "internalType": "uint256",
          "name": "tokenId",
          "type": "uint256"
        }
      ],
      "name": "approve",
      "outputs": [],
      "stateMutability": "nonpayable",
      "type": "function"
    },
    {
      "inputs": [
        {
          "internalType": "address",
          "name": "owner",
          "type": "address"
        }
      ],
      "name": "balanceOf",
      "outputs": [
        {
          "internalType": "uint256",
          "name": "",
          "type": "uint256"
        }
      ],
      "stateMutability": "view",
      "type": "function",
      "constant": true
    },
    {
      "inputs": [
        {
          "internalType": "uint256",
          "name": "tokenId",
          "type": "uint256"
        }
      ],
      "name": "getApproved",
      "outputs": [
        {
          "internalType": "address",
          "name": "",
          "type": "address"
        }
      ],
      "stateMutability": "view",
      "type": "function",
      "constant": true
    },
    {
      "inputs": [
        {
          "internalType": "address",
          "name": "owner",
          "type": "address"
        },
        {
          "internalType": "address",
          "name": "operator",
          "type": "address"
        }
      ],
      "name": "isApprovedForAll",
      "outputs": [
        {
          "internalType": "bool",
          "name": "",
          "type": "bool"
        }
      ],
      "stateMutability": "view",
      "type": "function",
      "constant": true
    },
    {
      "inputs": [],
      "name": "name",
      "outputs": [
        {
          "internalType": "string",
          "name": "",
          "type": "string"
        }
      ],
      "stateMutability": "view",
      "type": "function",
      "constant": true
    },
    {
      "inputs": [],
      "name": "owner",
      "outputs": [
        {
          "internalType": "address",
          "name": "",
          "type": "address"
        }
      ],
      "stateMutability": "view",
      "type": "function",
      "constant": true
    },
    {
      "inputs": [
        {
          "internalType": "uint256",
          "name": "tokenId",
          "type": "uint256"
        }
      ],
      "name": "ownerOf",
      "outputs": [
        {
          "internalType": "address",
          "name": "",
          "type": "address"
        }
      ],
      "stateMutability": "view",
      "type": "function",
      "constant": true
    },
    {
      "inputs": [],
      "name": "renounceOwnership",
      "outputs": [],
      "stateMutability": "nonpayable",
      "type": "function"
    },
    {
      "inputs": [
        {
          "internalType": "address",
          "name": "from",
          "type": "address"
        },
        {
          "internalType": "address",
          "name": "to",
          "type": "address"
        },
        {
          "internalType": "uint256",
          "name": "tokenId",
          "type": "uint256"
        }
      ],
      "name": "safeTransferFrom",
      "outputs": [],
      "stateMutability": "nonpayable",
      "type": "function"
    },
    {
      "inputs": [
        {
          "internalType": "address",
          "name": "from",
          "type": "address"
        },
        {
          "internalType": "address",
          "name": "to",
          "type": "address"
        },
        {
          "internalType": "uint256",
          "name": "tokenId",
          "type": "uint256"
        },
        {
          "internalType": "bytes",
          "name": "data",
          "type": "bytes"
        }
      ],
      "name": "safeTransferFrom",
      "outputs": [],
      "stateMutability": "nonpayable",
      "type": "function"
    },
    {
      "inputs": [
        {
          "internalType": "address",
          "name": "operator",
          "type": "address"
        },
        {
          "internalType": "bool",
          "name": "approved",
          "type": "bool"
        }
      ],
      "name": "setApprovalForAll",
      "outputs": [],
      "stateMutability": "nonpayable",
      "type": "function"
    },
    {
      "inputs": [
        {
          "internalType": "bytes4",
          "name": "interfaceId",
          "type": "bytes4"
        }
      ],
      "name": "supportsInterface",
      "outputs": [
        {
          "internalType": "bool",
          "name": "",
          "type": "bool"
        }
      ],
      "stateMutability": "view",
      "type": "function",
      "constant": true
    },
    {
      "inputs": [],
      "name": "symbol",
      "outputs": [
        {
          "internalType": "string",
          "name": "",
          "type": "string"
        }
      ],
      "stateMutability": "view",
      "type": "function",
      "constant": true
    },
    {
      "inputs": [
        {
          "internalType": "uint256",
          "name": "tokenId",
          "type": "uint256"
        }
      ],
      "name": "tokenURI",
      "outputs": [
        {
          "internalType": "string",
          "name": "",
          "type": "string"
        }
      ],
      "stateMutability": "view",
      "type": "function",
      "constant": true
    },
    {
      "inputs": [
        {
          "internalType": "address",
          "name": "from",
          "type": "address"
        },
        {
          "internalType": "address",
          "name": "to",
          "type": "address"
        },
        {
          "internalType": "uint256",
          "name": "tokenId",
          "type": "uint256"
        }
      ],
      "name": "transferFrom",
      "outputs": [],
      "stateMutability": "nonpayable",
      "type": "function"
    },
    {
      "inputs": [
        {
          "internalType": "address",
          "name": "newOwner",
          "type": "address"
        }
      ],
      "name": "transferOwnership",
      "outputs": [],
      "stateMutability": "nonpayable",
      "type": "function"
    },
    {
      "inputs": [],
      "name": "getUserIds",
      "outputs": [
        {
          "internalType": "uint256[]",
          "name": "",
          "type": "uint256[]"
        }
      ],
      "stateMutability": "view",
      "type": "function",
      "constant": true
    },
    {
      "inputs": [
        {
          "internalType": "string",
          "name": "collection",
          "type": "string"
        }
      ],
      "name": "getUserCollactions",
      "outputs": [
        {
          "internalType": "uint256[]",
          "name": "",
          "type": "uint256[]"
        }
      ],
      "stateMutability": "view",
      "type": "function",
      "constant": true
    },
    {
      "inputs": [
        {
          "internalType": "address",
          "name": "_patient",
          "type": "address"
        }
      ],
      "name": "toggleBlock",
      "outputs": [],
      "stateMutability": "nonpayable",
      "type": "function"
    },
    {
      "inputs": [],
      "name": "addUser",
      "outputs": [],
      "stateMutability": "nonpayable",
      "type": "function"
    },
    {
      "inputs": [
        {
          "internalType": "string",
          "name": "name",
          "type": "string"
        },
        {
          "internalType": "uint256",
          "name": "price",
          "type": "uint256"
        },
        {
          "internalType": "string",
          "name": "data",
          "type": "string"
        }
      ],
      "name": "mint",
      "outputs": [],
      "stateMutability": "nonpayable",
      "type": "function"
    },
    {
      "inputs": [
        {
          "components": [
            {
              "internalType": "string",
              "name": "name",
              "type": "string"
            },
            {
              "internalType": "address",
              "name": "owner",
              "type": "address"
            },
            {
              "internalType": "uint256[]",
              "name": "nfts",
              "type": "uint256[]"
            }
          ],
          "internalType": "struct MedicalDataNFT.LabRequest[]",
          "name": "requests",
          "type": "tuple[]"
        }
      ],
      "name": "addBuyRequest",
      "outputs": [],
      "stateMutability": "nonpayable",
      "type": "function"
    },
    {
      "inputs": [
        {
          "internalType": "uint256",
          "name": "_id",
          "type": "uint256"
        },
        {
          "internalType": "bool",
          "name": "accepted",
          "type": "bool"
        }
      ],
      "name": "approveBuyRequest",
      "outputs": [],
      "stateMutability": "nonpayable",
      "type": "function"
    },
    {
      "inputs": [
        {
          "internalType": "uint256",
          "name": "_id",
          "type": "uint256"
        }
      ],
      "name": "acceptPayment",
      "outputs": [],
      "stateMutability": "nonpayable",
      "type": "function"
    },
    {
      "inputs": [
        {
          "internalType": "uint256",
          "name": "_id",
          "type": "uint256"
        }
      ],
      "name": "rejectPayment",
      "outputs": [],
      "stateMutability": "nonpayable",
      "type": "function"
    },
    {
      "inputs": [],
      "name": "getNftData",
      "outputs": [
        {
          "components": [
            {
              "internalType": "uint256",
              "name": "id",
              "type": "uint256"
            },
            {
              "internalType": "string",
              "name": "name",
              "type": "string"
            },
            {
              "internalType": "address",
              "name": "owner",
              "type": "address"
            },
            {
              "internalType": "uint256",
              "name": "date",
              "type": "uint256"
            },
            {
              "internalType": "uint256",
              "name": "price",
              "type": "uint256"
            },
            {
              "internalType": "string",
              "name": "data",
              "type": "string"
            },
            {
              "internalType": "address[]",
              "name": "buyers",
              "type": "address[]"
            }
          ],
          "internalType": "struct MedicalDataNFT.NFT[]",
          "name": "",
          "type": "tuple[]"
        }
      ],
      "stateMutability": "view",
      "type": "function",
      "constant": true
    }
  ],
  "bytecode": "0x60806040523480156200001157600080fd5b506040518060400160405280600a81526020017f4d65646963616c4e4654000000000000000000000000000000000000000000008152506040518060400160405280600381526020017f4d4544000000000000000000000000000000000000000000000000000000000081525081600090816200008f919062000412565b508060019081620000a1919062000412565b505050620000c4620000b8620000ca60201b60201c565b620000d260201b60201c565b620004f9565b600033905090565b6000600660009054906101000a900473ffffffffffffffffffffffffffffffffffffffff16905081600660006101000a81548173ffffffffffffffffffffffffffffffffffffffff021916908373ffffffffffffffffffffffffffffffffffffffff1602179055508173ffffffffffffffffffffffffffffffffffffffff168173ffffffffffffffffffffffffffffffffffffffff167f8be0079c531659141344cd1fd0a4f28419497f9722a3daafe3b4186f6b6457e060405160405180910390a35050565b600081519050919050565b7f4e487b7100000000000000000000000000000000000000000000000000000000600052604160045260246000fd5b7f4e487b7100000000000000000000000000000000000000000000000000000000600052602260045260246000fd5b600060028204905060018216806200021a57607f821691505b60208210810362000230576200022f620001d2565b5b50919050565b60008190508160005260206000209050919050565b60006020601f8301049050919050565b600082821b905092915050565b6000600883026200029a7fffffffffffffffffffffffffffffffffffffffffffffffffffffffffffffffff826200025b565b620002a686836200025b565b95508019841693508086168417925050509392505050565b6000819050919050565b6000819050919050565b6000620002f3620002ed620002e784620002be565b620002c8565b620002be565b9050919050565b6000819050919050565b6200030f83620002d2565b620003276200031e82620002fa565b84845462000268565b825550505050565b600090565b6200033e6200032f565b6200034b81848462000304565b505050565b5b8181101562000373576200036760008262000334565b60018101905062000351565b5050565b601f821115620003c2576200038c8162000236565b62000397846200024b565b81016020851015620003a7578190505b620003bf620003b6856200024b565b83018262000350565b50505b505050565b600082821c905092915050565b6000620003e760001984600802620003c7565b1980831691505092915050565b6000620004028383620003d4565b9150826002028217905092915050565b6200041d8262000198565b67ffffffffffffffff811115620004395762000438620001a3565b5b62000445825462000201565b6200045282828562000377565b600060209050601f8311600181146200048a576000841562000475578287015190505b620004818582620003f4565b865550620004f1565b601f1984166200049a8662000236565b60005b82811015620004c4578489015182556001820191506020850194506020810190506200049d565b86831015620004e45784890151620004e0601f891682620003d4565b8355505b6001600288020188555050505b505050505050565b615c3380620005096000396000f3fe608060405234801561001057600080fd5b50600436106101f05760003560e01c806395d89b411161010f578063bf846e04116100a2578063e01da11e11610071578063e01da11e146105c0578063e13397f6146105de578063e985e9c5146105fc578063f2fde38b1461062c576101f0565b8063bf846e0414610528578063c22fb92914610544578063c87b56dd14610560578063d027a1a414610590576101f0565b80639fb4835b116100de5780639fb4835b146104b4578063a22cb465146104d2578063b88d4fde146104ee578063bf4583cd1461050a576101f0565b806395d89b41146103f957806396f9de4214610417578063995975d81461044757806399b956a014610480576101f0565b806342842e0e11610187578063715018a611610156578063715018a6146103995780638c64e583146103a35780638d920b02146103bf5780638da5cb5b146103db576101f0565b806342842e0e14610313578063455c928c1461032f5780636352211e1461033957806370a0823114610369576101f0565b8063095ea7b3116101c3578063095ea7b31461028f57806313ea6318146102ab57806323b872dd146102db57806338528bde146102f7576101f0565b806301ffc9a7146101f557806306bdc9491461022557806306fdde0314610241578063081812fc1461025f575b600080fd5b61020f600480360381019061020a9190613f12565b610648565b60405161021c9190613f5a565b60405180910390f35b61023f600480360381019061023a91906140f1565b61072a565b005b610249610b0e565b60405161025691906141fb565b60405180910390f35b6102796004803603810190610274919061421d565b610ba0565b604051610286919061428b565b60405180910390f35b6102a960048036038101906102a491906142d2565b610be6565b005b6102c560048036038101906102c09190614312565b610cfd565b6040516102d29190614419565b60405180910390f35b6102f560048036038101906102f0919061443b565b610db0565b005b610311600480360381019061030c91906146dd565b610e10565b005b61032d6004803603810190610328919061443b565b6114d1565b005b6103376114f1565b005b610353600480360381019061034e919061421d565b6116b0565b604051610360919061428b565b60405180910390f35b610383600480360381019061037e9190614726565b611736565b6040516103909190614762565b60405180910390f35b6103a16117ed565b005b6103bd60048036038101906103b89190614726565b611801565b005b6103d960048036038101906103d4919061421d565b6118b6565b005b6103e3611b89565b6040516103f0919061428b565b60405180910390f35b610401611bb3565b60405161040e91906141fb565b60405180910390f35b610431600480360381019061042c91906142d2565b611c45565b60405161043e9190614762565b60405180910390f35b610461600480360381019061045c91906142d2565b611c76565b6040516104779a9998979695949392919061477d565b60405180910390f35b61049a60048036038101906104959190614726565b611dd3565b6040516104ab959493929190614820565b60405180910390f35b6104bc611e36565b6040516104c99190614762565b60405180910390f35b6104ec60048036038101906104e7919061489f565b611e3c565b005b61050860048036038101906105039190614980565b611e52565b005b610512611eb4565b60405161051f9190614c77565b60405180910390f35b610542600480360381019061053d919061421d565b6121f3565b005b61055e60048036038101906105599190614c99565b61290d565b005b61057a6004803603810190610575919061421d565b612bdf565b60405161058791906141fb565b60405180910390f35b6105aa60048036038101906105a59190614cd9565b612c47565b6040516105b79190614762565b60405180910390f35b6105c8612c9b565b6040516105d59190614419565b60405180910390f35b6105e6612d30565b6040516105f39190614762565b60405180910390f35b61061660048036038101906106119190614d48565b612d36565b6040516106239190613f5a565b60405180910390f35b61064660048036038101906106419190614726565b612dca565b005b60007f80ac58cd000000000000000000000000000000000000000000000000000000007bffffffffffffffffffffffffffffffffffffffffffffffffffffffff1916827bffffffffffffffffffffffffffffffffffffffffffffffffffffffff1916148061071357507f5b5e139f000000000000000000000000000000000000000000000000000000007bffffffffffffffffffffffffffffffffffffffffffffffffffffffff1916827bffffffffffffffffffffffffffffffffffffffffffffffffffffffff1916145b80610723575061072282612e4d565b5b9050919050565b600a60003373ffffffffffffffffffffffffffffffffffffffff1673ffffffffffffffffffffffffffffffffffffffff16815260200190815260200160002060040160009054906101000a900460ff166107b9576040517f08c379a00000000000000000000000000000000000000000000000000000000081526004016107b090614dd4565b60405180910390fd5b60008351116107fd576040517f08c379a00000000000000000000000000000000000000000000000000000000081526004016107f490614e40565b60405180910390fd5b6000815111610841576040517f08c379a000000000000000000000000000000000000000000000000000000000815260040161083890614eac565b60405180910390fd5b61084d33600754612eb7565b60006040518060e0016040528060075481526020018581526020013373ffffffffffffffffffffffffffffffffffffffff168152602001428152602001848152602001838152602001600067ffffffffffffffff8111156108b1576108b0613f90565b5b6040519080825280602002602001820160405280156108df5781602001602082028036833780820191505090505b5081525090508060096000600754815260200190815260200160002060008201518160000155602082015181600101908161091a91906150d8565b5060408201518160020160006101000a81548173ffffffffffffffffffffffffffffffffffffffff021916908373ffffffffffffffffffffffffffffffffffffffff160217905550606082015181600301556080820151816004015560a082015181600501908161098b91906150d8565b5060c08201518160060190805190602001906109a8929190613d5f565b50905050600b60003373ffffffffffffffffffffffffffffffffffffffff1673ffffffffffffffffffffffffffffffffffffffff1681526020019081526020016000206007549080600181540180825580915050600190039060005260206000200160009091909190915055600d60003373ffffffffffffffffffffffffffffffffffffffff1673ffffffffffffffffffffffffffffffffffffffff16815260200190815260200160002084604051610a6191906151e6565b90815260200160405180910390206007549080600181540180825580915050600190039060005260206000200160009091909190915055600a60003373ffffffffffffffffffffffffffffffffffffffff1673ffffffffffffffffffffffffffffffffffffffff1681526020019081526020016000206002016000815480929190610aeb9061522c565b919050555060076000815480929190610b039061522c565b919050555050505050565b606060008054610b1d90614efb565b80601f0160208091040260200160405190810160405280929190818152602001828054610b4990614efb565b8015610b965780601f10610b6b57610100808354040283529160200191610b96565b820191906000526020600020905b815481529060010190602001808311610b7957829003601f168201915b5050505050905090565b6000610bab82612ed5565b6004600083815260200190815260200160002060009054906101000a900473ffffffffffffffffffffffffffffffffffffffff169050919050565b6000610bf1826116b0565b90508073ffffffffffffffffffffffffffffffffffffffff168373ffffffffffffffffffffffffffffffffffffffff1603610c61576040517f08c379a0000000000000000000000000000000000000000000000000000000008152600401610c58906152e6565b60405180910390fd5b8073ffffffffffffffffffffffffffffffffffffffff16610c80612f20565b73ffffffffffffffffffffffffffffffffffffffff161480610caf5750610cae81610ca9612f20565b612d36565b5b610cee576040517f08c379a0000000000000000000000000000000000000000000000000000000008152600401610ce590615378565b60405180910390fd5b610cf88383612f28565b505050565b6060600d60003373ffffffffffffffffffffffffffffffffffffffff1673ffffffffffffffffffffffffffffffffffffffff16815260200190815260200160002082604051610d4c91906151e6565b9081526020016040518091039020805480602002602001604051908101604052809291908181526020018280548015610da457602002820191906000526020600020905b815481526020019060010190808311610d90575b50505050509050919050565b610dc1610dbb612f20565b82612fe1565b610e00576040517f08c379a0000000000000000000000000000000000000000000000000000000008152600401610df79061540a565b60405180910390fd5b610e0b838383613076565b505050565b600a60003373ffffffffffffffffffffffffffffffffffffffff1673ffffffffffffffffffffffffffffffffffffffff16815260200190815260200160002060040160009054906101000a900460ff16610e9f576040517f08c379a0000000000000000000000000000000000000000000000000000000008152600401610e9690615476565b60405180910390fd5b60005b81518110156114cd576000600a60003373ffffffffffffffffffffffffffffffffffffffff1673ffffffffffffffffffffffffffffffffffffffff1681526020019081526020016000206001015490506000600a60003373ffffffffffffffffffffffffffffffffffffffff1673ffffffffffffffffffffffffffffffffffffffff168152602001908152602001600020600101549050600080600090505b858581518110610f5457610f53615496565b5b60200260200101516040015151811015610fd75760096000878781518110610f7f57610f7e615496565b5b6020026020010151604001518381518110610f9d57610f9c615496565b5b602002602001015181526020019081526020016000206004015482610fc291906154c5565b91508080610fcf9061522c565b915050610f41565b506000604051806101600160405280878781518110610ff957610ff8615496565b5b6020026020010151600001518152602001600854815260200187878151811061102557611024615496565b5b60200260200101516040015181526020014281526020018381526020013373ffffffffffffffffffffffffffffffffffffffff16815260200187878151811061107157611070615496565b5b60200260200101516020015173ffffffffffffffffffffffffffffffffffffffff16815260200160001515815260200160001515815260200160001515815260200160001515815250905080600c60003373ffffffffffffffffffffffffffffffffffffffff1673ffffffffffffffffffffffffffffffffffffffff1681526020019081526020016000206000868152602001908152602001600020600082015181600001908161112291906150d8565b50602082015181600101556040820151816002019080519060200190611149929190613de9565b50606082015181600301556080820151816004015560a08201518160050160006101000a81548173ffffffffffffffffffffffffffffffffffffffff021916908373ffffffffffffffffffffffffffffffffffffffff16021790555060c08201518160060160006101000a81548173ffffffffffffffffffffffffffffffffffffffff021916908373ffffffffffffffffffffffffffffffffffffffff16021790555060e08201518160060160146101000a81548160ff0219169083151502179055506101008201518160060160156101000a81548160ff0219169083151502179055506101208201518160060160166101000a81548160ff0219169083151502179055506101408201518160060160176101000a81548160ff02191690831515021790555090505080600c600088888151811061128a57611289615496565b5b60200260200101516020015173ffffffffffffffffffffffffffffffffffffffff1673ffffffffffffffffffffffffffffffffffffffff168152602001908152602001600020600085815260200190815260200160002060008201518160000190816112f691906150d8565b5060208201518160010155604082015181600201908051906020019061131d929190613de9565b50606082015181600301556080820151816004015560a08201518160050160006101000a81548173ffffffffffffffffffffffffffffffffffffffff021916908373ffffffffffffffffffffffffffffffffffffffff16021790555060c08201518160060160006101000a81548173ffffffffffffffffffffffffffffffffffffffff021916908373ffffffffffffffffffffffffffffffffffffffff16021790555060e08201518160060160146101000a81548160ff0219169083151502179055506101008201518160060160156101000a81548160ff0219169083151502179055506101208201518160060160166101000a81548160ff0219169083151502179055506101408201518160060160176101000a81548160ff021916908315150217905550905050600a60003373ffffffffffffffffffffffffffffffffffffffff1673ffffffffffffffffffffffffffffffffffffffff16815260200190815260200160002060010160008154809291906114999061522c565b9190505550600860008154809291906114b19061522c565b91905055505050505080806114c59061522c565b915050610ea2565b5050565b6114ec83838360405180602001604052806000815250611e52565b505050565b60006040518060a001604052803373ffffffffffffffffffffffffffffffffffffffff168152602001600081526020016000815260200160008152602001600115158152509050600a60003373ffffffffffffffffffffffffffffffffffffffff1673ffffffffffffffffffffffffffffffffffffffff16815260200190815260200160002060040160009054906101000a900460ff16806115e05750600a60003373ffffffffffffffffffffffffffffffffffffffff1673ffffffffffffffffffffffffffffffffffffffff16815260200190815260200160002060040160009054906101000a900460ff16155b6116ad5780600a60003373ffffffffffffffffffffffffffffffffffffffff1673ffffffffffffffffffffffffffffffffffffffff16815260200190815260200160002060008201518160000160006101000a81548173ffffffffffffffffffffffffffffffffffffffff021916908373ffffffffffffffffffffffffffffffffffffffff16021790555060208201518160010155604082015181600201556060820151816003015560808201518160040160006101000a81548160ff0219169083151502179055509050505b50565b6000806116bc8361336f565b9050600073ffffffffffffffffffffffffffffffffffffffff168173ffffffffffffffffffffffffffffffffffffffff160361172d576040517f08c379a000000000000000000000000000000000000000000000000000000000815260040161172490615545565b60405180910390fd5b80915050919050565b60008073ffffffffffffffffffffffffffffffffffffffff168273ffffffffffffffffffffffffffffffffffffffff16036117a6576040517f08c379a000000000000000000000000000000000000000000000000000000000815260040161179d906155d7565b60405180910390fd5b600360008373ffffffffffffffffffffffffffffffffffffffff1673ffffffffffffffffffffffffffffffffffffffff168152602001908152602001600020549050919050565b6117f56133ac565b6117ff600061342a565b565b6118096133ac565b600a60008273ffffffffffffffffffffffffffffffffffffffff1673ffffffffffffffffffffffffffffffffffffffff16815260200190815260200160002060040160009054906101000a900460ff1615600a60008373ffffffffffffffffffffffffffffffffffffffff1673ffffffffffffffffffffffffffffffffffffffff16815260200190815260200160002060040160006101000a81548160ff02191690831515021790555050565b60011515600c60003373ffffffffffffffffffffffffffffffffffffffff1673ffffffffffffffffffffffffffffffffffffffff168152602001908152602001600020600083815260200190815260200160002060060160159054906101000a900460ff1615151461195d576040517f08c379a000000000000000000000000000000000000000000000000000000000815260040161195490615643565b60405180910390fd5b6000600c60003373ffffffffffffffffffffffffffffffffffffffff1673ffffffffffffffffffffffffffffffffffffffff168152602001908152602001600020600083815260200190815260200160002060060160009054906101000a900473ffffffffffffffffffffffffffffffffffffffff1690506001600c60003373ffffffffffffffffffffffffffffffffffffffff1673ffffffffffffffffffffffffffffffffffffffff168152602001908152602001600020600084815260200190815260200160002060060160166101000a81548160ff0219169083151502179055506000600c60003373ffffffffffffffffffffffffffffffffffffffff1673ffffffffffffffffffffffffffffffffffffffff168152602001908152602001600020600084815260200190815260200160002060060160176101000a81548160ff0219169083151502179055506001600c60008373ffffffffffffffffffffffffffffffffffffffff1673ffffffffffffffffffffffffffffffffffffffff168152602001908152602001600020600084815260200190815260200160002060060160166101000a81548160ff0219169083151502179055506000600c60008373ffffffffffffffffffffffffffffffffffffffff1673ffffffffffffffffffffffffffffffffffffffff168152602001908152602001600020600084815260200190815260200160002060060160176101000a81548160ff0219169083151502179055505050565b6000600660009054906101000a900473ffffffffffffffffffffffffffffffffffffffff16905090565b606060018054611bc290614efb565b80601f0160208091040260200160405190810160405280929190818152602001828054611bee90614efb565b8015611c3b5780601f10611c1057610100808354040283529160200191611c3b565b820191906000526020600020905b815481529060010190602001808311611c1e57829003601f168201915b5050505050905090565b600b6020528160005260406000208181548110611c6157600080fd5b90600052602060002001600091509150505481565b600c60205281600052604060002060205280600052604060002060009150915050806000018054611ca690614efb565b80601f0160208091040260200160405190810160405280929190818152602001828054611cd290614efb565b8015611d1f5780601f10611cf457610100808354040283529160200191611d1f565b820191906000526020600020905b815481529060010190602001808311611d0257829003601f168201915b5050505050908060010154908060030154908060040154908060050160009054906101000a900473ffffffffffffffffffffffffffffffffffffffff16908060060160009054906101000a900473ffffffffffffffffffffffffffffffffffffffff16908060060160149054906101000a900460ff16908060060160159054906101000a900460ff16908060060160169054906101000a900460ff16908060060160179054906101000a900460ff1690508a565b600a6020528060005260406000206000915090508060000160009054906101000a900473ffffffffffffffffffffffffffffffffffffffff16908060010154908060020154908060030154908060040160009054906101000a900460ff16905085565b60085481565b611e4e611e47612f20565b83836134f0565b5050565b611e63611e5d612f20565b83612fe1565b611ea2576040517f08c379a0000000000000000000000000000000000000000000000000000000008152600401611e999061540a565b60405180910390fd5b611eae8484848461365c565b50505050565b6060600060075467ffffffffffffffff811115611ed457611ed3613f90565b5b604051908082528060200260200182016040528015611f0d57816020015b611efa613e36565b815260200190600190039081611ef25790505b50905060005b6007548110156121eb5760006040518060e0016040528060096000858152602001908152602001600020600001548152602001600960008581526020019081526020016000206001018054611f6790614efb565b80601f0160208091040260200160405190810160405280929190818152602001828054611f9390614efb565b8015611fe05780601f10611fb557610100808354040283529160200191611fe0565b820191906000526020600020905b815481529060010190602001808311611fc357829003601f168201915b505050505081526020016009600085815260200190815260200160002060020160009054906101000a900473ffffffffffffffffffffffffffffffffffffffff1673ffffffffffffffffffffffffffffffffffffffff168152602001600960008581526020019081526020016000206003015481526020016009600085815260200190815260200160002060040154815260200160096000858152602001908152602001600020600501805461209590614efb565b80601f01602080910402602001604051908101604052809291908181526020018280546120c190614efb565b801561210e5780601f106120e35761010080835404028352916020019161210e565b820191906000526020600020905b8154815290600101906020018083116120f157829003601f168201915b50505050508152602001600960008581526020019081526020016000206006018054806020026020016040519081016040528092919081815260200182805480156121ae57602002820191906000526020600020905b8160009054906101000a900473ffffffffffffffffffffffffffffffffffffffff1673ffffffffffffffffffffffffffffffffffffffff1681526020019060010190808311612164575b50505050508152509050808383815181106121cc576121cb615496565b5b60200260200101819052505080806121e39061522c565b915050611f13565b508091505090565b60011515600c60003373ffffffffffffffffffffffffffffffffffffffff1673ffffffffffffffffffffffffffffffffffffffff168152602001908152602001600020600083815260200190815260200160002060060160159054906101000a900460ff1615151461229a576040517f08c379a000000000000000000000000000000000000000000000000000000000815260040161229190615643565b60405180910390fd5b6000600c60003373ffffffffffffffffffffffffffffffffffffffff1673ffffffffffffffffffffffffffffffffffffffff168152602001908152602001600020600083815260200190815260200160002060060160009054906101000a900473ffffffffffffffffffffffffffffffffffffffff1690506000600c60003373ffffffffffffffffffffffffffffffffffffffff1673ffffffffffffffffffffffffffffffffffffffff1681526020019081526020016000206000848152602001908152602001600020600001805461237290614efb565b80601f016020809104026020016040519081016040528092919081815260200182805461239e90614efb565b80156123eb5780601f106123c0576101008083540402835291602001916123eb565b820191906000526020600020905b8154815290600101906020018083116123ce57829003601f168201915b505050505090508173ffffffffffffffffffffffffffffffffffffffff166108fc600c60003373ffffffffffffffffffffffffffffffffffffffff1673ffffffffffffffffffffffffffffffffffffffff1681526020019081526020016000206000868152602001908152602001600020600401549081150290604051600060405180830381858888f1935050505015801561248b573d6000803e3d6000fd5b506001600c60003373ffffffffffffffffffffffffffffffffffffffff1673ffffffffffffffffffffffffffffffffffffffff168152602001908152602001600020600085815260200190815260200160002060060160166101000a81548160ff0219169083151502179055506001600c60003373ffffffffffffffffffffffffffffffffffffffff1673ffffffffffffffffffffffffffffffffffffffff168152602001908152602001600020600085815260200190815260200160002060060160176101000a81548160ff0219169083151502179055506001600c60008473ffffffffffffffffffffffffffffffffffffffff1673ffffffffffffffffffffffffffffffffffffffff168152602001908152602001600020600085815260200190815260200160002060060160166101000a81548160ff0219169083151502179055506001600c60008473ffffffffffffffffffffffffffffffffffffffff1673ffffffffffffffffffffffffffffffffffffffff168152602001908152602001600020600085815260200190815260200160002060060160176101000a81548160ff0219169083151502179055506000600c60003373ffffffffffffffffffffffffffffffffffffffff1673ffffffffffffffffffffffffffffffffffffffff16815260200190815260200160002060008581526020019081526020016000206002018054806020026020016040519081016040528092919081815260200182805480156126db57602002820191906000526020600020905b8154815260200190600101908083116126c7575b5050505050905060005b815181101561290657600d60003373ffffffffffffffffffffffffffffffffffffffff1673ffffffffffffffffffffffffffffffffffffffff1681526020019081526020016000208360405161273b91906151e6565b908152602001604051809103902082828151811061275c5761275b615496565b5b60200260200101519080600181540180825580915050600190039060005260206000200160009091909190915055600b60003373ffffffffffffffffffffffffffffffffffffffff1673ffffffffffffffffffffffffffffffffffffffff1681526020019081526020016000208282815181106127dc576127db615496565b5b60200260200101519080600181540180825580915050600190039060005260206000200160009091909190915055600a60003373ffffffffffffffffffffffffffffffffffffffff1673ffffffffffffffffffffffffffffffffffffffff168152602001908152602001600020600201600081548092919061285d9061522c565b91905055506009600083838151811061287957612878615496565b5b60200260200101518152602001908152602001600020600601339080600181540180825580915050600190039060005260206000200160009091909190916101000a81548173ffffffffffffffffffffffffffffffffffffffff021916908373ffffffffffffffffffffffffffffffffffffffff16021790555080806128fe9061522c565b9150506126e5565b5050505050565b60011515600c60003373ffffffffffffffffffffffffffffffffffffffff1673ffffffffffffffffffffffffffffffffffffffff168152602001908152602001600020600084815260200190815260200160002060060160159054906101000a900460ff161515036129b4576040517f08c379a00000000000000000000000000000000000000000000000000000000081526004016129ab906156af565b60405180910390fd5b6000600c60003373ffffffffffffffffffffffffffffffffffffffff1673ffffffffffffffffffffffffffffffffffffffff168152602001908152602001600020600084815260200190815260200160002060050160009054906101000a900473ffffffffffffffffffffffffffffffffffffffff1690506001600c60003373ffffffffffffffffffffffffffffffffffffffff1673ffffffffffffffffffffffffffffffffffffffff168152602001908152602001600020600085815260200190815260200160002060060160146101000a81548160ff02191690831515021790555081600c60003373ffffffffffffffffffffffffffffffffffffffff1673ffffffffffffffffffffffffffffffffffffffff168152602001908152602001600020600085815260200190815260200160002060060160156101000a81548160ff0219169083151502179055506001600c60008373ffffffffffffffffffffffffffffffffffffffff1673ffffffffffffffffffffffffffffffffffffffff168152602001908152602001600020600085815260200190815260200160002060060160146101000a81548160ff02191690831515021790555081600c60008373ffffffffffffffffffffffffffffffffffffffff1673ffffffffffffffffffffffffffffffffffffffff168152602001908152602001600020600085815260200190815260200160002060060160156101000a81548160ff021916908315150217905550505050565b6060612bea82612ed5565b6000612bf46136b8565b90506000815111612c145760405180602001604052806000815250612c3f565b80612c1e846136cf565b604051602001612c2f9291906156cf565b6040516020818303038152906040525b915050919050565b600d602052826000526040600020828051602081018201805184825260208301602085012081835280955050505050508181548110612c8557600080fd5b9060005260206000200160009250925050505481565b6060600b60003373ffffffffffffffffffffffffffffffffffffffff1673ffffffffffffffffffffffffffffffffffffffff168152602001908152602001600020805480602002602001604051908101604052809291908181526020018280548015612d2657602002820191906000526020600020905b815481526020019060010190808311612d12575b5050505050905090565b60075481565b6000600560008473ffffffffffffffffffffffffffffffffffffffff1673ffffffffffffffffffffffffffffffffffffffff16815260200190815260200160002060008373ffffffffffffffffffffffffffffffffffffffff1673ffffffffffffffffffffffffffffffffffffffff16815260200190815260200160002060009054906101000a900460ff16905092915050565b612dd26133ac565b600073ffffffffffffffffffffffffffffffffffffffff168173ffffffffffffffffffffffffffffffffffffffff1603612e41576040517f08c379a0000000000000000000000000000000000000000000000000000000008152600401612e3890615765565b60405180910390fd5b612e4a8161342a565b50565b60007f01ffc9a7000000000000000000000000000000000000000000000000000000007bffffffffffffffffffffffffffffffffffffffffffffffffffffffff1916827bffffffffffffffffffffffffffffffffffffffffffffffffffffffff1916149050919050565b612ed182826040518060200160405280600081525061379d565b5050565b612ede816137f8565b612f1d576040517f08c379a0000000000000000000000000000000000000000000000000000000008152600401612f1490615545565b60405180910390fd5b50565b600033905090565b816004600083815260200190815260200160002060006101000a81548173ffffffffffffffffffffffffffffffffffffffff021916908373ffffffffffffffffffffffffffffffffffffffff160217905550808273ffffffffffffffffffffffffffffffffffffffff16612f9b836116b0565b73ffffffffffffffffffffffffffffffffffffffff167f8c5be1e5ebec7d5bd14f71427d1e84f3dd0314c0f7b2291e5b200ac8c7c3b92560405160405180910390a45050565b600080612fed836116b0565b90508073ffffffffffffffffffffffffffffffffffffffff168473ffffffffffffffffffffffffffffffffffffffff16148061302f575061302e8185612d36565b5b8061306d57508373ffffffffffffffffffffffffffffffffffffffff1661305584610ba0565b73ffffffffffffffffffffffffffffffffffffffff16145b91505092915050565b8273ffffffffffffffffffffffffffffffffffffffff16613096826116b0565b73ffffffffffffffffffffffffffffffffffffffff16146130ec576040517f08c379a00000000000000000000000000000000000000000000000000000000081526004016130e3906157f7565b60405180910390fd5b600073ffffffffffffffffffffffffffffffffffffffff168273ffffffffffffffffffffffffffffffffffffffff160361315b576040517f08c379a000000000000000000000000000000000000000000000000000000000815260040161315290615889565b60405180910390fd5b6131688383836001613839565b8273ffffffffffffffffffffffffffffffffffffffff16613188826116b0565b73ffffffffffffffffffffffffffffffffffffffff16146131de576040517f08c379a00000000000000000000000000000000000000000000000000000000081526004016131d5906157f7565b60405180910390fd5b6004600082815260200190815260200160002060006101000a81549073ffffffffffffffffffffffffffffffffffffffff02191690556001600360008573ffffffffffffffffffffffffffffffffffffffff1673ffffffffffffffffffffffffffffffffffffffff168152602001908152602001600020600082825403925050819055506001600360008473ffffffffffffffffffffffffffffffffffffffff1673ffffffffffffffffffffffffffffffffffffffff16815260200190815260200160002060008282540192505081905550816002600083815260200190815260200160002060006101000a81548173ffffffffffffffffffffffffffffffffffffffff021916908373ffffffffffffffffffffffffffffffffffffffff160217905550808273ffffffffffffffffffffffffffffffffffffffff168473ffffffffffffffffffffffffffffffffffffffff167fddf252ad1be2c89b69c2b068fc378daa952ba7f163c4a11628f55a4df523b3ef60405160405180910390a461336a838383600161383f565b505050565b60006002600083815260200190815260200160002060009054906101000a900473ffffffffffffffffffffffffffffffffffffffff169050919050565b6133b4612f20565b73ffffffffffffffffffffffffffffffffffffffff166133d2611b89565b73ffffffffffffffffffffffffffffffffffffffff1614613428576040517f08c379a000000000000000000000000000000000000000000000000000000000815260040161341f906158f5565b60405180910390fd5b565b6000600660009054906101000a900473ffffffffffffffffffffffffffffffffffffffff16905081600660006101000a81548173ffffffffffffffffffffffffffffffffffffffff021916908373ffffffffffffffffffffffffffffffffffffffff1602179055508173ffffffffffffffffffffffffffffffffffffffff168173ffffffffffffffffffffffffffffffffffffffff167f8be0079c531659141344cd1fd0a4f28419497f9722a3daafe3b4186f6b6457e060405160405180910390a35050565b8173ffffffffffffffffffffffffffffffffffffffff168373ffffffffffffffffffffffffffffffffffffffff160361355e576040517f08c379a000000000000000000000000000000000000000000000000000000000815260040161355590615961565b60405180910390fd5b80600560008573ffffffffffffffffffffffffffffffffffffffff1673ffffffffffffffffffffffffffffffffffffffff16815260200190815260200160002060008473ffffffffffffffffffffffffffffffffffffffff1673ffffffffffffffffffffffffffffffffffffffff16815260200190815260200160002060006101000a81548160ff0219169083151502179055508173ffffffffffffffffffffffffffffffffffffffff168373ffffffffffffffffffffffffffffffffffffffff167f17307eab39ab6107e8899845ad3d59bd9653f200f220920489ca2b5937696c318360405161364f9190613f5a565b60405180910390a3505050565b613667848484613076565b61367384848484613845565b6136b2576040517f08c379a00000000000000000000000000000000000000000000000000000000081526004016136a9906159f3565b60405180910390fd5b50505050565b606060405180602001604052806000815250905090565b6060600060016136de846139cc565b01905060008167ffffffffffffffff8111156136fd576136fc613f90565b5b6040519080825280601f01601f19166020018201604052801561372f5781602001600182028036833780820191505090505b509050600082602001820190505b600115613792578080600190039150507f3031323334353637383961626364656600000000000000000000000000000000600a86061a8153600a858161378657613785615a13565b5b0494506000850361373d575b819350505050919050565b6137a78383613b1f565b6137b46000848484613845565b6137f3576040517f08c379a00000000000000000000000000000000000000000000000000000000081526004016137ea906159f3565b60405180910390fd5b505050565b60008073ffffffffffffffffffffffffffffffffffffffff1661381a8361336f565b73ffffffffffffffffffffffffffffffffffffffff1614159050919050565b50505050565b50505050565b60006138668473ffffffffffffffffffffffffffffffffffffffff16613d3c565b156139bf578373ffffffffffffffffffffffffffffffffffffffff1663150b7a0261388f612f20565b8786866040518563ffffffff1660e01b81526004016138b19493929190615a97565b6020604051808303816000875af19250505080156138ed57506040513d601f19601f820116820180604052508101906138ea9190615af8565b60015b61396f573d806000811461391d576040519150601f19603f3d011682016040523d82523d6000602084013e613922565b606091505b506000815103613967576040517f08c379a000000000000000000000000000000000000000000000000000000000815260040161395e906159f3565b60405180910390fd5b805181602001fd5b63150b7a0260e01b7bffffffffffffffffffffffffffffffffffffffffffffffffffffffff1916817bffffffffffffffffffffffffffffffffffffffffffffffffffffffff1916149150506139c4565b600190505b949350505050565b600080600090507a184f03e93ff9f4daa797ed6e38ed64bf6a1f0100000000000000008310613a2a577a184f03e93ff9f4daa797ed6e38ed64bf6a1f0100000000000000008381613a2057613a1f615a13565b5b0492506040810190505b6d04ee2d6d415b85acef81000000008310613a67576d04ee2d6d415b85acef81000000008381613a5d57613a5c615a13565b5b0492506020810190505b662386f26fc100008310613a9657662386f26fc100008381613a8c57613a8b615a13565b5b0492506010810190505b6305f5e1008310613abf576305f5e1008381613ab557613ab4615a13565b5b0492506008810190505b6127108310613ae4576127108381613ada57613ad9615a13565b5b0492506004810190505b60648310613b075760648381613afd57613afc615a13565b5b0492506002810190505b600a8310613b16576001810190505b80915050919050565b600073ffffffffffffffffffffffffffffffffffffffff168273ffffffffffffffffffffffffffffffffffffffff1603613b8e576040517f08c379a0000000000000000000000000000000000000000000000000000000008152600401613b8590615b71565b60405180910390fd5b613b97816137f8565b15613bd7576040517f08c379a0000000000000000000000000000000000000000000000000000000008152600401613bce90615bdd565b60405180910390fd5b613be5600083836001613839565b613bee816137f8565b15613c2e576040517f08c379a0000000000000000000000000000000000000000000000000000000008152600401613c2590615bdd565b60405180910390fd5b6001600360008473ffffffffffffffffffffffffffffffffffffffff1673ffffffffffffffffffffffffffffffffffffffff16815260200190815260200160002060008282540192505081905550816002600083815260200190815260200160002060006101000a81548173ffffffffffffffffffffffffffffffffffffffff021916908373ffffffffffffffffffffffffffffffffffffffff160217905550808273ffffffffffffffffffffffffffffffffffffffff16600073ffffffffffffffffffffffffffffffffffffffff167fddf252ad1be2c89b69c2b068fc378daa952ba7f163c4a11628f55a4df523b3ef60405160405180910390a4613d3860008383600161383f565b5050565b6000808273ffffffffffffffffffffffffffffffffffffffff163b119050919050565b828054828255906000526020600020908101928215613dd8579160200282015b82811115613dd75782518260006101000a81548173ffffffffffffffffffffffffffffffffffffffff021916908373ffffffffffffffffffffffffffffffffffffffff16021790555091602001919060010190613d7f565b5b509050613de59190613e89565b5090565b828054828255906000526020600020908101928215613e25579160200282015b82811115613e24578251825591602001919060010190613e09565b5b509050613e329190613e89565b5090565b6040518060e001604052806000815260200160608152602001600073ffffffffffffffffffffffffffffffffffffffff168152602001600081526020016000815260200160608152602001606081525090565b5b80821115613ea2576000816000905550600101613e8a565b5090565b6000604051905090565b600080fd5b600080fd5b60007fffffffff0000000000000000000000000000000000000000000000000000000082169050919050565b613eef81613eba565b8114613efa57600080fd5b50565b600081359050613f0c81613ee6565b92915050565b600060208284031215613f2857613f27613eb0565b5b6000613f3684828501613efd565b91505092915050565b60008115159050919050565b613f5481613f3f565b82525050565b6000602082019050613f6f6000830184613f4b565b92915050565b600080fd5b600080fd5b6000601f19601f8301169050919050565b7f4e487b7100000000000000000000000000000000000000000000000000000000600052604160045260246000fd5b613fc882613f7f565b810181811067ffffffffffffffff82111715613fe757613fe6613f90565b5b80604052505050565b6000613ffa613ea6565b90506140068282613fbf565b919050565b600067ffffffffffffffff82111561402657614025613f90565b5b61402f82613f7f565b9050602081019050919050565b82818337600083830152505050565b600061405e6140598461400b565b613ff0565b90508281526020810184848401111561407a57614079613f7a565b5b61408584828561403c565b509392505050565b600082601f8301126140a2576140a1613f75565b5b81356140b284826020860161404b565b91505092915050565b6000819050919050565b6140ce816140bb565b81146140d957600080fd5b50565b6000813590506140eb816140c5565b92915050565b60008060006060848603121561410a57614109613eb0565b5b600084013567ffffffffffffffff81111561412857614127613eb5565b5b6141348682870161408d565b9350506020614145868287016140dc565b925050604084013567ffffffffffffffff81111561416657614165613eb5565b5b6141728682870161408d565b9150509250925092565b600081519050919050565b600082825260208201905092915050565b60005b838110156141b657808201518184015260208101905061419b565b60008484015250505050565b60006141cd8261417c565b6141d78185614187565b93506141e7818560208601614198565b6141f081613f7f565b840191505092915050565b6000602082019050818103600083015261421581846141c2565b905092915050565b60006020828403121561423357614232613eb0565b5b6000614241848285016140dc565b91505092915050565b600073ffffffffffffffffffffffffffffffffffffffff82169050919050565b60006142758261424a565b9050919050565b6142858161426a565b82525050565b60006020820190506142a0600083018461427c565b92915050565b6142af8161426a565b81146142ba57600080fd5b50565b6000813590506142cc816142a6565b92915050565b600080604083850312156142e9576142e8613eb0565b5b60006142f7858286016142bd565b9250506020614308858286016140dc565b9150509250929050565b60006020828403121561432857614327613eb0565b5b600082013567ffffffffffffffff81111561434657614345613eb5565b5b6143528482850161408d565b91505092915050565b600081519050919050565b600082825260208201905092915050565b6000819050602082019050919050565b614390816140bb565b82525050565b60006143a28383614387565b60208301905092915050565b6000602082019050919050565b60006143c68261435b565b6143d08185614366565b93506143db83614377565b8060005b8381101561440c5781516143f38882614396565b97506143fe836143ae565b9250506001810190506143df565b5085935050505092915050565b6000602082019050818103600083015261443381846143bb565b905092915050565b60008060006060848603121561445457614453613eb0565b5b6000614462868287016142bd565b9350506020614473868287016142bd565b9250506040614484868287016140dc565b9150509250925092565b600067ffffffffffffffff8211156144a9576144a8613f90565b5b602082029050602081019050919050565b600080fd5b600080fd5b600080fd5b600067ffffffffffffffff8211156144e4576144e3613f90565b5b602082029050602081019050919050565b6000614508614503846144c9565b613ff0565b9050808382526020820190506020840283018581111561452b5761452a6144ba565b5b835b81811015614554578061454088826140dc565b84526020840193505060208101905061452d565b5050509392505050565b600082601f83011261457357614572613f75565b5b81356145838482602086016144f5565b91505092915050565b6000606082840312156145a2576145a16144bf565b5b6145ac6060613ff0565b9050600082013567ffffffffffffffff8111156145cc576145cb6144c4565b5b6145d88482850161408d565b60008301525060206145ec848285016142bd565b602083015250604082013567ffffffffffffffff8111156146105761460f6144c4565b5b61461c8482850161455e565b60408301525092915050565b600061463b6146368461448e565b613ff0565b9050808382526020820190506020840283018581111561465e5761465d6144ba565b5b835b818110156146a557803567ffffffffffffffff81111561468357614682613f75565b5b808601614690898261458c565b85526020850194505050602081019050614660565b5050509392505050565b600082601f8301126146c4576146c3613f75565b5b81356146d4848260208601614628565b91505092915050565b6000602082840312156146f3576146f2613eb0565b5b600082013567ffffffffffffffff81111561471157614710613eb5565b5b61471d848285016146af565b91505092915050565b60006020828403121561473c5761473b613eb0565b5b600061474a848285016142bd565b91505092915050565b61475c816140bb565b82525050565b60006020820190506147776000830184614753565b92915050565b6000610140820190508181036000830152614798818d6141c2565b90506147a7602083018c614753565b6147b4604083018b614753565b6147c1606083018a614753565b6147ce608083018961427c565b6147db60a083018861427c565b6147e860c0830187613f4b565b6147f560e0830186613f4b565b614803610100830185613f4b565b614811610120830184613f4b565b9b9a5050505050505050505050565b600060a082019050614835600083018861427c565b6148426020830187614753565b61484f6040830186614753565b61485c6060830185614753565b6148696080830184613f4b565b9695505050505050565b61487c81613f3f565b811461488757600080fd5b50565b60008135905061489981614873565b92915050565b600080604083850312156148b6576148b5613eb0565b5b60006148c4858286016142bd565b92505060206148d58582860161488a565b9150509250929050565b600067ffffffffffffffff8211156148fa576148f9613f90565b5b61490382613f7f565b9050602081019050919050565b600061492361491e846148df565b613ff0565b90508281526020810184848401111561493f5761493e613f7a565b5b61494a84828561403c565b509392505050565b600082601f83011261496757614966613f75565b5b8135614977848260208601614910565b91505092915050565b6000806000806080858703121561499a57614999613eb0565b5b60006149a8878288016142bd565b94505060206149b9878288016142bd565b93505060406149ca878288016140dc565b925050606085013567ffffffffffffffff8111156149eb576149ea613eb5565b5b6149f787828801614952565b91505092959194509250565b600081519050919050565b600082825260208201905092915050565b6000819050602082019050919050565b600082825260208201905092915050565b6000614a4b8261417c565b614a558185614a2f565b9350614a65818560208601614198565b614a6e81613f7f565b840191505092915050565b614a828161426a565b82525050565b600081519050919050565b600082825260208201905092915050565b6000819050602082019050919050565b6000614ac08383614a79565b60208301905092915050565b6000602082019050919050565b6000614ae482614a88565b614aee8185614a93565b9350614af983614aa4565b8060005b83811015614b2a578151614b118882614ab4565b9750614b1c83614acc565b925050600181019050614afd565b5085935050505092915050565b600060e083016000830151614b4f6000860182614387565b5060208301518482036020860152614b678282614a40565b9150506040830151614b7c6040860182614a79565b506060830151614b8f6060860182614387565b506080830151614ba26080860182614387565b5060a083015184820360a0860152614bba8282614a40565b91505060c083015184820360c0860152614bd48282614ad9565b9150508091505092915050565b6000614bed8383614b37565b905092915050565b6000602082019050919050565b6000614c0d82614a03565b614c178185614a0e565b935083602082028501614c2985614a1f565b8060005b85811015614c655784840389528151614c468582614be1565b9450614c5183614bf5565b925060208a01995050600181019050614c2d565b50829750879550505050505092915050565b60006020820190508181036000830152614c918184614c02565b905092915050565b60008060408385031215614cb057614caf613eb0565b5b6000614cbe858286016140dc565b9250506020614ccf8582860161488a565b9150509250929050565b600080600060608486031215614cf257614cf1613eb0565b5b6000614d00868287016142bd565b935050602084013567ffffffffffffffff811115614d2157614d20613eb5565b5b614d2d8682870161408d565b9250506040614d3e868287016140dc565b9150509250925092565b60008060408385031215614d5f57614d5e613eb0565b5b6000614d6d858286016142bd565b9250506020614d7e858286016142bd565b9150509250929050565b7f596f752061726520626c6f636b656420666f726d206d696e74696e6700000000600082015250565b6000614dbe601c83614187565b9150614dc982614d88565b602082019050919050565b60006020820190508181036000830152614ded81614db1565b9050919050565b7f4e616d652063616e277420626520656d70747900000000000000000000000000600082015250565b6000614e2a601383614187565b9150614e3582614df4565b602082019050919050565b60006020820190508181036000830152614e5981614e1d565b9050919050565b7f446174612063616e277420626520656d70747900000000000000000000000000600082015250565b6000614e96601383614187565b9150614ea182614e60565b602082019050919050565b60006020820190508181036000830152614ec581614e89565b9050919050565b7f4e487b7100000000000000000000000000000000000000000000000000000000600052602260045260246000fd5b60006002820490506001821680614f1357607f821691505b602082108103614f2657614f25614ecc565b5b50919050565b60008190508160005260206000209050919050565b60006020601f8301049050919050565b600082821b905092915050565b600060088302614f8e7fffffffffffffffffffffffffffffffffffffffffffffffffffffffffffffffff82614f51565b614f988683614f51565b95508019841693508086168417925050509392505050565b6000819050919050565b6000614fd5614fd0614fcb846140bb565b614fb0565b6140bb565b9050919050565b6000819050919050565b614fef83614fba565b615003614ffb82614fdc565b848454614f5e565b825550505050565b600090565b61501861500b565b615023818484614fe6565b505050565b5b818110156150475761503c600082615010565b600181019050615029565b5050565b601f82111561508c5761505d81614f2c565b61506684614f41565b81016020851015615075578190505b61508961508185614f41565b830182615028565b50505b505050565b600082821c905092915050565b60006150af60001984600802615091565b1980831691505092915050565b60006150c8838361509e565b9150826002028217905092915050565b6150e18261417c565b67ffffffffffffffff8111156150fa576150f9613f90565b5b6151048254614efb565b61510f82828561504b565b600060209050601f8311600181146151425760008415615130578287015190505b61513a85826150bc565b8655506151a2565b601f19841661515086614f2c565b60005b8281101561517857848901518255600182019150602085019450602081019050615153565b868310156151955784890151615191601f89168261509e565b8355505b6001600288020188555050505b505050505050565b600081905092915050565b60006151c08261417c565b6151ca81856151aa565b93506151da818560208601614198565b80840191505092915050565b60006151f282846151b5565b915081905092915050565b7f4e487b7100000000000000000000000000000000000000000000000000000000600052601160045260246000fd5b6000615237826140bb565b91507fffffffffffffffffffffffffffffffffffffffffffffffffffffffffffffffff8203615269576152686151fd565b5b600182019050919050565b7f4552433732313a20617070726f76616c20746f2063757272656e74206f776e6560008201527f7200000000000000000000000000000000000000000000000000000000000000602082015250565b60006152d0602183614187565b91506152db82615274565b604082019050919050565b600060208201905081810360008301526152ff816152c3565b9050919050565b7f4552433732313a20617070726f76652063616c6c6572206973206e6f7420746f60008201527f6b656e206f776e6572206f7220617070726f76656420666f7220616c6c000000602082015250565b6000615362603d83614187565b915061536d82615306565b604082019050919050565b6000602082019050818103600083015261539181615355565b9050919050565b7f4552433732313a2063616c6c6572206973206e6f7420746f6b656e206f776e6560008201527f72206f7220617070726f76656400000000000000000000000000000000000000602082015250565b60006153f4602d83614187565b91506153ff82615398565b604082019050919050565b60006020820190508181036000830152615423816153e7565b9050919050565b7f596f752061726520626c6f636b656420666f726d20627579696e67206e667473600082015250565b6000615460602083614187565b915061546b8261542a565b602082019050919050565b6000602082019050818103600083015261548f81615453565b9050919050565b7f4e487b7100000000000000000000000000000000000000000000000000000000600052603260045260246000fd5b60006154d0826140bb565b91506154db836140bb565b92508282019050808211156154f3576154f26151fd565b5b92915050565b7f4552433732313a20696e76616c696420746f6b656e2049440000000000000000600082015250565b600061552f601883614187565b915061553a826154f9565b602082019050919050565b6000602082019050818103600083015261555e81615522565b9050919050565b7f4552433732313a2061646472657373207a65726f206973206e6f74206120766160008201527f6c6964206f776e65720000000000000000000000000000000000000000000000602082015250565b60006155c1602983614187565b91506155cc82615565565b604082019050919050565b600060208201905081810360008301526155f0816155b4565b9050919050565b7f54686973207265717565737420616c6c72656164792072656a65637465640000600082015250565b600061562d601e83614187565b9150615638826155f7565b602082019050919050565b6000602082019050818103600083015261565c81615620565b9050919050565b7f54686973207265717565737420616c6c726561647920646f6e65000000000000600082015250565b6000615699601a83614187565b91506156a482615663565b602082019050919050565b600060208201905081810360008301526156c88161568c565b9050919050565b60006156db82856151b5565b91506156e782846151b5565b91508190509392505050565b7f4f776e61626c653a206e6577206f776e657220697320746865207a65726f206160008201527f6464726573730000000000000000000000000000000000000000000000000000602082015250565b600061574f602683614187565b915061575a826156f3565b604082019050919050565b6000602082019050818103600083015261577e81615742565b9050919050565b7f4552433732313a207472616e736665722066726f6d20696e636f72726563742060008201527f6f776e6572000000000000000000000000000000000000000000000000000000602082015250565b60006157e1602583614187565b91506157ec82615785565b604082019050919050565b60006020820190508181036000830152615810816157d4565b9050919050565b7f4552433732313a207472616e7366657220746f20746865207a65726f2061646460008201527f7265737300000000000000000000000000000000000000000000000000000000602082015250565b6000615873602483614187565b915061587e82615817565b604082019050919050565b600060208201905081810360008301526158a281615866565b9050919050565b7f4f776e61626c653a2063616c6c6572206973206e6f7420746865206f776e6572600082015250565b60006158df602083614187565b91506158ea826158a9565b602082019050919050565b6000602082019050818103600083015261590e816158d2565b9050919050565b7f4552433732313a20617070726f766520746f2063616c6c657200000000000000600082015250565b600061594b601983614187565b915061595682615915565b602082019050919050565b6000602082019050818103600083015261597a8161593e565b9050919050565b7f4552433732313a207472616e7366657220746f206e6f6e20455243373231526560008201527f63656976657220696d706c656d656e7465720000000000000000000000000000602082015250565b60006159dd603283614187565b91506159e882615981565b604082019050919050565b60006020820190508181036000830152615a0c816159d0565b9050919050565b7f4e487b7100000000000000000000000000000000000000000000000000000000600052601260045260246000fd5b600081519050919050565b600082825260208201905092915050565b6000615a6982615a42565b615a738185615a4d565b9350615a83818560208601614198565b615a8c81613f7f565b840191505092915050565b6000608082019050615aac600083018761427c565b615ab9602083018661427c565b615ac66040830185614753565b8181036060830152615ad88184615a5e565b905095945050505050565b600081519050615af281613ee6565b92915050565b600060208284031215615b0e57615b0d613eb0565b5b6000615b1c84828501615ae3565b91505092915050565b7f4552433732313a206d696e7420746f20746865207a65726f2061646472657373600082015250565b6000615b5b602083614187565b9150615b6682615b25565b602082019050919050565b60006020820190508181036000830152615b8a81615b4e565b9050919050565b7f4552433732313a20746f6b656e20616c7265616479206d696e74656400000000600082015250565b6000615bc7601c83614187565b9150615bd282615b91565b602082019050919050565b60006020820190508181036000830152615bf681615bba565b905091905056fea26469706673582212208a74096b66432ee78217daa931f9c477e1ad373d318054ae23bc7e76af7d189f64736f6c63430008120033",
  "immutableReferences": {},
  "source": "// SPDX-License-Identifier: MIT\r\npragma solidity ^0.8.0;\r\nimport \"@openzeppelin/contracts/token/ERC721/ERC721.sol\";\r\nimport \"@openzeppelin/contracts/access/Ownable.sol\";\r\n\r\ncontract MedicalDataNFT is ERC721, Ownable {\r\n    uint256 public _NftsCounter;\r\n    uint256 public _RequestsCounter;\r\n    struct User {\r\n        address wallet;\r\n        uint256 requests;\r\n        uint256 nft;\r\n        uint256 collection;\r\n        bool enable;\r\n    }\r\n    struct NFT {\r\n        uint256 id;\r\n        string name;\r\n        address owner;\r\n        uint256 date;\r\n        uint256 price;\r\n        string data;\r\n        address[] buyers;\r\n    }\r\n    struct Request {\r\n        string collection;\r\n        uint256 id;\r\n        uint256[] ids;\r\n        uint256 date;\r\n        uint256 price;\r\n        address buyer;\r\n        address seller;\r\n        bool isSeenBySeller;\r\n        bool isAcceptedBySeller;\r\n        bool isSeenByBuyer;\r\n        bool isPayedByBuyer;\r\n    }\r\n    struct LabRequest {\r\n        string name;\r\n        address owner;\r\n        uint256[] nfts;\r\n    }\r\n    mapping(uint256 => NFT) private NFTs;\r\n    mapping(address => User) public Users;\r\n    mapping(address => uint256[]) public UsersNfts;\r\n    mapping(address => mapping(uint256 => Request)) public Requests;\r\n    mapping(address => mapping(string => uint256[])) public UsersCollections;\r\n\r\n    constructor() ERC721(\"MedicalNFT\", \"MED\") {}\r\n\r\n    function getUserIds() public view returns (uint256[] memory) {\r\n        return UsersNfts[msg.sender];\r\n    }\r\n\r\n    function getUserCollactions(\r\n        string memory collection\r\n    ) public view returns (uint256[] memory) {\r\n        return UsersCollections[msg.sender][collection];\r\n    }\r\n\r\n    function toggleBlock(address _patient) public onlyOwner {\r\n        Users[_patient].enable = !Users[_patient].enable;\r\n    }\r\n\r\n    function addUser() public {\r\n        User memory data = User({\r\n            wallet: msg.sender,\r\n            requests: 0,\r\n            nft: 0,\r\n            collection: 0,\r\n            enable: true\r\n        });\r\n        if (Users[msg.sender].enable || !(Users[msg.sender].enable)) {} else {\r\n            Users[msg.sender] = data;\r\n        }\r\n    }\r\n\r\n    function mint(\r\n        string memory name,\r\n        uint256 price,\r\n        string memory data\r\n    ) public {\r\n        require(Users[msg.sender].enable, \"You are blocked form minting\");\r\n        require(bytes(name).length > 0, \"Name can't be empty\");\r\n        require(bytes(data).length > 0, \"Data can't be empty\");\r\n\r\n        _safeMint(msg.sender, _NftsCounter);\r\n\r\n        NFT memory dataStruct = NFT({\r\n            id: _NftsCounter,\r\n            name: name,\r\n            owner: msg.sender,\r\n            date: block.timestamp,\r\n            price: price,\r\n            data: data,\r\n            buyers: new address[](0)\r\n        });\r\n        // Create new nft and add it to the list of the nfts.\r\n        NFTs[_NftsCounter] = dataStruct;\r\n        // Add the nft to the list of the nfts for this patient.\r\n        UsersNfts[msg.sender].push(_NftsCounter);\r\n        // add the nft to the collection nft for the user\r\n        UsersCollections[msg.sender][name].push(_NftsCounter);\r\n        //increment the nb of nfts for the patient\r\n        Users[msg.sender].nft++;\r\n        //increment the count of nfts\r\n        _NftsCounter++;\r\n    }\r\n\r\n    function addBuyRequest(LabRequest[] memory requests) public {\r\n        require(Users[msg.sender].enable, \"You are blocked form buying nfts\");\r\n        for (uint256 i = 0; i < requests.length; i++) {\r\n            uint256 buyerCounter = Users[msg.sender].requests;\r\n            uint256 sellerCounter = Users[msg.sender].requests;\r\n            uint256 total;\r\n            for (uint256 j = 0; j < requests[i].nfts.length; j++) {\r\n                total = total + NFTs[requests[i].nfts[j]].price;\r\n            }\r\n            Request memory dataStruct = Request({\r\n                collection: requests[i].name,\r\n                id: _RequestsCounter,\r\n                ids: requests[i].nfts,\r\n                date: block.timestamp,\r\n                buyer: msg.sender,\r\n                price: total,\r\n                seller: requests[i].owner,\r\n                isSeenBySeller: false,\r\n                isAcceptedBySeller: false,\r\n                isSeenByBuyer: false,\r\n                isPayedByBuyer: false\r\n            });\r\n            Requests[msg.sender][buyerCounter] = dataStruct;\r\n            Requests[requests[i].owner][sellerCounter] = dataStruct;\r\n            Users[msg.sender].requests++;\r\n            _RequestsCounter++;\r\n        }\r\n    }\r\n\r\n    function approveBuyRequest(uint256 _id, bool accepted) public {\r\n        require(\r\n            Requests[msg.sender][_id].isAcceptedBySeller != true,\r\n            \"This request allready done\"\r\n        );\r\n        address _buyer = Requests[msg.sender][_id].buyer;\r\n        Requests[msg.sender][_id].isSeenBySeller = true;\r\n        Requests[msg.sender][_id].isAcceptedBySeller = accepted;\r\n        Requests[_buyer][_id].isSeenBySeller = true;\r\n        Requests[_buyer][_id].isAcceptedBySeller = accepted;\r\n    }\r\n\r\n    function acceptPayment(uint256 _id) public {\r\n        require(\r\n            Requests[msg.sender][_id].isAcceptedBySeller == true,\r\n            \"This request allready rejected\"\r\n        );\r\n        //get the seller address\r\n        address _seller = Requests[msg.sender][_id].seller;\r\n        //get the buyer category\r\n        string memory collection = Requests[msg.sender][_id].collection;\r\n        //send the payment amount to the seller\r\n        payable(_seller).transfer(Requests[msg.sender][_id].price);\r\n\r\n        // set the filds to true for the seller and the buyer\r\n        Requests[msg.sender][_id].isSeenByBuyer = true;\r\n        Requests[msg.sender][_id].isPayedByBuyer = true;\r\n        Requests[_seller][_id].isSeenByBuyer = true;\r\n        Requests[_seller][_id].isPayedByBuyer = true;\r\n        uint256[] memory list = Requests[msg.sender][_id].ids;\r\n        for (uint256 i = 0; i < list.length; i++) {\r\n            // add the nfts to the collection of the nfts\r\n            UsersCollections[msg.sender][collection].push(list[i]);\r\n            UsersNfts[msg.sender].push(list[i]);\r\n            Users[msg.sender].nft++;\r\n            NFTs[list[i]].buyers.push(msg.sender);\r\n        }\r\n    }\r\n\r\n    function rejectPayment(uint256 _id) public {\r\n        require(\r\n            Requests[msg.sender][_id].isAcceptedBySeller == true,\r\n            \"This request allready rejected\"\r\n        );\r\n        address _seller = Requests[msg.sender][_id].seller;\r\n        Requests[msg.sender][_id].isSeenByBuyer = true;\r\n        Requests[msg.sender][_id].isPayedByBuyer = false;\r\n        Requests[_seller][_id].isSeenByBuyer = true;\r\n        Requests[_seller][_id].isPayedByBuyer = false;\r\n    }\r\n\r\n    function getNftData() public view returns (NFT[] memory) {\r\n        NFT[] memory result = new NFT[](_NftsCounter);\r\n        for (uint256 i = 0; i < _NftsCounter; i++) {\r\n            NFT memory data = NFT({\r\n                id: NFTs[i].id,\r\n                name: NFTs[i].name,\r\n                owner: NFTs[i].owner,\r\n                date: NFTs[i].date,\r\n                price: NFTs[i].price,\r\n                data: NFTs[i].data,\r\n                buyers: NFTs[i].buyers\r\n            });\r\n            result[i] = data;\r\n        }\r\n        return result;\r\n    }\r\n}\r\n",
  "sourcePath": "D:\\Marketpalce\\contracts\\MedicalDataNFT.sol",
  "compiler": {
    "name": "solc",
    "version": "0.8.18+commit.87f61d96.Emscripten.clang"
  },
  "schemaVersion": "3.4.12",
  "updatedAt": "2023-05-07T14:56:59.025Z",
  "networkType": "ethereum",
  "devdoc": {
    "events": {
      "Approval(address,address,uint256)": {
        "details": "Emitted when `owner` enables `approved` to manage the `tokenId` token."
      },
      "ApprovalForAll(address,address,bool)": {
        "details": "Emitted when `owner` enables or disables (`approved`) `operator` to manage all of its assets."
      },
      "Transfer(address,address,uint256)": {
        "details": "Emitted when `tokenId` token is transferred from `from` to `to`."
      }
    },
    "kind": "dev",
    "methods": {
      "approve(address,uint256)": {
        "details": "See {IERC721-approve}."
      },
      "balanceOf(address)": {
        "details": "See {IERC721-balanceOf}."
      },
      "getApproved(uint256)": {
        "details": "See {IERC721-getApproved}."
      },
      "isApprovedForAll(address,address)": {
        "details": "See {IERC721-isApprovedForAll}."
      },
      "name()": {
        "details": "See {IERC721Metadata-name}."
      },
      "owner()": {
        "details": "Returns the address of the current owner."
      },
      "ownerOf(uint256)": {
        "details": "See {IERC721-ownerOf}."
      },
      "renounceOwnership()": {
        "details": "Leaves the contract without owner. It will not be possible to call `onlyOwner` functions anymore. Can only be called by the current owner. NOTE: Renouncing ownership will leave the contract without an owner, thereby removing any functionality that is only available to the owner."
      },
      "safeTransferFrom(address,address,uint256)": {
        "details": "See {IERC721-safeTransferFrom}."
      },
      "safeTransferFrom(address,address,uint256,bytes)": {
        "details": "See {IERC721-safeTransferFrom}."
      },
      "setApprovalForAll(address,bool)": {
        "details": "See {IERC721-setApprovalForAll}."
      },
      "supportsInterface(bytes4)": {
        "details": "See {IERC165-supportsInterface}."
      },
      "symbol()": {
        "details": "See {IERC721Metadata-symbol}."
      },
      "tokenURI(uint256)": {
        "details": "See {IERC721Metadata-tokenURI}."
      },
      "transferFrom(address,address,uint256)": {
        "details": "See {IERC721-transferFrom}."
      },
      "transferOwnership(address)": {
        "details": "Transfers ownership of the contract to a new account (`newOwner`). Can only be called by the current owner."
      }
    },
    "version": 1
  },
  "userdoc": {
    "kind": "user",
    "methods": {},
    "version": 1
  }
}