{
  "contractName": "MedicalDataNFT",
  "abi": [
    {
      "inputs": [],
      "stateMutability": "nonpayable",
      "type": "constructor"
    },
    {
      "anonymous": false,
      "inputs": [
        {
          "indexed": true,
          "internalType": "address",
          "name": "owner",
          "type": "address"
        },
        {
          "indexed": true,
          "internalType": "address",
          "name": "approved",
          "type": "address"
        },
        {
          "indexed": true,
          "internalType": "uint256",
          "name": "tokenId",
          "type": "uint256"
        }
      ],
      "name": "Approval",
      "type": "event"
    },
    {
      "anonymous": false,
      "inputs": [
        {
          "indexed": true,
          "internalType": "address",
          "name": "owner",
          "type": "address"
        },
        {
          "indexed": true,
          "internalType": "address",
          "name": "operator",
          "type": "address"
        },
        {
          "indexed": false,
          "internalType": "bool",
          "name": "approved",
          "type": "bool"
        }
      ],
      "name": "ApprovalForAll",
      "type": "event"
    },
    {
      "anonymous": false,
      "inputs": [
        {
          "indexed": true,
          "internalType": "address",
          "name": "previousOwner",
          "type": "address"
        },
        {
          "indexed": true,
          "internalType": "address",
          "name": "newOwner",
          "type": "address"
        }
      ],
      "name": "OwnershipTransferred",
      "type": "event"
    },
    {
      "anonymous": false,
      "inputs": [
        {
          "indexed": true,
          "internalType": "address",
          "name": "from",
          "type": "address"
        },
        {
          "indexed": true,
          "internalType": "address",
          "name": "to",
          "type": "address"
        },
        {
          "indexed": true,
          "internalType": "uint256",
          "name": "tokenId",
          "type": "uint256"
        }
      ],
      "name": "Transfer",
      "type": "event"
    },
    {
      "inputs": [
        {
          "internalType": "address",
          "name": "",
          "type": "address"
        },
        {
          "internalType": "uint256",
          "name": "",
          "type": "uint256"
        }
      ],
      "name": "PatientNfts",
      "outputs": [
        {
          "internalType": "uint256",
          "name": "",
          "type": "uint256"
        }
      ],
      "stateMutability": "view",
      "type": "function",
      "constant": true
    },
    {
      "inputs": [],
      "name": "_NftsCounter",
      "outputs": [
        {
          "internalType": "uint256",
          "name": "",
          "type": "uint256"
        }
      ],
      "stateMutability": "view",
      "type": "function",
      "constant": true
    },
    {
      "inputs": [
        {
          "internalType": "address",
          "name": "to",
          "type": "address"
        },
        {
          "internalType": "uint256",
          "name": "tokenId",
          "type": "uint256"
        }
      ],
      "name": "approve",
      "outputs": [],
      "stateMutability": "nonpayable",
      "type": "function"
    },
    {
      "inputs": [
        {
          "internalType": "address",
          "name": "owner",
          "type": "address"
        }
      ],
      "name": "balanceOf",
      "outputs": [
        {
          "internalType": "uint256",
          "name": "",
          "type": "uint256"
        }
      ],
      "stateMutability": "view",
      "type": "function",
      "constant": true
    },
    {
      "inputs": [
        {
          "internalType": "uint256",
          "name": "tokenId",
          "type": "uint256"
        }
      ],
      "name": "getApproved",
      "outputs": [
        {
          "internalType": "address",
          "name": "",
          "type": "address"
        }
      ],
      "stateMutability": "view",
      "type": "function",
      "constant": true
    },
    {
      "inputs": [
        {
          "internalType": "address",
          "name": "owner",
          "type": "address"
        },
        {
          "internalType": "address",
          "name": "operator",
          "type": "address"
        }
      ],
      "name": "isApprovedForAll",
      "outputs": [
        {
          "internalType": "bool",
          "name": "",
          "type": "bool"
        }
      ],
      "stateMutability": "view",
      "type": "function",
      "constant": true
    },
    {
      "inputs": [],
      "name": "name",
      "outputs": [
        {
          "internalType": "string",
          "name": "",
          "type": "string"
        }
      ],
      "stateMutability": "view",
      "type": "function",
      "constant": true
    },
    {
      "inputs": [],
      "name": "owner",
      "outputs": [
        {
          "internalType": "address",
          "name": "",
          "type": "address"
        }
      ],
      "stateMutability": "view",
      "type": "function",
      "constant": true
    },
    {
      "inputs": [
        {
          "internalType": "uint256",
          "name": "tokenId",
          "type": "uint256"
        }
      ],
      "name": "ownerOf",
      "outputs": [
        {
          "internalType": "address",
          "name": "",
          "type": "address"
        }
      ],
      "stateMutability": "view",
      "type": "function",
      "constant": true
    },
    {
      "inputs": [
        {
          "internalType": "address",
          "name": "",
          "type": "address"
        }
      ],
      "name": "patients",
      "outputs": [
        {
          "internalType": "bool",
          "name": "",
          "type": "bool"
        }
      ],
      "stateMutability": "view",
      "type": "function",
      "constant": true
    },
    {
      "inputs": [],
      "name": "renounceOwnership",
      "outputs": [],
      "stateMutability": "nonpayable",
      "type": "function"
    },
    {
      "inputs": [
        {
          "internalType": "address",
          "name": "from",
          "type": "address"
        },
        {
          "internalType": "address",
          "name": "to",
          "type": "address"
        },
        {
          "internalType": "uint256",
          "name": "tokenId",
          "type": "uint256"
        }
      ],
      "name": "safeTransferFrom",
      "outputs": [],
      "stateMutability": "nonpayable",
      "type": "function"
    },
    {
      "inputs": [
        {
          "internalType": "address",
          "name": "from",
          "type": "address"
        },
        {
          "internalType": "address",
          "name": "to",
          "type": "address"
        },
        {
          "internalType": "uint256",
          "name": "tokenId",
          "type": "uint256"
        },
        {
          "internalType": "bytes",
          "name": "data",
          "type": "bytes"
        }
      ],
      "name": "safeTransferFrom",
      "outputs": [],
      "stateMutability": "nonpayable",
      "type": "function"
    },
    {
      "inputs": [
        {
          "internalType": "address",
          "name": "operator",
          "type": "address"
        },
        {
          "internalType": "bool",
          "name": "approved",
          "type": "bool"
        }
      ],
      "name": "setApprovalForAll",
      "outputs": [],
      "stateMutability": "nonpayable",
      "type": "function"
    },
    {
      "inputs": [
        {
          "internalType": "bytes4",
          "name": "interfaceId",
          "type": "bytes4"
        }
      ],
      "name": "supportsInterface",
      "outputs": [
        {
          "internalType": "bool",
          "name": "",
          "type": "bool"
        }
      ],
      "stateMutability": "view",
      "type": "function",
      "constant": true
    },
    {
      "inputs": [],
      "name": "symbol",
      "outputs": [
        {
          "internalType": "string",
          "name": "",
          "type": "string"
        }
      ],
      "stateMutability": "view",
      "type": "function",
      "constant": true
    },
    {
      "inputs": [
        {
          "internalType": "uint256",
          "name": "tokenId",
          "type": "uint256"
        }
      ],
      "name": "tokenURI",
      "outputs": [
        {
          "internalType": "string",
          "name": "",
          "type": "string"
        }
      ],
      "stateMutability": "view",
      "type": "function",
      "constant": true
    },
    {
      "inputs": [
        {
          "internalType": "address",
          "name": "from",
          "type": "address"
        },
        {
          "internalType": "address",
          "name": "to",
          "type": "address"
        },
        {
          "internalType": "uint256",
          "name": "tokenId",
          "type": "uint256"
        }
      ],
      "name": "transferFrom",
      "outputs": [],
      "stateMutability": "nonpayable",
      "type": "function"
    },
    {
      "inputs": [
        {
          "internalType": "address",
          "name": "newOwner",
          "type": "address"
        }
      ],
      "name": "transferOwnership",
      "outputs": [],
      "stateMutability": "nonpayable",
      "type": "function"
    },
    {
      "inputs": [
        {
          "internalType": "address",
          "name": "_patient",
          "type": "address"
        }
      ],
      "name": "toggleTrue",
      "outputs": [],
      "stateMutability": "nonpayable",
      "type": "function"
    },
    {
      "inputs": [
        {
          "internalType": "address",
          "name": "_patient",
          "type": "address"
        }
      ],
      "name": "toggleFalse",
      "outputs": [],
      "stateMutability": "nonpayable",
      "type": "function"
    },
    {
      "inputs": [
        {
          "internalType": "string",
          "name": "name",
          "type": "string"
        },
        {
          "internalType": "uint256",
          "name": "price",
          "type": "uint256"
        },
        {
          "internalType": "string",
          "name": "data",
          "type": "string"
        },
        {
          "internalType": "uint256",
          "name": "birthday",
          "type": "uint256"
        },
        {
          "internalType": "string",
          "name": "sexe",
          "type": "string"
        }
      ],
      "name": "mint",
      "outputs": [],
      "stateMutability": "nonpayable",
      "type": "function"
    },
    {
      "inputs": [
        {
          "internalType": "uint256[]",
          "name": "ids",
          "type": "uint256[]"
        }
      ],
      "name": "getNfts",
      "outputs": [
        {
          "components": [
            {
              "internalType": "uint256",
              "name": "id",
              "type": "uint256"
            },
            {
              "internalType": "string",
              "name": "name",
              "type": "string"
            },
            {
              "internalType": "address",
              "name": "owner",
              "type": "address"
            },
            {
              "internalType": "uint256",
              "name": "date",
              "type": "uint256"
            },
            {
              "internalType": "uint256",
              "name": "price",
              "type": "uint256"
            },
            {
              "internalType": "string",
              "name": "data",
              "type": "string"
            },
            {
              "internalType": "uint256",
              "name": "birthday",
              "type": "uint256"
            },
            {
              "internalType": "string",
              "name": "sexe",
              "type": "string"
            }
          ],
          "internalType": "struct MedicalDataNFT.NFT[]",
          "name": "",
          "type": "tuple[]"
        }
      ],
      "stateMutability": "view",
      "type": "function",
      "constant": true
    },
    {
      "inputs": [],
      "name": "getAllNfts",
      "outputs": [
        {
          "components": [
            {
              "internalType": "uint256",
              "name": "id",
              "type": "uint256"
            },
            {
              "internalType": "string",
              "name": "name",
              "type": "string"
            },
            {
              "internalType": "address",
              "name": "owner",
              "type": "address"
            },
            {
              "internalType": "uint256",
              "name": "date",
              "type": "uint256"
            },
            {
              "internalType": "uint256",
              "name": "price",
              "type": "uint256"
            },
            {
              "internalType": "string",
              "name": "data",
              "type": "string"
            },
            {
              "internalType": "uint256",
              "name": "birthday",
              "type": "uint256"
            },
            {
              "internalType": "string",
              "name": "sexe",
              "type": "string"
            }
          ],
          "internalType": "struct MedicalDataNFT.NFT[]",
          "name": "",
          "type": "tuple[]"
        }
      ],
      "stateMutability": "view",
      "type": "function",
      "constant": true
    },
    {
      "inputs": [],
      "name": "getPatientNftsList",
      "outputs": [
        {
          "components": [
            {
              "internalType": "uint256",
              "name": "id",
              "type": "uint256"
            },
            {
              "internalType": "string",
              "name": "name",
              "type": "string"
            },
            {
              "internalType": "address",
              "name": "owner",
              "type": "address"
            },
            {
              "internalType": "uint256",
              "name": "date",
              "type": "uint256"
            },
            {
              "internalType": "uint256",
              "name": "price",
              "type": "uint256"
            },
            {
              "internalType": "string",
              "name": "data",
              "type": "string"
            },
            {
              "internalType": "uint256",
              "name": "birthday",
              "type": "uint256"
            },
            {
              "internalType": "string",
              "name": "sexe",
              "type": "string"
            }
          ],
          "internalType": "struct MedicalDataNFT.NFT[]",
          "name": "",
          "type": "tuple[]"
        }
      ],
      "stateMutability": "view",
      "type": "function",
      "constant": true
    }
  ],
  "bytecode": "0x60806040523480156200001157600080fd5b506040518060400160405280600a81526020017f4d65646963616c4e4654000000000000000000000000000000000000000000008152506040518060400160405280600381526020017f4d4544000000000000000000000000000000000000000000000000000000000081525081600090816200008f919062000412565b508060019081620000a1919062000412565b505050620000c4620000b8620000ca60201b60201c565b620000d260201b60201c565b620004f9565b600033905090565b6000600660009054906101000a900473ffffffffffffffffffffffffffffffffffffffff16905081600660006101000a81548173ffffffffffffffffffffffffffffffffffffffff021916908373ffffffffffffffffffffffffffffffffffffffff1602179055508173ffffffffffffffffffffffffffffffffffffffff168173ffffffffffffffffffffffffffffffffffffffff167f8be0079c531659141344cd1fd0a4f28419497f9722a3daafe3b4186f6b6457e060405160405180910390a35050565b600081519050919050565b7f4e487b7100000000000000000000000000000000000000000000000000000000600052604160045260246000fd5b7f4e487b7100000000000000000000000000000000000000000000000000000000600052602260045260246000fd5b600060028204905060018216806200021a57607f821691505b60208210810362000230576200022f620001d2565b5b50919050565b60008190508160005260206000209050919050565b60006020601f8301049050919050565b600082821b905092915050565b6000600883026200029a7fffffffffffffffffffffffffffffffffffffffffffffffffffffffffffffffff826200025b565b620002a686836200025b565b95508019841693508086168417925050509392505050565b6000819050919050565b6000819050919050565b6000620002f3620002ed620002e784620002be565b620002c8565b620002be565b9050919050565b6000819050919050565b6200030f83620002d2565b620003276200031e82620002fa565b84845462000268565b825550505050565b600090565b6200033e6200032f565b6200034b81848462000304565b505050565b5b8181101562000373576200036760008262000334565b60018101905062000351565b5050565b601f821115620003c2576200038c8162000236565b62000397846200024b565b81016020851015620003a7578190505b620003bf620003b6856200024b565b83018262000350565b50505b505050565b600082821c905092915050565b6000620003e760001984600802620003c7565b1980831691505092915050565b6000620004028383620003d4565b9150826002028217905092915050565b6200041d8262000198565b67ffffffffffffffff811115620004395762000438620001a3565b5b62000445825462000201565b6200045282828562000377565b600060209050601f8311600181146200048a576000841562000475578287015190505b620004818582620003f4565b865550620004f1565b601f1984166200049a8662000236565b60005b82811015620004c4578489015182556001820191506020850194506020810190506200049d565b86831015620004e45784890151620004e0601f891682620003d4565b8355505b6001600288020188555050505b505050505050565b6140ab80620005096000396000f3fe608060405234801561001057600080fd5b50600436106101735760003560e01c8063715018a6116100de578063b88d4fde11610097578063c87b56dd11610071578063c87b56dd14610448578063e13397f614610478578063e985e9c514610496578063f2fde38b146104c657610173565b8063b88d4fde146103e0578063bc086238146103fc578063c31e99b61461041857610173565b8063715018a614610344578063732e8d731461034e5780638da5cb5b1461036c57806395d89b411461038a57806397022057146103a8578063a22cb465146103c457610173565b806342842e0e1161013057806342842e0e1461025e5780634c7d66d01461027a578063539ef097146102965780636352211e146102b457806369562785146102e457806370a082311461031457610173565b806301ffc9a71461017857806306fdde03146101a8578063081812fc146101c65780630869cfbc146101f6578063095ea7b31461022657806323b872dd14610242575b600080fd5b610192600480360381019061018d91906129b6565b6104e2565b60405161019f91906129fe565b60405180910390f35b6101b06105c4565b6040516101bd9190612aa9565b60405180910390f35b6101e060048036038101906101db9190612b01565b610656565b6040516101ed9190612b6f565b60405180910390f35b610210600480360381019061020b9190612bb6565b61069c565b60405161021d91906129fe565b60405180910390f35b610240600480360381019061023b9190612be3565b6106bc565b005b61025c60048036038101906102579190612c23565b6107d3565b005b61027860048036038101906102739190612c23565b610833565b005b610294600480360381019061028f9190612bb6565b610853565b005b61029e6108b6565b6040516102ab9190612e5e565b60405180910390f35b6102ce60048036038101906102c99190612b01565b610c9c565b6040516102db9190612b6f565b60405180910390f35b6102fe60048036038101906102f99190612be3565b610d22565b60405161030b9190612e8f565b60405180910390f35b61032e60048036038101906103299190612bb6565b610d53565b60405161033b9190612e8f565b60405180910390f35b61034c610e0a565b005b610356610e1e565b6040516103639190612e5e565b60405180910390f35b6103746110e9565b6040516103819190612b6f565b60405180910390f35b610392611113565b60405161039f9190612aa9565b60405180910390f35b6103c260048036038101906103bd9190612fdf565b6111a5565b005b6103de60048036038101906103d991906130da565b61146e565b005b6103fa60048036038101906103f591906131bb565b611484565b005b61041660048036038101906104119190612bb6565b6114e6565b005b610432600480360381019061042d9190613306565b611549565b60405161043f9190612e5e565b60405180910390f35b610462600480360381019061045d9190612b01565b611858565b60405161046f9190612aa9565b60405180910390f35b6104806118c0565b60405161048d9190612e8f565b60405180910390f35b6104b060048036038101906104ab919061334f565b6118c6565b6040516104bd91906129fe565b60405180910390f35b6104e060048036038101906104db9190612bb6565b61195a565b005b60007f80ac58cd000000000000000000000000000000000000000000000000000000007bffffffffffffffffffffffffffffffffffffffffffffffffffffffff1916827bffffffffffffffffffffffffffffffffffffffffffffffffffffffff191614806105ad57507f5b5e139f000000000000000000000000000000000000000000000000000000007bffffffffffffffffffffffffffffffffffffffffffffffffffffffff1916827bffffffffffffffffffffffffffffffffffffffffffffffffffffffff1916145b806105bd57506105bc826119dd565b5b9050919050565b6060600080546105d3906133be565b80601f01602080910402602001604051908101604052809291908181526020018280546105ff906133be565b801561064c5780601f106106215761010080835404028352916020019161064c565b820191906000526020600020905b81548152906001019060200180831161062f57829003601f168201915b5050505050905090565b600061066182611a47565b6004600083815260200190815260200160002060009054906101000a900473ffffffffffffffffffffffffffffffffffffffff169050919050565b600a6020528060005260406000206000915054906101000a900460ff1681565b60006106c782610c9c565b90508073ffffffffffffffffffffffffffffffffffffffff168373ffffffffffffffffffffffffffffffffffffffff1603610737576040517f08c379a000000000000000000000000000000000000000000000000000000000815260040161072e90613461565b60405180910390fd5b8073ffffffffffffffffffffffffffffffffffffffff16610756611a92565b73ffffffffffffffffffffffffffffffffffffffff16148061078557506107848161077f611a92565b6118c6565b5b6107c4576040517f08c379a00000000000000000000000000000000000000000000000000000000081526004016107bb906134f3565b60405180910390fd5b6107ce8383611a9a565b505050565b6107e46107de611a92565b82611b53565b610823576040517f08c379a000000000000000000000000000000000000000000000000000000000815260040161081a90613585565b60405180910390fd5b61082e838383611be8565b505050565b61084e83838360405180602001604052806000815250611484565b505050565b61085b611ee1565b6001600a60008373ffffffffffffffffffffffffffffffffffffffff1673ffffffffffffffffffffffffffffffffffffffff16815260200190815260200160002060006101000a81548160ff02191690831515021790555050565b60606000600960003373ffffffffffffffffffffffffffffffffffffffff1673ffffffffffffffffffffffffffffffffffffffff16815260200190815260200160002080548060200260200160405190810160405280929190818152602001828054801561094357602002820191906000526020600020905b81548152602001906001019080831161092f575b505050505090506000600960003373ffffffffffffffffffffffffffffffffffffffff1673ffffffffffffffffffffffffffffffffffffffff16815260200190815260200160002080549050905060008167ffffffffffffffff8111156109ad576109ac612eb4565b5b6040519080825280602002602001820160405280156109e657816020015b6109d36128ef565b8152602001906001900390816109cb5790505b50905060005b82811015610c925760086000858381518110610a0b57610a0a6135a5565b5b602002602001015181526020019081526020016000206040518061010001604052908160008201548152602001600182018054610a47906133be565b80601f0160208091040260200160405190810160405280929190818152602001828054610a73906133be565b8015610ac05780601f10610a9557610100808354040283529160200191610ac0565b820191906000526020600020905b815481529060010190602001808311610aa357829003601f168201915b505050505081526020016002820160009054906101000a900473ffffffffffffffffffffffffffffffffffffffff1673ffffffffffffffffffffffffffffffffffffffff1673ffffffffffffffffffffffffffffffffffffffff1681526020016003820154815260200160048201548152602001600582018054610b43906133be565b80601f0160208091040260200160405190810160405280929190818152602001828054610b6f906133be565b8015610bbc5780601f10610b9157610100808354040283529160200191610bbc565b820191906000526020600020905b815481529060010190602001808311610b9f57829003601f168201915b5050505050815260200160068201548152602001600782018054610bdf906133be565b80601f0160208091040260200160405190810160405280929190818152602001828054610c0b906133be565b8015610c585780601f10610c2d57610100808354040283529160200191610c58565b820191906000526020600020905b815481529060010190602001808311610c3b57829003601f168201915b505050505081525050828281518110610c7457610c736135a5565b5b60200260200101819052508080610c8a90613603565b9150506109ec565b5080935050505090565b600080610ca883611f5f565b9050600073ffffffffffffffffffffffffffffffffffffffff168173ffffffffffffffffffffffffffffffffffffffff1603610d19576040517f08c379a0000000000000000000000000000000000000000000000000000000008152600401610d1090613697565b60405180910390fd5b80915050919050565b60096020528160005260406000208181548110610d3e57600080fd5b90600052602060002001600091509150505481565b60008073ffffffffffffffffffffffffffffffffffffffff168273ffffffffffffffffffffffffffffffffffffffff1603610dc3576040517f08c379a0000000000000000000000000000000000000000000000000000000008152600401610dba90613729565b60405180910390fd5b600360008373ffffffffffffffffffffffffffffffffffffffff1673ffffffffffffffffffffffffffffffffffffffff168152602001908152602001600020549050919050565b610e12611ee1565b610e1c6000611f9c565b565b6060600060075467ffffffffffffffff811115610e3e57610e3d612eb4565b5b604051908082528060200260200182016040528015610e7757816020015b610e646128ef565b815260200190600190039081610e5c5790505b50905060005b6007548110156110e15760405180610100016040528060086000848152602001908152602001600020600001548152602001600860008481526020019081526020016000206001018054610ed0906133be565b80601f0160208091040260200160405190810160405280929190818152602001828054610efc906133be565b8015610f495780601f10610f1e57610100808354040283529160200191610f49565b820191906000526020600020905b815481529060010190602001808311610f2c57829003601f168201915b505050505081526020016008600084815260200190815260200160002060020160009054906101000a900473ffffffffffffffffffffffffffffffffffffffff1673ffffffffffffffffffffffffffffffffffffffff16815260200160086000848152602001908152602001600020600301548152602001600860008481526020019081526020016000206004015481526020016040518060200160405280600081525081526020016008600084815260200190815260200160002060060154815260200160086000848152602001908152602001600020600701805461102f906133be565b80601f016020809104026020016040519081016040528092919081815260200182805461105b906133be565b80156110a85780601f1061107d576101008083540402835291602001916110a8565b820191906000526020600020905b81548152906001019060200180831161108b57829003601f168201915b50505050508152508282815181106110c3576110c26135a5565b5b602002602001018190525080806110d990613603565b915050610e7d565b508091505090565b6000600660009054906101000a900473ffffffffffffffffffffffffffffffffffffffff16905090565b606060018054611122906133be565b80601f016020809104026020016040519081016040528092919081815260200182805461114e906133be565b801561119b5780601f106111705761010080835404028352916020019161119b565b820191906000526020600020905b81548152906001019060200180831161117e57829003601f168201915b5050505050905090565b600a60003373ffffffffffffffffffffffffffffffffffffffff1673ffffffffffffffffffffffffffffffffffffffff16815260200190815260200160002060009054906101000a900460ff1615611232576040517f08c379a000000000000000000000000000000000000000000000000000000000815260040161122990613795565b60405180910390fd5b6000855111611276576040517f08c379a000000000000000000000000000000000000000000000000000000000815260040161126d90613801565b60405180910390fd5b60008351116112ba576040517f08c379a00000000000000000000000000000000000000000000000000000000081526004016112b19061386d565b60405180910390fd5b6112c633600754612062565b600060405180610100016040528060075481526020018781526020013373ffffffffffffffffffffffffffffffffffffffff168152602001428152602001868152602001858152602001848152602001838152509050806008600060075481526020019081526020016000206000820151816000015560208201518160010190816113519190613a39565b5060408201518160020160006101000a81548173ffffffffffffffffffffffffffffffffffffffff021916908373ffffffffffffffffffffffffffffffffffffffff160217905550606082015181600301556080820151816004015560a08201518160050190816113c29190613a39565b5060c0820151816006015560e08201518160070190816113e29190613a39565b50905050600960003373ffffffffffffffffffffffffffffffffffffffff1673ffffffffffffffffffffffffffffffffffffffff16815260200190815260200160002060075490806001815401808255809150506001900390600052602060002001600090919091909150556007600081548092919061146190613603565b9190505550505050505050565b611480611479611a92565b8383612080565b5050565b61149561148f611a92565b83611b53565b6114d4576040517f08c379a00000000000000000000000000000000000000000000000000000000081526004016114cb90613585565b60405180910390fd5b6114e0848484846121ec565b50505050565b6114ee611ee1565b6000600a60008373ffffffffffffffffffffffffffffffffffffffff1673ffffffffffffffffffffffffffffffffffffffff16815260200190815260200160002060006101000a81548160ff02191690831515021790555050565b60606000825167ffffffffffffffff81111561156857611567612eb4565b5b6040519080825280602002602001820160405280156115a157816020015b61158e6128ef565b8152602001906001900390816115865790505b50905060005b835181101561184e57600860008583815181106115c7576115c66135a5565b5b602002602001015181526020019081526020016000206040518061010001604052908160008201548152602001600182018054611603906133be565b80601f016020809104026020016040519081016040528092919081815260200182805461162f906133be565b801561167c5780601f106116515761010080835404028352916020019161167c565b820191906000526020600020905b81548152906001019060200180831161165f57829003601f168201915b505050505081526020016002820160009054906101000a900473ffffffffffffffffffffffffffffffffffffffff1673ffffffffffffffffffffffffffffffffffffffff1673ffffffffffffffffffffffffffffffffffffffff16815260200160038201548152602001600482015481526020016005820180546116ff906133be565b80601f016020809104026020016040519081016040528092919081815260200182805461172b906133be565b80156117785780601f1061174d57610100808354040283529160200191611778565b820191906000526020600020905b81548152906001019060200180831161175b57829003601f168201915b505050505081526020016006820154815260200160078201805461179b906133be565b80601f01602080910402602001604051908101604052809291908181526020018280546117c7906133be565b80156118145780601f106117e957610100808354040283529160200191611814565b820191906000526020600020905b8154815290600101906020018083116117f757829003601f168201915b5050505050815250508282815181106118305761182f6135a5565b5b6020026020010181905250808061184690613603565b9150506115a7565b5080915050919050565b606061186382611a47565b600061186d612248565b9050600081511161188d57604051806020016040528060008152506118b8565b806118978461225f565b6040516020016118a8929190613b47565b6040516020818303038152906040525b915050919050565b60075481565b6000600560008473ffffffffffffffffffffffffffffffffffffffff1673ffffffffffffffffffffffffffffffffffffffff16815260200190815260200160002060008373ffffffffffffffffffffffffffffffffffffffff1673ffffffffffffffffffffffffffffffffffffffff16815260200190815260200160002060009054906101000a900460ff16905092915050565b611962611ee1565b600073ffffffffffffffffffffffffffffffffffffffff168173ffffffffffffffffffffffffffffffffffffffff16036119d1576040517f08c379a00000000000000000000000000000000000000000000000000000000081526004016119c890613bdd565b60405180910390fd5b6119da81611f9c565b50565b60007f01ffc9a7000000000000000000000000000000000000000000000000000000007bffffffffffffffffffffffffffffffffffffffffffffffffffffffff1916827bffffffffffffffffffffffffffffffffffffffffffffffffffffffff1916149050919050565b611a508161232d565b611a8f576040517f08c379a0000000000000000000000000000000000000000000000000000000008152600401611a8690613697565b60405180910390fd5b50565b600033905090565b816004600083815260200190815260200160002060006101000a81548173ffffffffffffffffffffffffffffffffffffffff021916908373ffffffffffffffffffffffffffffffffffffffff160217905550808273ffffffffffffffffffffffffffffffffffffffff16611b0d83610c9c565b73ffffffffffffffffffffffffffffffffffffffff167f8c5be1e5ebec7d5bd14f71427d1e84f3dd0314c0f7b2291e5b200ac8c7c3b92560405160405180910390a45050565b600080611b5f83610c9c565b90508073ffffffffffffffffffffffffffffffffffffffff168473ffffffffffffffffffffffffffffffffffffffff161480611ba15750611ba081856118c6565b5b80611bdf57508373ffffffffffffffffffffffffffffffffffffffff16611bc784610656565b73ffffffffffffffffffffffffffffffffffffffff16145b91505092915050565b8273ffffffffffffffffffffffffffffffffffffffff16611c0882610c9c565b73ffffffffffffffffffffffffffffffffffffffff1614611c5e576040517f08c379a0000000000000000000000000000000000000000000000000000000008152600401611c5590613c6f565b60405180910390fd5b600073ffffffffffffffffffffffffffffffffffffffff168273ffffffffffffffffffffffffffffffffffffffff1603611ccd576040517f08c379a0000000000000000000000000000000000000000000000000000000008152600401611cc490613d01565b60405180910390fd5b611cda838383600161236e565b8273ffffffffffffffffffffffffffffffffffffffff16611cfa82610c9c565b73ffffffffffffffffffffffffffffffffffffffff1614611d50576040517f08c379a0000000000000000000000000000000000000000000000000000000008152600401611d4790613c6f565b60405180910390fd5b6004600082815260200190815260200160002060006101000a81549073ffffffffffffffffffffffffffffffffffffffff02191690556001600360008573ffffffffffffffffffffffffffffffffffffffff1673ffffffffffffffffffffffffffffffffffffffff168152602001908152602001600020600082825403925050819055506001600360008473ffffffffffffffffffffffffffffffffffffffff1673ffffffffffffffffffffffffffffffffffffffff16815260200190815260200160002060008282540192505081905550816002600083815260200190815260200160002060006101000a81548173ffffffffffffffffffffffffffffffffffffffff021916908373ffffffffffffffffffffffffffffffffffffffff160217905550808273ffffffffffffffffffffffffffffffffffffffff168473ffffffffffffffffffffffffffffffffffffffff167fddf252ad1be2c89b69c2b068fc378daa952ba7f163c4a11628f55a4df523b3ef60405160405180910390a4611edc8383836001612374565b505050565b611ee9611a92565b73ffffffffffffffffffffffffffffffffffffffff16611f076110e9565b73ffffffffffffffffffffffffffffffffffffffff1614611f5d576040517f08c379a0000000000000000000000000000000000000000000000000000000008152600401611f5490613d6d565b60405180910390fd5b565b60006002600083815260200190815260200160002060009054906101000a900473ffffffffffffffffffffffffffffffffffffffff169050919050565b6000600660009054906101000a900473ffffffffffffffffffffffffffffffffffffffff16905081600660006101000a81548173ffffffffffffffffffffffffffffffffffffffff021916908373ffffffffffffffffffffffffffffffffffffffff1602179055508173ffffffffffffffffffffffffffffffffffffffff168173ffffffffffffffffffffffffffffffffffffffff167f8be0079c531659141344cd1fd0a4f28419497f9722a3daafe3b4186f6b6457e060405160405180910390a35050565b61207c82826040518060200160405280600081525061237a565b5050565b8173ffffffffffffffffffffffffffffffffffffffff168373ffffffffffffffffffffffffffffffffffffffff16036120ee576040517f08c379a00000000000000000000000000000000000000000000000000000000081526004016120e590613dd9565b60405180910390fd5b80600560008573ffffffffffffffffffffffffffffffffffffffff1673ffffffffffffffffffffffffffffffffffffffff16815260200190815260200160002060008473ffffffffffffffffffffffffffffffffffffffff1673ffffffffffffffffffffffffffffffffffffffff16815260200190815260200160002060006101000a81548160ff0219169083151502179055508173ffffffffffffffffffffffffffffffffffffffff168373ffffffffffffffffffffffffffffffffffffffff167f17307eab39ab6107e8899845ad3d59bd9653f200f220920489ca2b5937696c31836040516121df91906129fe565b60405180910390a3505050565b6121f7848484611be8565b612203848484846123d5565b612242576040517f08c379a000000000000000000000000000000000000000000000000000000000815260040161223990613e6b565b60405180910390fd5b50505050565b606060405180602001604052806000815250905090565b60606000600161226e8461255c565b01905060008167ffffffffffffffff81111561228d5761228c612eb4565b5b6040519080825280601f01601f1916602001820160405280156122bf5781602001600182028036833780820191505090505b509050600082602001820190505b600115612322578080600190039150507f3031323334353637383961626364656600000000000000000000000000000000600a86061a8153600a858161231657612315613e8b565b5b049450600085036122cd575b819350505050919050565b60008073ffffffffffffffffffffffffffffffffffffffff1661234f83611f5f565b73ffffffffffffffffffffffffffffffffffffffff1614159050919050565b50505050565b50505050565b61238483836126af565b61239160008484846123d5565b6123d0576040517f08c379a00000000000000000000000000000000000000000000000000000000081526004016123c790613e6b565b60405180910390fd5b505050565b60006123f68473ffffffffffffffffffffffffffffffffffffffff166128cc565b1561254f578373ffffffffffffffffffffffffffffffffffffffff1663150b7a0261241f611a92565b8786866040518563ffffffff1660e01b81526004016124419493929190613f0f565b6020604051808303816000875af192505050801561247d57506040513d601f19601f8201168201806040525081019061247a9190613f70565b60015b6124ff573d80600081146124ad576040519150601f19603f3d011682016040523d82523d6000602084013e6124b2565b606091505b5060008151036124f7576040517f08c379a00000000000000000000000000000000000000000000000000000000081526004016124ee90613e6b565b60405180910390fd5b805181602001fd5b63150b7a0260e01b7bffffffffffffffffffffffffffffffffffffffffffffffffffffffff1916817bffffffffffffffffffffffffffffffffffffffffffffffffffffffff191614915050612554565b600190505b949350505050565b600080600090507a184f03e93ff9f4daa797ed6e38ed64bf6a1f01000000000000000083106125ba577a184f03e93ff9f4daa797ed6e38ed64bf6a1f01000000000000000083816125b0576125af613e8b565b5b0492506040810190505b6d04ee2d6d415b85acef810000000083106125f7576d04ee2d6d415b85acef810000000083816125ed576125ec613e8b565b5b0492506020810190505b662386f26fc10000831061262657662386f26fc10000838161261c5761261b613e8b565b5b0492506010810190505b6305f5e100831061264f576305f5e100838161264557612644613e8b565b5b0492506008810190505b612710831061267457612710838161266a57612669613e8b565b5b0492506004810190505b60648310612697576064838161268d5761268c613e8b565b5b0492506002810190505b600a83106126a6576001810190505b80915050919050565b600073ffffffffffffffffffffffffffffffffffffffff168273ffffffffffffffffffffffffffffffffffffffff160361271e576040517f08c379a000000000000000000000000000000000000000000000000000000000815260040161271590613fe9565b60405180910390fd5b6127278161232d565b15612767576040517f08c379a000000000000000000000000000000000000000000000000000000000815260040161275e90614055565b60405180910390fd5b61277560008383600161236e565b61277e8161232d565b156127be576040517f08c379a00000000000000000000000000000000000000000000000000000000081526004016127b590614055565b60405180910390fd5b6001600360008473ffffffffffffffffffffffffffffffffffffffff1673ffffffffffffffffffffffffffffffffffffffff16815260200190815260200160002060008282540192505081905550816002600083815260200190815260200160002060006101000a81548173ffffffffffffffffffffffffffffffffffffffff021916908373ffffffffffffffffffffffffffffffffffffffff160217905550808273ffffffffffffffffffffffffffffffffffffffff16600073ffffffffffffffffffffffffffffffffffffffff167fddf252ad1be2c89b69c2b068fc378daa952ba7f163c4a11628f55a4df523b3ef60405160405180910390a46128c8600083836001612374565b5050565b6000808273ffffffffffffffffffffffffffffffffffffffff163b119050919050565b6040518061010001604052806000815260200160608152602001600073ffffffffffffffffffffffffffffffffffffffff16815260200160008152602001600081526020016060815260200160008152602001606081525090565b6000604051905090565b600080fd5b600080fd5b60007fffffffff0000000000000000000000000000000000000000000000000000000082169050919050565b6129938161295e565b811461299e57600080fd5b50565b6000813590506129b08161298a565b92915050565b6000602082840312156129cc576129cb612954565b5b60006129da848285016129a1565b91505092915050565b60008115159050919050565b6129f8816129e3565b82525050565b6000602082019050612a1360008301846129ef565b92915050565b600081519050919050565b600082825260208201905092915050565b60005b83811015612a53578082015181840152602081019050612a38565b60008484015250505050565b6000601f19601f8301169050919050565b6000612a7b82612a19565b612a858185612a24565b9350612a95818560208601612a35565b612a9e81612a5f565b840191505092915050565b60006020820190508181036000830152612ac38184612a70565b905092915050565b6000819050919050565b612ade81612acb565b8114612ae957600080fd5b50565b600081359050612afb81612ad5565b92915050565b600060208284031215612b1757612b16612954565b5b6000612b2584828501612aec565b91505092915050565b600073ffffffffffffffffffffffffffffffffffffffff82169050919050565b6000612b5982612b2e565b9050919050565b612b6981612b4e565b82525050565b6000602082019050612b846000830184612b60565b92915050565b612b9381612b4e565b8114612b9e57600080fd5b50565b600081359050612bb081612b8a565b92915050565b600060208284031215612bcc57612bcb612954565b5b6000612bda84828501612ba1565b91505092915050565b60008060408385031215612bfa57612bf9612954565b5b6000612c0885828601612ba1565b9250506020612c1985828601612aec565b9150509250929050565b600080600060608486031215612c3c57612c3b612954565b5b6000612c4a86828701612ba1565b9350506020612c5b86828701612ba1565b9250506040612c6c86828701612aec565b9150509250925092565b600081519050919050565b600082825260208201905092915050565b6000819050602082019050919050565b612cab81612acb565b82525050565b600082825260208201905092915050565b6000612ccd82612a19565b612cd78185612cb1565b9350612ce7818560208601612a35565b612cf081612a5f565b840191505092915050565b612d0481612b4e565b82525050565b600061010083016000830151612d236000860182612ca2565b5060208301518482036020860152612d3b8282612cc2565b9150506040830151612d506040860182612cfb565b506060830151612d636060860182612ca2565b506080830151612d766080860182612ca2565b5060a083015184820360a0860152612d8e8282612cc2565b91505060c0830151612da360c0860182612ca2565b5060e083015184820360e0860152612dbb8282612cc2565b9150508091505092915050565b6000612dd48383612d0a565b905092915050565b6000602082019050919050565b6000612df482612c76565b612dfe8185612c81565b935083602082028501612e1085612c92565b8060005b85811015612e4c5784840389528151612e2d8582612dc8565b9450612e3883612ddc565b925060208a01995050600181019050612e14565b50829750879550505050505092915050565b60006020820190508181036000830152612e788184612de9565b905092915050565b612e8981612acb565b82525050565b6000602082019050612ea46000830184612e80565b92915050565b600080fd5b600080fd5b7f4e487b7100000000000000000000000000000000000000000000000000000000600052604160045260246000fd5b612eec82612a5f565b810181811067ffffffffffffffff82111715612f0b57612f0a612eb4565b5b80604052505050565b6000612f1e61294a565b9050612f2a8282612ee3565b919050565b600067ffffffffffffffff821115612f4a57612f49612eb4565b5b612f5382612a5f565b9050602081019050919050565b82818337600083830152505050565b6000612f82612f7d84612f2f565b612f14565b905082815260208101848484011115612f9e57612f9d612eaf565b5b612fa9848285612f60565b509392505050565b600082601f830112612fc657612fc5612eaa565b5b8135612fd6848260208601612f6f565b91505092915050565b600080600080600060a08688031215612ffb57612ffa612954565b5b600086013567ffffffffffffffff81111561301957613018612959565b5b61302588828901612fb1565b955050602061303688828901612aec565b945050604086013567ffffffffffffffff81111561305757613056612959565b5b61306388828901612fb1565b935050606061307488828901612aec565b925050608086013567ffffffffffffffff81111561309557613094612959565b5b6130a188828901612fb1565b9150509295509295909350565b6130b7816129e3565b81146130c257600080fd5b50565b6000813590506130d4816130ae565b92915050565b600080604083850312156130f1576130f0612954565b5b60006130ff85828601612ba1565b9250506020613110858286016130c5565b9150509250929050565b600067ffffffffffffffff82111561313557613134612eb4565b5b61313e82612a5f565b9050602081019050919050565b600061315e6131598461311a565b612f14565b90508281526020810184848401111561317a57613179612eaf565b5b613185848285612f60565b509392505050565b600082601f8301126131a2576131a1612eaa565b5b81356131b284826020860161314b565b91505092915050565b600080600080608085870312156131d5576131d4612954565b5b60006131e387828801612ba1565b94505060206131f487828801612ba1565b935050604061320587828801612aec565b925050606085013567ffffffffffffffff81111561322657613225612959565b5b6132328782880161318d565b91505092959194509250565b600067ffffffffffffffff82111561325957613258612eb4565b5b602082029050602081019050919050565b600080fd5b600061328261327d8461323e565b612f14565b905080838252602082019050602084028301858111156132a5576132a461326a565b5b835b818110156132ce57806132ba8882612aec565b8452602084019350506020810190506132a7565b5050509392505050565b600082601f8301126132ed576132ec612eaa565b5b81356132fd84826020860161326f565b91505092915050565b60006020828403121561331c5761331b612954565b5b600082013567ffffffffffffffff81111561333a57613339612959565b5b613346848285016132d8565b91505092915050565b6000806040838503121561336657613365612954565b5b600061337485828601612ba1565b925050602061338585828601612ba1565b9150509250929050565b7f4e487b7100000000000000000000000000000000000000000000000000000000600052602260045260246000fd5b600060028204905060018216806133d657607f821691505b6020821081036133e9576133e861338f565b5b50919050565b7f4552433732313a20617070726f76616c20746f2063757272656e74206f776e6560008201527f7200000000000000000000000000000000000000000000000000000000000000602082015250565b600061344b602183612a24565b9150613456826133ef565b604082019050919050565b6000602082019050818103600083015261347a8161343e565b9050919050565b7f4552433732313a20617070726f76652063616c6c6572206973206e6f7420746f60008201527f6b656e206f776e6572206f7220617070726f76656420666f7220616c6c000000602082015250565b60006134dd603d83612a24565b91506134e882613481565b604082019050919050565b6000602082019050818103600083015261350c816134d0565b9050919050565b7f4552433732313a2063616c6c6572206973206e6f7420746f6b656e206f776e6560008201527f72206f7220617070726f76656400000000000000000000000000000000000000602082015250565b600061356f602d83612a24565b915061357a82613513565b604082019050919050565b6000602082019050818103600083015261359e81613562565b9050919050565b7f4e487b7100000000000000000000000000000000000000000000000000000000600052603260045260246000fd5b7f4e487b7100000000000000000000000000000000000000000000000000000000600052601160045260246000fd5b600061360e82612acb565b91507fffffffffffffffffffffffffffffffffffffffffffffffffffffffffffffffff82036136405761363f6135d4565b5b600182019050919050565b7f4552433732313a20696e76616c696420746f6b656e2049440000000000000000600082015250565b6000613681601883612a24565b915061368c8261364b565b602082019050919050565b600060208201905081810360008301526136b081613674565b9050919050565b7f4552433732313a2061646472657373207a65726f206973206e6f74206120766160008201527f6c6964206f776e65720000000000000000000000000000000000000000000000602082015250565b6000613713602983612a24565b915061371e826136b7565b604082019050919050565b6000602082019050818103600083015261374281613706565b9050919050565b7f596f752061726520626c6f636b65642066726f6d206d696e74696e6700000000600082015250565b600061377f601c83612a24565b915061378a82613749565b602082019050919050565b600060208201905081810360008301526137ae81613772565b9050919050565b7f4e616d652063616e277420626520656d70747900000000000000000000000000600082015250565b60006137eb601383612a24565b91506137f6826137b5565b602082019050919050565b6000602082019050818103600083015261381a816137de565b9050919050565b7f446174612063616e277420626520656d70747900000000000000000000000000600082015250565b6000613857601383612a24565b915061386282613821565b602082019050919050565b600060208201905081810360008301526138868161384a565b9050919050565b60008190508160005260206000209050919050565b60006020601f8301049050919050565b600082821b905092915050565b6000600883026138ef7fffffffffffffffffffffffffffffffffffffffffffffffffffffffffffffffff826138b2565b6138f986836138b2565b95508019841693508086168417925050509392505050565b6000819050919050565b600061393661393161392c84612acb565b613911565b612acb565b9050919050565b6000819050919050565b6139508361391b565b61396461395c8261393d565b8484546138bf565b825550505050565b600090565b61397961396c565b613984818484613947565b505050565b5b818110156139a85761399d600082613971565b60018101905061398a565b5050565b601f8211156139ed576139be8161388d565b6139c7846138a2565b810160208510156139d6578190505b6139ea6139e2856138a2565b830182613989565b50505b505050565b600082821c905092915050565b6000613a10600019846008026139f2565b1980831691505092915050565b6000613a2983836139ff565b9150826002028217905092915050565b613a4282612a19565b67ffffffffffffffff811115613a5b57613a5a612eb4565b5b613a6582546133be565b613a708282856139ac565b600060209050601f831160018114613aa35760008415613a91578287015190505b613a9b8582613a1d565b865550613b03565b601f198416613ab18661388d565b60005b82811015613ad957848901518255600182019150602085019450602081019050613ab4565b86831015613af65784890151613af2601f8916826139ff565b8355505b6001600288020188555050505b505050505050565b600081905092915050565b6000613b2182612a19565b613b2b8185613b0b565b9350613b3b818560208601612a35565b80840191505092915050565b6000613b538285613b16565b9150613b5f8284613b16565b91508190509392505050565b7f4f776e61626c653a206e6577206f776e657220697320746865207a65726f206160008201527f6464726573730000000000000000000000000000000000000000000000000000602082015250565b6000613bc7602683612a24565b9150613bd282613b6b565b604082019050919050565b60006020820190508181036000830152613bf681613bba565b9050919050565b7f4552433732313a207472616e736665722066726f6d20696e636f72726563742060008201527f6f776e6572000000000000000000000000000000000000000000000000000000602082015250565b6000613c59602583612a24565b9150613c6482613bfd565b604082019050919050565b60006020820190508181036000830152613c8881613c4c565b9050919050565b7f4552433732313a207472616e7366657220746f20746865207a65726f2061646460008201527f7265737300000000000000000000000000000000000000000000000000000000602082015250565b6000613ceb602483612a24565b9150613cf682613c8f565b604082019050919050565b60006020820190508181036000830152613d1a81613cde565b9050919050565b7f4f776e61626c653a2063616c6c6572206973206e6f7420746865206f776e6572600082015250565b6000613d57602083612a24565b9150613d6282613d21565b602082019050919050565b60006020820190508181036000830152613d8681613d4a565b9050919050565b7f4552433732313a20617070726f766520746f2063616c6c657200000000000000600082015250565b6000613dc3601983612a24565b9150613dce82613d8d565b602082019050919050565b60006020820190508181036000830152613df281613db6565b9050919050565b7f4552433732313a207472616e7366657220746f206e6f6e20455243373231526560008201527f63656976657220696d706c656d656e7465720000000000000000000000000000602082015250565b6000613e55603283612a24565b9150613e6082613df9565b604082019050919050565b60006020820190508181036000830152613e8481613e48565b9050919050565b7f4e487b7100000000000000000000000000000000000000000000000000000000600052601260045260246000fd5b600081519050919050565b600082825260208201905092915050565b6000613ee182613eba565b613eeb8185613ec5565b9350613efb818560208601612a35565b613f0481612a5f565b840191505092915050565b6000608082019050613f246000830187612b60565b613f316020830186612b60565b613f3e6040830185612e80565b8181036060830152613f508184613ed6565b905095945050505050565b600081519050613f6a8161298a565b92915050565b600060208284031215613f8657613f85612954565b5b6000613f9484828501613f5b565b91505092915050565b7f4552433732313a206d696e7420746f20746865207a65726f2061646472657373600082015250565b6000613fd3602083612a24565b9150613fde82613f9d565b602082019050919050565b6000602082019050818103600083015261400281613fc6565b9050919050565b7f4552433732313a20746f6b656e20616c7265616479206d696e74656400000000600082015250565b600061403f601c83612a24565b915061404a82614009565b602082019050919050565b6000602082019050818103600083015261406e81614032565b905091905056fea26469706673582212209158cab960d204d2acf3886725362ab730506fe7ed054728cdca1ca1ebde6e0b64736f6c63430008120033",
  "immutableReferences": {},
  "source": "// SPDX-License-Identifier: MIT\r\npragma solidity ^0.8.0;\r\n\r\nimport \"@openzeppelin/contracts/token/ERC721/ERC721.sol\";\r\nimport \"@openzeppelin/contracts/access/Ownable.sol\";\r\n\r\ncontract MedicalDataNFT is ERC721, Ownable {\r\n    uint256 public _NftsCounter;\r\n    struct NFT {\r\n        uint256 id;\r\n        string name;\r\n        address owner;\r\n        uint256 date;\r\n        uint256 price;\r\n        string data;\r\n        uint256 birthday;\r\n        string sexe;\r\n    }\r\n\r\n    //mapping for nfts\r\n    mapping(uint256 => NFT) private NFTs;\r\n    //mapping nfts per user\r\n    mapping(address => uint256[]) public PatientNfts;\r\n\r\n    //mapping for blocked userd\r\n    mapping(address => bool) public patients;\r\n\r\n    constructor() ERC721(\"MedicalNFT\", \"MED\") {}\r\n\r\n    function toggleTrue(address _patient) public onlyOwner {\r\n        patients[_patient] = true;\r\n    }\r\n\r\n    function toggleFalse(address _patient) public onlyOwner {\r\n        patients[_patient] = false;\r\n    }\r\n\r\n    function mint(\r\n        string memory name,\r\n        uint256 price,\r\n        string memory data,\r\n        uint256 birthday,\r\n        string memory sexe\r\n    ) public {\r\n        require(!patients[msg.sender], \"You are blocked from minting\");\r\n        require(bytes(name).length > 0, \"Name can't be empty\");\r\n        require(bytes(data).length > 0, \"Data can't be empty\");\r\n\r\n        _safeMint(msg.sender, _NftsCounter);\r\n\r\n        NFT memory dataStruct = NFT({\r\n            id: _NftsCounter,\r\n            name: name,\r\n            owner: msg.sender,\r\n            date: block.timestamp,\r\n            birthday: birthday,\r\n            sexe: sexe,\r\n            price: price,\r\n            data: data\r\n        });\r\n        // Create new nft and add it to the list of the nfts.\r\n        NFTs[_NftsCounter] = dataStruct;\r\n        // Add the nft to the list of the nfts for this patient.\r\n        PatientNfts[msg.sender].push(_NftsCounter);\r\n        //increment the count of nfts\r\n        _NftsCounter++;\r\n    }\r\n\r\n    //this function called by laboratorys\r\n    function getNfts(uint256[] memory ids) public view returns (NFT[] memory) {\r\n        NFT[] memory nfts = new NFT[](ids.length);\r\n        for (uint256 i = 0; i < ids.length; i++) {\r\n            nfts[i] = NFTs[ids[i]];\r\n        }\r\n        return nfts;\r\n    }\r\n    //this function called by laboratorys\r\n    function getAllNfts() public view returns (NFT[] memory) {\r\n        NFT[] memory nfts = new NFT[](_NftsCounter);\r\n        for (uint256 i = 0; i < _NftsCounter; i++) {\r\n            nfts[i] = NFT({\r\n                id : NFTs[i].id,\r\n                name : NFTs[i].name,\r\n                owner : NFTs[i].owner,\r\n                date : NFTs[i].date,\r\n                price :NFTs[i].price,\r\n                data : '',\r\n                birthday :NFTs[i].birthday,\r\n                sexe:NFTs[i].sexe\r\n            });\r\n        }\r\n        return nfts;\r\n    }\r\n    //this function called by patient\r\n    function getPatientNftsList() public view returns (NFT[] memory) {\r\n        uint256[] memory list = PatientNfts[msg.sender];\r\n        uint256 l = PatientNfts[msg.sender].length;\r\n        NFT[] memory nfts = new NFT[](l);\r\n        for (uint256 i = 0; i < l; i++) {\r\n            nfts[i] = NFTs[list[i]];\r\n        }\r\n        return nfts;\r\n    }\r\n}\r\n",
  "sourcePath": "D:\\Marketpalce\\contracts\\MedicalDataNFT.sol",
  "compiler": {
    "name": "solc",
    "version": "0.8.18+commit.87f61d96.Emscripten.clang"
  },
  "schemaVersion": "3.4.12",
  "updatedAt": "2023-05-21T16:48:06.875Z",
  "networkType": "ethereum",
  "devdoc": {
    "events": {
      "Approval(address,address,uint256)": {
        "details": "Emitted when `owner` enables `approved` to manage the `tokenId` token."
      },
      "ApprovalForAll(address,address,bool)": {
        "details": "Emitted when `owner` enables or disables (`approved`) `operator` to manage all of its assets."
      },
      "Transfer(address,address,uint256)": {
        "details": "Emitted when `tokenId` token is transferred from `from` to `to`."
      }
    },
    "kind": "dev",
    "methods": {
      "approve(address,uint256)": {
        "details": "See {IERC721-approve}."
      },
      "balanceOf(address)": {
        "details": "See {IERC721-balanceOf}."
      },
      "getApproved(uint256)": {
        "details": "See {IERC721-getApproved}."
      },
      "isApprovedForAll(address,address)": {
        "details": "See {IERC721-isApprovedForAll}."
      },
      "name()": {
        "details": "See {IERC721Metadata-name}."
      },
      "owner()": {
        "details": "Returns the address of the current owner."
      },
      "ownerOf(uint256)": {
        "details": "See {IERC721-ownerOf}."
      },
      "renounceOwnership()": {
        "details": "Leaves the contract without owner. It will not be possible to call `onlyOwner` functions anymore. Can only be called by the current owner. NOTE: Renouncing ownership will leave the contract without an owner, thereby removing any functionality that is only available to the owner."
      },
      "safeTransferFrom(address,address,uint256)": {
        "details": "See {IERC721-safeTransferFrom}."
      },
      "safeTransferFrom(address,address,uint256,bytes)": {
        "details": "See {IERC721-safeTransferFrom}."
      },
      "setApprovalForAll(address,bool)": {
        "details": "See {IERC721-setApprovalForAll}."
      },
      "supportsInterface(bytes4)": {
        "details": "See {IERC165-supportsInterface}."
      },
      "symbol()": {
        "details": "See {IERC721Metadata-symbol}."
      },
      "tokenURI(uint256)": {
        "details": "See {IERC721Metadata-tokenURI}."
      },
      "transferFrom(address,address,uint256)": {
        "details": "See {IERC721-transferFrom}."
      },
      "transferOwnership(address)": {
        "details": "Transfers ownership of the contract to a new account (`newOwner`). Can only be called by the current owner."
      }
    },
    "version": 1
  },
  "userdoc": {
    "kind": "user",
    "methods": {},
    "version": 1
  }
}