{
  "contractName": "auth1",
  "abi": [
    {
      "inputs": [
        {
          "internalType": "string",
          "name": "nom",
          "type": "string"
        },
        {
          "internalType": "string",
          "name": "prenom",
          "type": "string"
        },
        {
          "internalType": "string",
          "name": "email",
          "type": "string"
        },
        {
          "internalType": "string",
          "name": "password",
          "type": "string"
        },
        {
          "internalType": "address",
          "name": "userAddress",
          "type": "address"
        },
        {
          "internalType": "enum auth1.State",
          "name": "userState",
          "type": "uint8"
        }
      ],
      "name": "createUser",
      "outputs": [],
      "stateMutability": "nonpayable",
      "type": "function"
    },
    {
      "inputs": [
        {
          "internalType": "address",
          "name": "userAddress",
          "type": "address"
        }
      ],
      "name": "deleteUser",
      "outputs": [],
      "stateMutability": "nonpayable",
      "type": "function"
    },
    {
      "inputs": [
        {
          "internalType": "address",
          "name": "userAddress",
          "type": "address"
        }
      ],
      "name": "getUser",
      "outputs": [
        {
          "components": [
            {
              "internalType": "string",
              "name": "nom",
              "type": "string"
            },
            {
              "internalType": "string",
              "name": "prenom",
              "type": "string"
            },
            {
              "internalType": "string",
              "name": "email",
              "type": "string"
            },
            {
              "internalType": "string",
              "name": "password",
              "type": "string"
            },
            {
              "internalType": "address",
              "name": "userAddress",
              "type": "address"
            },
            {
              "internalType": "enum auth1.State",
              "name": "userState",
              "type": "uint8"
            },
            {
              "internalType": "bool",
              "name": "isDeleted",
              "type": "bool"
            }
          ],
          "internalType": "struct auth1.User",
          "name": "",
          "type": "tuple"
        }
      ],
      "stateMutability": "view",
      "type": "function",
      "constant": true
    },
    {
      "inputs": [
        {
          "internalType": "address",
          "name": "userAddress",
          "type": "address"
        }
      ],
      "name": "userExists",
      "outputs": [
        {
          "internalType": "bool",
          "name": "",
          "type": "bool"
        }
      ],
      "stateMutability": "view",
      "type": "function",
      "constant": true
    },
    {
      "inputs": [],
      "name": "getAllUsers",
      "outputs": [
        {
          "components": [
            {
              "internalType": "string",
              "name": "nom",
              "type": "string"
            },
            {
              "internalType": "string",
              "name": "prenom",
              "type": "string"
            },
            {
              "internalType": "string",
              "name": "email",
              "type": "string"
            },
            {
              "internalType": "string",
              "name": "password",
              "type": "string"
            },
            {
              "internalType": "address",
              "name": "userAddress",
              "type": "address"
            },
            {
              "internalType": "enum auth1.State",
              "name": "userState",
              "type": "uint8"
            },
            {
              "internalType": "bool",
              "name": "isDeleted",
              "type": "bool"
            }
          ],
          "internalType": "struct auth1.User[]",
          "name": "",
          "type": "tuple[]"
        }
      ],
      "stateMutability": "view",
      "type": "function",
      "constant": true
    },
    {
      "inputs": [
        {
          "internalType": "enum auth1.State",
          "name": "userState",
          "type": "uint8"
        }
      ],
      "name": "getUsersFor",
      "outputs": [
        {
          "components": [
            {
              "internalType": "string",
              "name": "nom",
              "type": "string"
            },
            {
              "internalType": "string",
              "name": "prenom",
              "type": "string"
            },
            {
              "internalType": "string",
              "name": "email",
              "type": "string"
            },
            {
              "internalType": "string",
              "name": "password",
              "type": "string"
            },
            {
              "internalType": "address",
              "name": "userAddress",
              "type": "address"
            },
            {
              "internalType": "enum auth1.State",
              "name": "userState",
              "type": "uint8"
            },
            {
              "internalType": "bool",
              "name": "isDeleted",
              "type": "bool"
            }
          ],
          "internalType": "struct auth1.User[]",
          "name": "",
          "type": "tuple[]"
        }
      ],
      "stateMutability": "view",
      "type": "function",
      "constant": true
    }
  ],
  "bytecode": "0x608060405234801561001057600080fd5b506125b0806100206000396000f3fe608060405234801561001057600080fd5b50600436106100625760003560e01c80630e666e4914610067578063476a2829146100975780635c60f226146100c75780636f77926b146100e3578063e2842d7914610113578063e7a1ac5a14610131575b600080fd5b610081600480360381019061007c91906119b7565b61014d565b60405161008e91906119ff565b60405180910390f35b6100b160048036038101906100ac9190611a3f565b61025a565b6040516100be9190611d04565b60405180910390f35b6100e160048036038101906100dc91906119b7565b61095c565b005b6100fd60048036038101906100f891906119b7565b610a4f565b60405161010a9190611dd7565b60405180910390f35b61011b610e32565b6040516101289190611d04565b60405180910390f35b61014b60048036038101906101469190611f2e565b6113b8565b005b600080600090505b60008054905081101561024f578273ffffffffffffffffffffffffffffffffffffffff166000828154811061018d5761018c61202b565b5b9060005260206000200160009054906101000a900473ffffffffffffffffffffffffffffffffffffffff1673ffffffffffffffffffffffffffffffffffffffff160361023c57600160008473ffffffffffffffffffffffffffffffffffffffff1673ffffffffffffffffffffffffffffffffffffffff16815260200190815260200160002060040160159054906101000a900460ff1615610232576000915050610255565b6001915050610255565b808061024790612093565b915050610155565b50600090505b919050565b60606000805b6000805490508110156103dd578360028111156102805761027f611b37565b5b600160008084815481106102975761029661202b565b5b9060005260206000200160009054906101000a900473ffffffffffffffffffffffffffffffffffffffff1673ffffffffffffffffffffffffffffffffffffffff1673ffffffffffffffffffffffffffffffffffffffff16815260200190815260200160002060040160149054906101000a900460ff16600281111561031f5761031e611b37565b5b1480156103b657506001600080838154811061033e5761033d61202b565b5b9060005260206000200160009054906101000a900473ffffffffffffffffffffffffffffffffffffffff1673ffffffffffffffffffffffffffffffffffffffff1673ffffffffffffffffffffffffffffffffffffffff16815260200190815260200160002060040160159054906101000a900460ff16155b156103ca5781806103c690612093565b9250505b80806103d590612093565b915050610260565b5060008167ffffffffffffffff8111156103fa576103f9611e03565b5b60405190808252806020026020018201604052801561043357816020015b6104206118de565b8152602001906001900390816104185790505b5090506000805b6000805490508110156109505785600281111561045a57610459611b37565b5b600160008084815481106104715761047061202b565b5b9060005260206000200160009054906101000a900473ffffffffffffffffffffffffffffffffffffffff1673ffffffffffffffffffffffffffffffffffffffff1673ffffffffffffffffffffffffffffffffffffffff16815260200190815260200160002060040160149054906101000a900460ff1660028111156104f9576104f8611b37565b5b1480156105905750600160008083815481106105185761051761202b565b5b9060005260206000200160009054906101000a900473ffffffffffffffffffffffffffffffffffffffff1673ffffffffffffffffffffffffffffffffffffffff1673ffffffffffffffffffffffffffffffffffffffff16815260200190815260200160002060040160159054906101000a900460ff16155b1561093d57600160008083815481106105ac576105ab61202b565b5b9060005260206000200160009054906101000a900473ffffffffffffffffffffffffffffffffffffffff1673ffffffffffffffffffffffffffffffffffffffff1673ffffffffffffffffffffffffffffffffffffffff1681526020019081526020016000206040518060e001604052908160008201805461062c9061210a565b80601f01602080910402602001604051908101604052809291908181526020018280546106589061210a565b80156106a55780601f1061067a576101008083540402835291602001916106a5565b820191906000526020600020905b81548152906001019060200180831161068857829003601f168201915b505050505081526020016001820180546106be9061210a565b80601f01602080910402602001604051908101604052809291908181526020018280546106ea9061210a565b80156107375780601f1061070c57610100808354040283529160200191610737565b820191906000526020600020905b81548152906001019060200180831161071a57829003601f168201915b505050505081526020016002820180546107509061210a565b80601f016020809104026020016040519081016040528092919081815260200182805461077c9061210a565b80156107c95780601f1061079e576101008083540402835291602001916107c9565b820191906000526020600020905b8154815290600101906020018083116107ac57829003601f168201915b505050505081526020016003820180546107e29061210a565b80601f016020809104026020016040519081016040528092919081815260200182805461080e9061210a565b801561085b5780601f106108305761010080835404028352916020019161085b565b820191906000526020600020905b81548152906001019060200180831161083e57829003601f168201915b505050505081526020016004820160009054906101000a900473ffffffffffffffffffffffffffffffffffffffff1673ffffffffffffffffffffffffffffffffffffffff1673ffffffffffffffffffffffffffffffffffffffff1681526020016004820160149054906101000a900460ff1660028111156108df576108de611b37565b5b60028111156108f1576108f0611b37565b5b81526020016004820160159054906101000a900460ff1615151515815250508383815181106109235761092261202b565b5b6020026020010181905250818061093990612093565b9250505b808061094890612093565b91505061043a565b50819350505050919050565b60001515600160008373ffffffffffffffffffffffffffffffffffffffff1673ffffffffffffffffffffffffffffffffffffffff16815260200190815260200160002060040160159054906101000a900460ff161515146109f2576040517f08c379a00000000000000000000000000000000000000000000000000000000081526004016109e990612198565b60405180910390fd5b60018060008373ffffffffffffffffffffffffffffffffffffffff1673ffffffffffffffffffffffffffffffffffffffff16815260200190815260200160002060040160156101000a81548160ff02191690831515021790555050565b610a576118de565b60001515600160008473ffffffffffffffffffffffffffffffffffffffff1673ffffffffffffffffffffffffffffffffffffffff16815260200190815260200160002060040160159054906101000a900460ff16151514610aed576040517f08c379a0000000000000000000000000000000000000000000000000000000008152600401610ae490612204565b60405180910390fd5b600160008373ffffffffffffffffffffffffffffffffffffffff1673ffffffffffffffffffffffffffffffffffffffff1681526020019081526020016000206040518060e0016040529081600082018054610b479061210a565b80601f0160208091040260200160405190810160405280929190818152602001828054610b739061210a565b8015610bc05780601f10610b9557610100808354040283529160200191610bc0565b820191906000526020600020905b815481529060010190602001808311610ba357829003601f168201915b50505050508152602001600182018054610bd99061210a565b80601f0160208091040260200160405190810160405280929190818152602001828054610c059061210a565b8015610c525780601f10610c2757610100808354040283529160200191610c52565b820191906000526020600020905b815481529060010190602001808311610c3557829003601f168201915b50505050508152602001600282018054610c6b9061210a565b80601f0160208091040260200160405190810160405280929190818152602001828054610c979061210a565b8015610ce45780601f10610cb957610100808354040283529160200191610ce4565b820191906000526020600020905b815481529060010190602001808311610cc757829003601f168201915b50505050508152602001600382018054610cfd9061210a565b80601f0160208091040260200160405190810160405280929190818152602001828054610d299061210a565b8015610d765780601f10610d4b57610100808354040283529160200191610d76565b820191906000526020600020905b815481529060010190602001808311610d5957829003601f168201915b505050505081526020016004820160009054906101000a900473ffffffffffffffffffffffffffffffffffffffff1673ffffffffffffffffffffffffffffffffffffffff1673ffffffffffffffffffffffffffffffffffffffff1681526020016004820160149054906101000a900460ff166002811115610dfa57610df9611b37565b5b6002811115610e0c57610e0b611b37565b5b81526020016004820160159054906101000a900460ff1615151515815250509050919050565b60606000805b600080549050811015610ef85760016000808381548110610e5c57610e5b61202b565b5b9060005260206000200160009054906101000a900473ffffffffffffffffffffffffffffffffffffffff1673ffffffffffffffffffffffffffffffffffffffff1673ffffffffffffffffffffffffffffffffffffffff16815260200190815260200160002060040160159054906101000a900460ff16610ee5578180610ee190612093565b9250505b8080610ef090612093565b915050610e38565b5060008167ffffffffffffffff811115610f1557610f14611e03565b5b604051908082528060200260200182016040528015610f4e57816020015b610f3b6118de565b815260200190600190039081610f335790505b5090506000805b6000805490508110156113ae5760016000808381548110610f7957610f7861202b565b5b9060005260206000200160009054906101000a900473ffffffffffffffffffffffffffffffffffffffff1673ffffffffffffffffffffffffffffffffffffffff1673ffffffffffffffffffffffffffffffffffffffff16815260200190815260200160002060040160159054906101000a900460ff1661139b576001600080838154811061100a5761100961202b565b5b9060005260206000200160009054906101000a900473ffffffffffffffffffffffffffffffffffffffff1673ffffffffffffffffffffffffffffffffffffffff1673ffffffffffffffffffffffffffffffffffffffff1681526020019081526020016000206040518060e001604052908160008201805461108a9061210a565b80601f01602080910402602001604051908101604052809291908181526020018280546110b69061210a565b80156111035780601f106110d857610100808354040283529160200191611103565b820191906000526020600020905b8154815290600101906020018083116110e657829003601f168201915b5050505050815260200160018201805461111c9061210a565b80601f01602080910402602001604051908101604052809291908181526020018280546111489061210a565b80156111955780601f1061116a57610100808354040283529160200191611195565b820191906000526020600020905b81548152906001019060200180831161117857829003601f168201915b505050505081526020016002820180546111ae9061210a565b80601f01602080910402602001604051908101604052809291908181526020018280546111da9061210a565b80156112275780601f106111fc57610100808354040283529160200191611227565b820191906000526020600020905b81548152906001019060200180831161120a57829003601f168201915b505050505081526020016003820180546112409061210a565b80601f016020809104026020016040519081016040528092919081815260200182805461126c9061210a565b80156112b95780601f1061128e576101008083540402835291602001916112b9565b820191906000526020600020905b81548152906001019060200180831161129c57829003601f168201915b505050505081526020016004820160009054906101000a900473ffffffffffffffffffffffffffffffffffffffff1673ffffffffffffffffffffffffffffffffffffffff1673ffffffffffffffffffffffffffffffffffffffff1681526020016004820160149054906101000a900460ff16600281111561133d5761133c611b37565b5b600281111561134f5761134e611b37565b5b81526020016004820160159054906101000a900460ff1615151515815250508383815181106113815761138061202b565b5b6020026020010181905250818061139790612093565b9250505b80806113a690612093565b915050610f55565b5081935050505090565b600073ffffffffffffffffffffffffffffffffffffffff168273ffffffffffffffffffffffffffffffffffffffff1603611427576040517f08c379a000000000000000000000000000000000000000000000000000000000815260040161141e90612270565b60405180910390fd5b6114308261014d565b156114835761143e8261014d565b1561147e576040517f08c379a0000000000000000000000000000000000000000000000000000000008152600401611475906122dc565b60405180910390fd5b6118d6565b600160008373ffffffffffffffffffffffffffffffffffffffff1673ffffffffffffffffffffffffffffffffffffffff16815260200190815260200160002060040160159054906101000a900460ff16156116e25785600160008473ffffffffffffffffffffffffffffffffffffffff1673ffffffffffffffffffffffffffffffffffffffff168152602001908152602001600020600001908161152791906124a8565b5084600160008473ffffffffffffffffffffffffffffffffffffffff1673ffffffffffffffffffffffffffffffffffffffff168152602001908152602001600020600101908161157791906124a8565b5083600160008473ffffffffffffffffffffffffffffffffffffffff1673ffffffffffffffffffffffffffffffffffffffff16815260200190815260200160002060020190816115c791906124a8565b5082600160008473ffffffffffffffffffffffffffffffffffffffff1673ffffffffffffffffffffffffffffffffffffffff168152602001908152602001600020600301908161161791906124a8565b5080600160008473ffffffffffffffffffffffffffffffffffffffff1673ffffffffffffffffffffffffffffffffffffffff16815260200190815260200160002060040160146101000a81548160ff0219169083600281111561167d5761167c611b37565b5b02179055506000600160008473ffffffffffffffffffffffffffffffffffffffff1673ffffffffffffffffffffffffffffffffffffffff16815260200190815260200160002060040160156101000a81548160ff0219169083151502179055506118d5565b6040518060e001604052808781526020018681526020018581526020018481526020018373ffffffffffffffffffffffffffffffffffffffff16815260200182600281111561173457611733611b37565b5b815260200160001515815250600160008473ffffffffffffffffffffffffffffffffffffffff1673ffffffffffffffffffffffffffffffffffffffff168152602001908152602001600020600082015181600001908161179491906124a8565b5060208201518160010190816117aa91906124a8565b5060408201518160020190816117c091906124a8565b5060608201518160030190816117d691906124a8565b5060808201518160040160006101000a81548173ffffffffffffffffffffffffffffffffffffffff021916908373ffffffffffffffffffffffffffffffffffffffff16021790555060a08201518160040160146101000a81548160ff0219169083600281111561184957611848611b37565b5b021790555060c08201518160040160156101000a81548160ff0219169083151502179055509050506000829080600181540180825580915050600190039060005260206000200160009091909190916101000a81548173ffffffffffffffffffffffffffffffffffffffff021916908373ffffffffffffffffffffffffffffffffffffffff1602179055505b5b505050505050565b6040518060e0016040528060608152602001606081526020016060815260200160608152602001600073ffffffffffffffffffffffffffffffffffffffff1681526020016000600281111561193657611935611b37565b5b81526020016000151581525090565b6000604051905090565b600080fd5b600080fd5b600073ffffffffffffffffffffffffffffffffffffffff82169050919050565b600061198482611959565b9050919050565b61199481611979565b811461199f57600080fd5b50565b6000813590506119b18161198b565b92915050565b6000602082840312156119cd576119cc61194f565b5b60006119db848285016119a2565b91505092915050565b60008115159050919050565b6119f9816119e4565b82525050565b6000602082019050611a1460008301846119f0565b92915050565b60038110611a2757600080fd5b50565b600081359050611a3981611a1a565b92915050565b600060208284031215611a5557611a5461194f565b5b6000611a6384828501611a2a565b91505092915050565b600081519050919050565b600082825260208201905092915050565b6000819050602082019050919050565b600081519050919050565b600082825260208201905092915050565b60005b83811015611ad2578082015181840152602081019050611ab7565b60008484015250505050565b6000601f19601f8301169050919050565b6000611afa82611a98565b611b048185611aa3565b9350611b14818560208601611ab4565b611b1d81611ade565b840191505092915050565b611b3181611979565b82525050565b7f4e487b7100000000000000000000000000000000000000000000000000000000600052602160045260246000fd5b60038110611b7757611b76611b37565b5b50565b6000819050611b8882611b66565b919050565b6000611b9882611b7a565b9050919050565b611ba881611b8d565b82525050565b611bb7816119e4565b82525050565b600060e0830160008301518482036000860152611bda8282611aef565b91505060208301518482036020860152611bf48282611aef565b91505060408301518482036040860152611c0e8282611aef565b91505060608301518482036060860152611c288282611aef565b9150506080830151611c3d6080860182611b28565b5060a0830151611c5060a0860182611b9f565b5060c0830151611c6360c0860182611bae565b508091505092915050565b6000611c7a8383611bbd565b905092915050565b6000602082019050919050565b6000611c9a82611a6c565b611ca48185611a77565b935083602082028501611cb685611a88565b8060005b85811015611cf25784840389528151611cd38582611c6e565b9450611cde83611c82565b925060208a01995050600181019050611cba565b50829750879550505050505092915050565b60006020820190508181036000830152611d1e8184611c8f565b905092915050565b600060e0830160008301518482036000860152611d438282611aef565b91505060208301518482036020860152611d5d8282611aef565b91505060408301518482036040860152611d778282611aef565b91505060608301518482036060860152611d918282611aef565b9150506080830151611da66080860182611b28565b5060a0830151611db960a0860182611b9f565b5060c0830151611dcc60c0860182611bae565b508091505092915050565b60006020820190508181036000830152611df18184611d26565b905092915050565b600080fd5b600080fd5b7f4e487b7100000000000000000000000000000000000000000000000000000000600052604160045260246000fd5b611e3b82611ade565b810181811067ffffffffffffffff82111715611e5a57611e59611e03565b5b80604052505050565b6000611e6d611945565b9050611e798282611e32565b919050565b600067ffffffffffffffff821115611e9957611e98611e03565b5b611ea282611ade565b9050602081019050919050565b82818337600083830152505050565b6000611ed1611ecc84611e7e565b611e63565b905082815260208101848484011115611eed57611eec611dfe565b5b611ef8848285611eaf565b509392505050565b600082601f830112611f1557611f14611df9565b5b8135611f25848260208601611ebe565b91505092915050565b60008060008060008060c08789031215611f4b57611f4a61194f565b5b600087013567ffffffffffffffff811115611f6957611f68611954565b5b611f7589828a01611f00565b965050602087013567ffffffffffffffff811115611f9657611f95611954565b5b611fa289828a01611f00565b955050604087013567ffffffffffffffff811115611fc357611fc2611954565b5b611fcf89828a01611f00565b945050606087013567ffffffffffffffff811115611ff057611fef611954565b5b611ffc89828a01611f00565b935050608061200d89828a016119a2565b92505060a061201e89828a01611a2a565b9150509295509295509295565b7f4e487b7100000000000000000000000000000000000000000000000000000000600052603260045260246000fd5b7f4e487b7100000000000000000000000000000000000000000000000000000000600052601160045260246000fd5b6000819050919050565b600061209e82612089565b91507fffffffffffffffffffffffffffffffffffffffffffffffffffffffffffffffff82036120d0576120cf61205a565b5b600182019050919050565b7f4e487b7100000000000000000000000000000000000000000000000000000000600052602260045260246000fd5b6000600282049050600182168061212257607f821691505b602082108103612135576121346120db565b5b50919050565b600082825260208201905092915050565b7f5573657220646f6573206e6f7420657869737400000000000000000000000000600082015250565b600061218260138361213b565b915061218d8261214c565b602082019050919050565b600060208201905081810360008301526121b181612175565b9050919050565b7f557365722069732064656c657465640000000000000000000000000000000000600082015250565b60006121ee600f8361213b565b91506121f9826121b8565b602082019050919050565b6000602082019050818103600083015261221d816121e1565b9050919050565b7f496e76616c696420757365722061646472657373000000000000000000000000600082015250565b600061225a60148361213b565b915061226582612224565b602082019050919050565b600060208201905081810360008301526122898161224d565b9050919050565b7f4164647265737320616c6c726561647920757365640000000000000000000000600082015250565b60006122c660158361213b565b91506122d182612290565b602082019050919050565b600060208201905081810360008301526122f5816122b9565b9050919050565b60008190508160005260206000209050919050565b60006020601f8301049050919050565b600082821b905092915050565b60006008830261235e7fffffffffffffffffffffffffffffffffffffffffffffffffffffffffffffffff82612321565b6123688683612321565b95508019841693508086168417925050509392505050565b6000819050919050565b60006123a56123a061239b84612089565b612380565b612089565b9050919050565b6000819050919050565b6123bf8361238a565b6123d36123cb826123ac565b84845461232e565b825550505050565b600090565b6123e86123db565b6123f38184846123b6565b505050565b5b818110156124175761240c6000826123e0565b6001810190506123f9565b5050565b601f82111561245c5761242d816122fc565b61243684612311565b81016020851015612445578190505b61245961245185612311565b8301826123f8565b50505b505050565b600082821c905092915050565b600061247f60001984600802612461565b1980831691505092915050565b6000612498838361246e565b9150826002028217905092915050565b6124b182611a98565b67ffffffffffffffff8111156124ca576124c9611e03565b5b6124d4825461210a565b6124df82828561241b565b600060209050601f8311600181146125125760008415612500578287015190505b61250a858261248c565b865550612572565b601f198416612520866122fc565b60005b8281101561254857848901518255600182019150602085019450602081019050612523565b868310156125655784890151612561601f89168261246e565b8355505b6001600288020188555050505b50505050505056fea2646970667358221220d2a04bd3837ba8489794b67cc76bc902a6f2d863ecb71f2f20571b78e91c658b64736f6c63430008120033",
  "immutableReferences": {},
  "source": "// SPDX-License-Identifier: MIT\r\npragma solidity ^0.8.0;\r\n\r\ncontract auth1 {\r\n    address[] private addressArray;\r\n\r\n    enum State {\r\n        Patient,\r\n        Laboratory,\r\n        Admin\r\n    }\r\n\r\n    struct User {\r\n        string nom;\r\n        string prenom;\r\n        string email;\r\n        string password;\r\n        address userAddress;\r\n        State userState;\r\n        bool isDeleted;\r\n    }\r\n\r\n    mapping(address => User) private users;\r\n\r\n    function createUser(\r\n        string memory nom,\r\n        string memory prenom,\r\n        string memory email,\r\n        string memory password,\r\n        address userAddress,\r\n        State userState\r\n    ) public {\r\n        require(userAddress != address(0), \"Invalid user address\");\r\n\r\n        if (userExists(userAddress)) {\r\n            require(!userExists(userAddress), \"Address allready used\");\r\n        } else {\r\n            if (users[userAddress].isDeleted) {\r\n                users[userAddress].nom = nom;\r\n                users[userAddress].prenom = prenom;\r\n                users[userAddress].email = email;\r\n                users[userAddress].password = password;\r\n                users[userAddress].userState = userState;\r\n                users[userAddress].isDeleted = false;\r\n            } else {\r\n                users[userAddress] = User(\r\n                    nom,\r\n                    prenom,\r\n                    email,\r\n                    password,\r\n                    userAddress,\r\n                    userState,\r\n                    false\r\n                );\r\n                addressArray.push(userAddress);\r\n            }\r\n        }\r\n    }\r\n\r\n    function deleteUser(address userAddress) public {\r\n        require(users[userAddress].isDeleted == false, \"User does not exist\");\r\n        users[userAddress].isDeleted = true;\r\n    }\r\n     function getUser(address userAddress) public view returns (User memory) {\r\n        require(users[userAddress].isDeleted == false,\"User is deleted\");\r\n        return  users[userAddress];\r\n    }\r\n    function userExists(address userAddress) public view returns (bool) {\r\n        \r\n        for (uint256 i = 0; i < addressArray.length; i++) {\r\n            if (addressArray[i] == userAddress) {\r\n                if (users[userAddress].isDeleted) {\r\n                    return false;\r\n                }\r\n                return true;\r\n            }\r\n        }\r\n        return false;\r\n    }\r\n\r\n    function getAllUsers() public view returns (User[] memory) {\r\n        uint256 count = 0;\r\n\r\n        for (uint256 i = 0; i < addressArray.length; i++) {\r\n            if (!users[addressArray[i]].isDeleted) {\r\n                count++;\r\n            }\r\n        }\r\n\r\n        User[] memory result = new User[](count);\r\n\r\n        uint256 index = 0;\r\n\r\n        for (uint256 i = 0; i < addressArray.length; i++) {\r\n            if (!users[addressArray[i]].isDeleted) {\r\n                result[index] = users[addressArray[i]];\r\n                index++;\r\n            }\r\n        }\r\n\r\n        return result;\r\n    }\r\n\r\n    function getUsersFor(State userState) public view returns (User[] memory) {\r\n        uint256 count = 0;\r\n\r\n        for (uint256 i = 0; i < addressArray.length; i++) {\r\n            if (\r\n                users[addressArray[i]].userState == userState &&\r\n                !users[addressArray[i]].isDeleted\r\n            ) {\r\n                count++;\r\n            }\r\n        }\r\n\r\n        User[] memory result = new User[](count);\r\n\r\n        uint256 index = 0;\r\n\r\n        for (uint256 i = 0; i < addressArray.length; i++) {\r\n            if (\r\n                users[addressArray[i]].userState == userState &&\r\n                !users[addressArray[i]].isDeleted\r\n            ) {\r\n                result[index] = users[addressArray[i]];\r\n                index++;\r\n            }\r\n        }\r\n\r\n        return result;\r\n    }\r\n}\r\n",
  "sourcePath": "D:\\market\\contracts\\auth1.sol",
  "compiler": {
    "name": "solc",
    "version": "0.8.18+commit.87f61d96.Emscripten.clang"
  },
  "schemaVersion": "3.4.12",
  "updatedAt": "2023-04-06T06:36:37.915Z",
  "networkType": "ethereum",
  "devdoc": {
    "kind": "dev",
    "methods": {},
    "version": 1
  },
  "userdoc": {
    "kind": "user",
    "methods": {},
    "version": 1
  }
}