{
  "contractName": "MedicalNFT",
  "abi": [
    {
      "inputs": [],
      "stateMutability": "nonpayable",
      "type": "constructor"
    },
    {
      "anonymous": false,
      "inputs": [
        {
          "indexed": true,
          "internalType": "address",
          "name": "owner",
          "type": "address"
        },
        {
          "indexed": true,
          "internalType": "address",
          "name": "approved",
          "type": "address"
        },
        {
          "indexed": true,
          "internalType": "uint256",
          "name": "tokenId",
          "type": "uint256"
        }
      ],
      "name": "Approval",
      "type": "event"
    },
    {
      "anonymous": false,
      "inputs": [
        {
          "indexed": true,
          "internalType": "address",
          "name": "owner",
          "type": "address"
        },
        {
          "indexed": true,
          "internalType": "address",
          "name": "operator",
          "type": "address"
        },
        {
          "indexed": false,
          "internalType": "bool",
          "name": "approved",
          "type": "bool"
        }
      ],
      "name": "ApprovalForAll",
      "type": "event"
    },
    {
      "anonymous": false,
      "inputs": [
        {
          "indexed": true,
          "internalType": "address",
          "name": "previousOwner",
          "type": "address"
        },
        {
          "indexed": true,
          "internalType": "address",
          "name": "newOwner",
          "type": "address"
        }
      ],
      "name": "OwnershipTransferred",
      "type": "event"
    },
    {
      "anonymous": false,
      "inputs": [
        {
          "indexed": true,
          "internalType": "address",
          "name": "from",
          "type": "address"
        },
        {
          "indexed": true,
          "internalType": "address",
          "name": "to",
          "type": "address"
        },
        {
          "indexed": true,
          "internalType": "uint256",
          "name": "tokenId",
          "type": "uint256"
        }
      ],
      "name": "Transfer",
      "type": "event"
    },
    {
      "inputs": [
        {
          "internalType": "uint256",
          "name": "",
          "type": "uint256"
        }
      ],
      "name": "_blocked",
      "outputs": [
        {
          "internalType": "address",
          "name": "_address",
          "type": "address"
        },
        {
          "internalType": "bool",
          "name": "_isblocked",
          "type": "bool"
        }
      ],
      "stateMutability": "view",
      "type": "function",
      "constant": true
    },
    {
      "inputs": [],
      "name": "_blockedCounter",
      "outputs": [
        {
          "internalType": "uint256",
          "name": "",
          "type": "uint256"
        }
      ],
      "stateMutability": "view",
      "type": "function",
      "constant": true
    },
    {
      "inputs": [
        {
          "internalType": "address",
          "name": "",
          "type": "address"
        },
        {
          "internalType": "uint256",
          "name": "",
          "type": "uint256"
        }
      ],
      "name": "_buyRequests",
      "outputs": [
        {
          "internalType": "address",
          "name": "buyer",
          "type": "address"
        },
        {
          "internalType": "address",
          "name": "owner",
          "type": "address"
        },
        {
          "internalType": "uint256",
          "name": "tokenId",
          "type": "uint256"
        },
        {
          "internalType": "uint256",
          "name": "date",
          "type": "uint256"
        },
        {
          "internalType": "bool",
          "name": "isCompleted",
          "type": "bool"
        },
        {
          "internalType": "bool",
          "name": "isAccepted",
          "type": "bool"
        }
      ],
      "stateMutability": "view",
      "type": "function",
      "constant": true
    },
    {
      "inputs": [],
      "name": "_buyRequestsCounter",
      "outputs": [
        {
          "internalType": "uint256",
          "name": "",
          "type": "uint256"
        }
      ],
      "stateMutability": "view",
      "type": "function",
      "constant": true
    },
    {
      "inputs": [],
      "name": "_tokenIdCounter",
      "outputs": [
        {
          "internalType": "uint256",
          "name": "",
          "type": "uint256"
        }
      ],
      "stateMutability": "view",
      "type": "function",
      "constant": true
    },
    {
      "inputs": [
        {
          "internalType": "address",
          "name": "to",
          "type": "address"
        },
        {
          "internalType": "uint256",
          "name": "tokenId",
          "type": "uint256"
        }
      ],
      "name": "approve",
      "outputs": [],
      "stateMutability": "nonpayable",
      "type": "function"
    },
    {
      "inputs": [
        {
          "internalType": "address",
          "name": "owner",
          "type": "address"
        }
      ],
      "name": "balanceOf",
      "outputs": [
        {
          "internalType": "uint256",
          "name": "",
          "type": "uint256"
        }
      ],
      "stateMutability": "view",
      "type": "function",
      "constant": true
    },
    {
      "inputs": [
        {
          "internalType": "uint256",
          "name": "tokenId",
          "type": "uint256"
        }
      ],
      "name": "getApproved",
      "outputs": [
        {
          "internalType": "address",
          "name": "",
          "type": "address"
        }
      ],
      "stateMutability": "view",
      "type": "function",
      "constant": true
    },
    {
      "inputs": [
        {
          "internalType": "address",
          "name": "owner",
          "type": "address"
        },
        {
          "internalType": "address",
          "name": "operator",
          "type": "address"
        }
      ],
      "name": "isApprovedForAll",
      "outputs": [
        {
          "internalType": "bool",
          "name": "",
          "type": "bool"
        }
      ],
      "stateMutability": "view",
      "type": "function",
      "constant": true
    },
    {
      "inputs": [],
      "name": "name",
      "outputs": [
        {
          "internalType": "string",
          "name": "",
          "type": "string"
        }
      ],
      "stateMutability": "view",
      "type": "function",
      "constant": true
    },
    {
      "inputs": [],
      "name": "owner",
      "outputs": [
        {
          "internalType": "address",
          "name": "",
          "type": "address"
        }
      ],
      "stateMutability": "view",
      "type": "function",
      "constant": true
    },
    {
      "inputs": [
        {
          "internalType": "uint256",
          "name": "tokenId",
          "type": "uint256"
        }
      ],
      "name": "ownerOf",
      "outputs": [
        {
          "internalType": "address",
          "name": "",
          "type": "address"
        }
      ],
      "stateMutability": "view",
      "type": "function",
      "constant": true
    },
    {
      "inputs": [],
      "name": "renounceOwnership",
      "outputs": [],
      "stateMutability": "nonpayable",
      "type": "function"
    },
    {
      "inputs": [
        {
          "internalType": "address",
          "name": "from",
          "type": "address"
        },
        {
          "internalType": "address",
          "name": "to",
          "type": "address"
        },
        {
          "internalType": "uint256",
          "name": "tokenId",
          "type": "uint256"
        }
      ],
      "name": "safeTransferFrom",
      "outputs": [],
      "stateMutability": "nonpayable",
      "type": "function"
    },
    {
      "inputs": [
        {
          "internalType": "address",
          "name": "from",
          "type": "address"
        },
        {
          "internalType": "address",
          "name": "to",
          "type": "address"
        },
        {
          "internalType": "uint256",
          "name": "tokenId",
          "type": "uint256"
        },
        {
          "internalType": "bytes",
          "name": "data",
          "type": "bytes"
        }
      ],
      "name": "safeTransferFrom",
      "outputs": [],
      "stateMutability": "nonpayable",
      "type": "function"
    },
    {
      "inputs": [
        {
          "internalType": "address",
          "name": "operator",
          "type": "address"
        },
        {
          "internalType": "bool",
          "name": "approved",
          "type": "bool"
        }
      ],
      "name": "setApprovalForAll",
      "outputs": [],
      "stateMutability": "nonpayable",
      "type": "function"
    },
    {
      "inputs": [
        {
          "internalType": "bytes4",
          "name": "interfaceId",
          "type": "bytes4"
        }
      ],
      "name": "supportsInterface",
      "outputs": [
        {
          "internalType": "bool",
          "name": "",
          "type": "bool"
        }
      ],
      "stateMutability": "view",
      "type": "function",
      "constant": true
    },
    {
      "inputs": [],
      "name": "symbol",
      "outputs": [
        {
          "internalType": "string",
          "name": "",
          "type": "string"
        }
      ],
      "stateMutability": "view",
      "type": "function",
      "constant": true
    },
    {
      "inputs": [
        {
          "internalType": "uint256",
          "name": "tokenId",
          "type": "uint256"
        }
      ],
      "name": "tokenURI",
      "outputs": [
        {
          "internalType": "string",
          "name": "",
          "type": "string"
        }
      ],
      "stateMutability": "view",
      "type": "function",
      "constant": true
    },
    {
      "inputs": [
        {
          "internalType": "address",
          "name": "from",
          "type": "address"
        },
        {
          "internalType": "address",
          "name": "to",
          "type": "address"
        },
        {
          "internalType": "uint256",
          "name": "tokenId",
          "type": "uint256"
        }
      ],
      "name": "transferFrom",
      "outputs": [],
      "stateMutability": "nonpayable",
      "type": "function"
    },
    {
      "inputs": [
        {
          "internalType": "address",
          "name": "newOwner",
          "type": "address"
        }
      ],
      "name": "transferOwnership",
      "outputs": [],
      "stateMutability": "nonpayable",
      "type": "function"
    },
    {
      "inputs": [
        {
          "internalType": "address",
          "name": "_patient",
          "type": "address"
        }
      ],
      "name": "toggleBlock",
      "outputs": [],
      "stateMutability": "nonpayable",
      "type": "function"
    },
    {
      "inputs": [
        {
          "internalType": "address",
          "name": "_patient",
          "type": "address"
        }
      ],
      "name": "_isblocked",
      "outputs": [
        {
          "internalType": "bool",
          "name": "",
          "type": "bool"
        }
      ],
      "stateMutability": "view",
      "type": "function",
      "constant": true
    },
    {
      "inputs": [
        {
          "internalType": "uint256",
          "name": "_tokenId",
          "type": "uint256"
        }
      ],
      "name": "addBuyRequest",
      "outputs": [],
      "stateMutability": "nonpayable",
      "type": "function"
    },
    {
      "inputs": [
        {
          "internalType": "address",
          "name": "_buyer",
          "type": "address"
        },
        {
          "internalType": "uint256",
          "name": "_tokenId",
          "type": "uint256"
        }
      ],
      "name": "approveBuyRequest",
      "outputs": [],
      "stateMutability": "payable",
      "type": "function",
      "payable": true
    },
    {
      "inputs": [
        {
          "internalType": "address",
          "name": "_buyer",
          "type": "address"
        },
        {
          "internalType": "uint256",
          "name": "_tokenId",
          "type": "uint256"
        }
      ],
      "name": "rejectBuyRequest",
      "outputs": [],
      "stateMutability": "nonpayable",
      "type": "function"
    },
    {
      "inputs": [
        {
          "internalType": "string",
          "name": "name",
          "type": "string"
        },
        {
          "internalType": "uint256",
          "name": "price",
          "type": "uint256"
        },
        {
          "internalType": "string",
          "name": "data",
          "type": "string"
        },
        {
          "internalType": "uint256",
          "name": "period",
          "type": "uint256"
        }
      ],
      "name": "mint",
      "outputs": [],
      "stateMutability": "nonpayable",
      "type": "function"
    },
    {
      "inputs": [
        {
          "internalType": "uint256",
          "name": "tokenId",
          "type": "uint256"
        }
      ],
      "name": "getTokenData",
      "outputs": [
        {
          "components": [
            {
              "internalType": "uint256",
              "name": "tokenId",
              "type": "uint256"
            },
            {
              "internalType": "string",
              "name": "name",
              "type": "string"
            },
            {
              "internalType": "address",
              "name": "owner",
              "type": "address"
            },
            {
              "internalType": "uint256",
              "name": "date",
              "type": "uint256"
            },
            {
              "internalType": "uint256",
              "name": "price",
              "type": "uint256"
            },
            {
              "internalType": "string",
              "name": "data",
              "type": "string"
            },
            {
              "internalType": "address[]",
              "name": "buyers",
              "type": "address[]"
            },
            {
              "internalType": "uint256",
              "name": "period",
              "type": "uint256"
            }
          ],
          "internalType": "struct MedicalNFT.MedicalData",
          "name": "",
          "type": "tuple"
        }
      ],
      "stateMutability": "view",
      "type": "function",
      "constant": true
    }
  ],
  "bytecode": "0x60806040523480156200001157600080fd5b506040518060400160405280600a81526020017f4d65646963616c4e4654000000000000000000000000000000000000000000008152506040518060400160405280600381526020017f4d4544000000000000000000000000000000000000000000000000000000000081525081600090816200008f919062000412565b508060019081620000a1919062000412565b505050620000c4620000b8620000ca60201b60201c565b620000d260201b60201c565b620004f9565b600033905090565b6000600660009054906101000a900473ffffffffffffffffffffffffffffffffffffffff16905081600660006101000a81548173ffffffffffffffffffffffffffffffffffffffff021916908373ffffffffffffffffffffffffffffffffffffffff1602179055508173ffffffffffffffffffffffffffffffffffffffff168173ffffffffffffffffffffffffffffffffffffffff167f8be0079c531659141344cd1fd0a4f28419497f9722a3daafe3b4186f6b6457e060405160405180910390a35050565b600081519050919050565b7f4e487b7100000000000000000000000000000000000000000000000000000000600052604160045260246000fd5b7f4e487b7100000000000000000000000000000000000000000000000000000000600052602260045260246000fd5b600060028204905060018216806200021a57607f821691505b60208210810362000230576200022f620001d2565b5b50919050565b60008190508160005260206000209050919050565b60006020601f8301049050919050565b600082821b905092915050565b6000600883026200029a7fffffffffffffffffffffffffffffffffffffffffffffffffffffffffffffffff826200025b565b620002a686836200025b565b95508019841693508086168417925050509392505050565b6000819050919050565b6000819050919050565b6000620002f3620002ed620002e784620002be565b620002c8565b620002be565b9050919050565b6000819050919050565b6200030f83620002d2565b620003276200031e82620002fa565b84845462000268565b825550505050565b600090565b6200033e6200032f565b6200034b81848462000304565b505050565b5b8181101562000373576200036760008262000334565b60018101905062000351565b5050565b601f821115620003c2576200038c8162000236565b62000397846200024b565b81016020851015620003a7578190505b620003bf620003b6856200024b565b83018262000350565b50505b505050565b600082821c905092915050565b6000620003e760001984600802620003c7565b1980831691505092915050565b6000620004028383620003d4565b9150826002028217905092915050565b6200041d8262000198565b67ffffffffffffffff811115620004395762000438620001a3565b5b62000445825462000201565b6200045282828562000377565b600060209050601f8311600181146200048a576000841562000475578287015190505b620004818582620003f4565b865550620004f1565b601f1984166200049a8662000236565b60005b82811015620004c4578489015182556001820191506020850194506020810190506200049d565b86831015620004e45784890151620004e0601f891682620003d4565b8355505b6001600288020188555050505b505050505050565b614dd480620005096000396000f3fe6080604052600436106101b75760003560e01c806384c4bd4b116100ec578063b2c7c8921161008a578063e985e9c511610064578063e985e9c514610639578063ede1dd0614610676578063f14e32411461069f578063f2fde38b146106ca576101b7565b8063b2c7c892146105a8578063b88d4fde146105d3578063c87b56dd146105fc576101b7565b806395d89b41116100c657806395d89b41146104fb578063a22cb46514610526578063ac982f821461054f578063b09afec11461056b576101b7565b806384c4bd4b1461047c5780638c64e583146104a75780638da5cb5b146104d0576101b7565b80631afc0e2d116101595780636352211e116101335780636352211e146103ae57806370a08231146103eb578063715018a61461042857806383588bdd1461043f576101b7565b80631afc0e2d1461033357806323b872dd1461035c57806342842e0e14610385576101b7565b8063081812fc11610195578063081812fc1461024d578063095ea7b31461028a5780630b5a9629146102b35780630fc18f72146102f5576101b7565b806301ffc9a7146101bc57806302914af4146101f957806306fdde0314610222575b600080fd5b3480156101c857600080fd5b506101e360048036038101906101de91906134d5565b6106f3565b6040516101f0919061351d565b60405180910390f35b34801561020557600080fd5b50610220600480360381019061021b919061356e565b6107d5565b005b34801561022e57600080fd5b50610237610abb565b604051610244919061362b565b60405180910390f35b34801561025957600080fd5b50610274600480360381019061026f919061356e565b610b4d565b604051610281919061368e565b60405180910390f35b34801561029657600080fd5b506102b160048036038101906102ac91906136d5565b610b93565b005b3480156102bf57600080fd5b506102da60048036038101906102d591906136d5565b610caa565b6040516102ec96959493929190613724565b60405180910390f35b34801561030157600080fd5b5061031c6004803603810190610317919061356e565b610d5d565b60405161032a929190613785565b60405180910390f35b34801561033f57600080fd5b5061035a600480360381019061035591906136d5565b610dae565b005b34801561036857600080fd5b50610383600480360381019061037e91906137ae565b61107a565b005b34801561039157600080fd5b506103ac60048036038101906103a791906137ae565b6110da565b005b3480156103ba57600080fd5b506103d560048036038101906103d0919061356e565b6110fa565b6040516103e2919061368e565b60405180910390f35b3480156103f757600080fd5b50610412600480360381019061040d9190613801565b611180565b60405161041f919061382e565b60405180910390f35b34801561043457600080fd5b5061043d611237565b005b34801561044b57600080fd5b5061046660048036038101906104619190613801565b61124b565b604051610473919061351d565b60405180910390f35b34801561048857600080fd5b50610491611322565b60405161049e919061382e565b60405180910390f35b3480156104b357600080fd5b506104ce60048036038101906104c99190613801565b611328565b005b3480156104dc57600080fd5b506104e5611410565b6040516104f2919061368e565b60405180910390f35b34801561050757600080fd5b5061051061143a565b60405161051d919061362b565b60405180910390f35b34801561053257600080fd5b5061054d60048036038101906105489190613875565b6114cc565b005b610569600480360381019061056491906136d5565b6114e2565b005b34801561057757600080fd5b50610592600480360381019061058d919061356e565b6118b8565b60405161059f9190613a8a565b60405180910390f35b3480156105b457600080fd5b506105bd611b5e565b6040516105ca919061382e565b60405180910390f35b3480156105df57600080fd5b506105fa60048036038101906105f59190613be1565b611b64565b005b34801561060857600080fd5b50610623600480360381019061061e919061356e565b611bc6565b604051610630919061362b565b60405180910390f35b34801561064557600080fd5b50610660600480360381019061065b9190613c64565b611c2e565b60405161066d919061351d565b60405180910390f35b34801561068257600080fd5b5061069d60048036038101906106989190613d45565b611cc2565b005b3480156106ab57600080fd5b506106b46120d3565b6040516106c1919061382e565b60405180910390f35b3480156106d657600080fd5b506106f160048036038101906106ec9190613801565b6120d9565b005b60007f80ac58cd000000000000000000000000000000000000000000000000000000007bffffffffffffffffffffffffffffffffffffffffffffffffffffffff1916827bffffffffffffffffffffffffffffffffffffffffffffffffffffffff191614806107be57507f5b5e139f000000000000000000000000000000000000000000000000000000007bffffffffffffffffffffffffffffffffffffffffffffffffffffffff1916827bffffffffffffffffffffffffffffffffffffffffffffffffffffffff1916145b806107ce57506107cd8261215c565b5b9050919050565b6107df81336121c6565b1561081f576040517f08c379a000000000000000000000000000000000000000000000000000000000815260040161081690613e56565b60405180910390fd5b6108298133612245565b15610869576040517f08c379a000000000000000000000000000000000000000000000000000000000815260040161086090613ec2565b60405180910390fd5b610873813361231c565b156108b3576040517f08c379a00000000000000000000000000000000000000000000000000000000081526004016108aa90613f2e565b60405180910390fd5b6000600a600083815260200190815260200160002060020160009054906101000a900473ffffffffffffffffffffffffffffffffffffffff16905060006040518060c001604052803373ffffffffffffffffffffffffffffffffffffffff1681526020018373ffffffffffffffffffffffffffffffffffffffff168152602001848152602001428152602001600015158152602001600015158152509050600b60008373ffffffffffffffffffffffffffffffffffffffff1673ffffffffffffffffffffffffffffffffffffffff16815260200190815260200160002081908060018154018082558091505060019003906000526020600020906005020160009091909190915060008201518160000160006101000a81548173ffffffffffffffffffffffffffffffffffffffff021916908373ffffffffffffffffffffffffffffffffffffffff16021790555060208201518160010160006101000a81548173ffffffffffffffffffffffffffffffffffffffff021916908373ffffffffffffffffffffffffffffffffffffffff160217905550604082015181600201556060820151816003015560808201518160040160006101000a81548160ff02191690831515021790555060a08201518160040160016101000a81548160ff021916908315150217905550505060086000815480929190610ab190613f7d565b9190505550505050565b606060008054610aca90613ff4565b80601f0160208091040260200160405190810160405280929190818152602001828054610af690613ff4565b8015610b435780601f10610b1857610100808354040283529160200191610b43565b820191906000526020600020905b815481529060010190602001808311610b2657829003601f168201915b5050505050905090565b6000610b58826124bf565b6004600083815260200190815260200160002060009054906101000a900473ffffffffffffffffffffffffffffffffffffffff169050919050565b6000610b9e826110fa565b90508073ffffffffffffffffffffffffffffffffffffffff168373ffffffffffffffffffffffffffffffffffffffff1603610c0e576040517f08c379a0000000000000000000000000000000000000000000000000000000008152600401610c0590614097565b60405180910390fd5b8073ffffffffffffffffffffffffffffffffffffffff16610c2d61250a565b73ffffffffffffffffffffffffffffffffffffffff161480610c5c5750610c5b81610c5661250a565b611c2e565b5b610c9b576040517f08c379a0000000000000000000000000000000000000000000000000000000008152600401610c9290614129565b60405180910390fd5b610ca58383612512565b505050565b600b6020528160005260406000208181548110610cc657600080fd5b9060005260206000209060050201600091509150508060000160009054906101000a900473ffffffffffffffffffffffffffffffffffffffff16908060010160009054906101000a900473ffffffffffffffffffffffffffffffffffffffff16908060020154908060030154908060040160009054906101000a900460ff16908060040160019054906101000a900460ff16905086565b600c6020528060005260406000206000915090508060000160009054906101000a900473ffffffffffffffffffffffffffffffffffffffff16908060000160149054906101000a900460ff16905082565b610db8818361231c565b610df7576040517f08c379a0000000000000000000000000000000000000000000000000000000008152600401610dee90614195565b60405180910390fd5b60005b600b60003373ffffffffffffffffffffffffffffffffffffffff1673ffffffffffffffffffffffffffffffffffffffff16815260200190815260200160002080549050811015611075578273ffffffffffffffffffffffffffffffffffffffff16600b60003373ffffffffffffffffffffffffffffffffffffffff1673ffffffffffffffffffffffffffffffffffffffff1681526020019081526020016000208281548110610eac57610eab6141b5565b5b906000526020600020906005020160000160009054906101000a900473ffffffffffffffffffffffffffffffffffffffff1673ffffffffffffffffffffffffffffffffffffffff16148015610f62575081600b60003373ffffffffffffffffffffffffffffffffffffffff1673ffffffffffffffffffffffffffffffffffffffff1681526020019081526020016000208281548110610f4e57610f4d6141b5565b5b906000526020600020906005020160020154145b15611062576000600b60003373ffffffffffffffffffffffffffffffffffffffff1673ffffffffffffffffffffffffffffffffffffffff1681526020019081526020016000208281548110610fba57610fb96141b5565b5b906000526020600020906005020160040160016101000a81548160ff0219169083151502179055506001600b60003373ffffffffffffffffffffffffffffffffffffffff1673ffffffffffffffffffffffffffffffffffffffff1681526020019081526020016000208281548110611035576110346141b5565b5b906000526020600020906005020160040160006101000a81548160ff021916908315150217905550611075565b808061106d90613f7d565b915050610dfa565b505050565b61108b61108561250a565b826125cb565b6110ca576040517f08c379a00000000000000000000000000000000000000000000000000000000081526004016110c190614256565b60405180910390fd5b6110d5838383612660565b505050565b6110f583838360405180602001604052806000815250611b64565b505050565b60008061110683612959565b9050600073ffffffffffffffffffffffffffffffffffffffff168173ffffffffffffffffffffffffffffffffffffffff1603611177576040517f08c379a000000000000000000000000000000000000000000000000000000000815260040161116e906142c2565b60405180910390fd5b80915050919050565b60008073ffffffffffffffffffffffffffffffffffffffff168273ffffffffffffffffffffffffffffffffffffffff16036111f0576040517f08c379a00000000000000000000000000000000000000000000000000000000081526004016111e790614354565b60405180910390fd5b600360008373ffffffffffffffffffffffffffffffffffffffff1673ffffffffffffffffffffffffffffffffffffffff168152602001908152602001600020549050919050565b61123f612996565b6112496000612a14565b565b600080600090505b600954811015611317578273ffffffffffffffffffffffffffffffffffffffff16600c600083815260200190815260200160002060000160009054906101000a900473ffffffffffffffffffffffffffffffffffffffff1673ffffffffffffffffffffffffffffffffffffffff161480156112f5575060011515600c600083815260200190815260200160002060000160149054906101000a900460ff161515145b1561130457600191505061131d565b808061130f90613f7d565b915050611253565b50600090505b919050565b60075481565b611330612996565b60005b60095481101561140c578173ffffffffffffffffffffffffffffffffffffffff16600c600083815260200190815260200160002060000160009054906101000a900473ffffffffffffffffffffffffffffffffffffffff1673ffffffffffffffffffffffffffffffffffffffff16036113f957600c600082815260200190815260200160002060000160149054906101000a900460ff1615600c600083815260200190815260200160002060000160146101000a81548160ff0219169083151502179055505b808061140490613f7d565b915050611333565b5050565b6000600660009054906101000a900473ffffffffffffffffffffffffffffffffffffffff16905090565b60606001805461144990613ff4565b80601f016020809104026020016040519081016040528092919081815260200182805461147590613ff4565b80156114c25780601f10611497576101008083540402835291602001916114c2565b820191906000526020600020905b8154815290600101906020018083116114a557829003601f168201915b5050505050905090565b6114de6114d761250a565b8383612ada565b5050565b6114ec818361231c565b61152b576040517f08c379a000000000000000000000000000000000000000000000000000000000815260040161152290614195565b60405180910390fd5b60005b600b60003373ffffffffffffffffffffffffffffffffffffffff1673ffffffffffffffffffffffffffffffffffffffff168152602001908152602001600020805490508110156118b3578273ffffffffffffffffffffffffffffffffffffffff16600b60003373ffffffffffffffffffffffffffffffffffffffff1673ffffffffffffffffffffffffffffffffffffffff16815260200190815260200160002082815481106115e0576115df6141b5565b5b906000526020600020906005020160000160009054906101000a900473ffffffffffffffffffffffffffffffffffffffff1673ffffffffffffffffffffffffffffffffffffffff16148015611696575081600b60003373ffffffffffffffffffffffffffffffffffffffff1673ffffffffffffffffffffffffffffffffffffffff1681526020019081526020016000208281548110611682576116816141b5565b5b906000526020600020906005020160020154145b156118a0576001600b60003373ffffffffffffffffffffffffffffffffffffffff1673ffffffffffffffffffffffffffffffffffffffff16815260200190815260200160002082815481106116ee576116ed6141b5565b5b906000526020600020906005020160040160016101000a81548160ff0219169083151502179055506001600b60003373ffffffffffffffffffffffffffffffffffffffff1673ffffffffffffffffffffffffffffffffffffffff1681526020019081526020016000208281548110611769576117686141b5565b5b906000526020600020906005020160040160006101000a81548160ff021916908315150217905550600a600083815260200190815260200160002060020160009054906101000a900473ffffffffffffffffffffffffffffffffffffffff1673ffffffffffffffffffffffffffffffffffffffff166108fc600a6000858152602001908152602001600020600401549081150290604051600060405180830381858888f19350505050158015611823573d6000803e3d6000fd5b50600a6000838152602001908152602001600020600601839080600181540180825580915050600190039060005260206000200160009091909190916101000a81548173ffffffffffffffffffffffffffffffffffffffff021916908373ffffffffffffffffffffffffffffffffffffffff1602179055506118b3565b80806118ab90613f7d565b91505061152e565b505050565b6118c0613367565b6118c982612c46565b611908576040517f08c379a00000000000000000000000000000000000000000000000000000000081526004016118ff906143c0565b60405180910390fd5b600a6000838152602001908152602001600020604051806101000160405290816000820154815260200160018201805461194190613ff4565b80601f016020809104026020016040519081016040528092919081815260200182805461196d90613ff4565b80156119ba5780601f1061198f576101008083540402835291602001916119ba565b820191906000526020600020905b81548152906001019060200180831161199d57829003601f168201915b505050505081526020016002820160009054906101000a900473ffffffffffffffffffffffffffffffffffffffff1673ffffffffffffffffffffffffffffffffffffffff1673ffffffffffffffffffffffffffffffffffffffff1681526020016003820154815260200160048201548152602001600582018054611a3d90613ff4565b80601f0160208091040260200160405190810160405280929190818152602001828054611a6990613ff4565b8015611ab65780601f10611a8b57610100808354040283529160200191611ab6565b820191906000526020600020905b815481529060010190602001808311611a9957829003601f168201915b5050505050815260200160068201805480602002602001604051908101604052809291908181526020018280548015611b4457602002820191906000526020600020905b8160009054906101000a900473ffffffffffffffffffffffffffffffffffffffff1673ffffffffffffffffffffffffffffffffffffffff1681526020019060010190808311611afa575b505050505081526020016007820154815250509050919050565b60085481565b611b75611b6f61250a565b836125cb565b611bb4576040517f08c379a0000000000000000000000000000000000000000000000000000000008152600401611bab90614256565b60405180910390fd5b611bc084848484612c87565b50505050565b6060611bd1826124bf565b6000611bdb612ce3565b90506000815111611bfb5760405180602001604052806000815250611c26565b80611c0584612cfa565b604051602001611c1692919061441c565b6040516020818303038152906040525b915050919050565b6000600560008473ffffffffffffffffffffffffffffffffffffffff1673ffffffffffffffffffffffffffffffffffffffff16815260200190815260200160002060008373ffffffffffffffffffffffffffffffffffffffff1673ffffffffffffffffffffffffffffffffffffffff16815260200190815260200160002060009054906101000a900460ff16905092915050565b611ccb3361124b565b15611d0b576040517f08c379a0000000000000000000000000000000000000000000000000000000008152600401611d02906144b2565b60405180910390fd5b6000845111611d4f576040517f08c379a0000000000000000000000000000000000000000000000000000000008152600401611d469061451e565b60405180910390fd5b6000825111611d93576040517f08c379a0000000000000000000000000000000000000000000000000000000008152600401611d8a9061458a565b60405180910390fd5b60008311611dd6576040517f08c379a0000000000000000000000000000000000000000000000000000000008152600401611dcd906145f6565b60405180910390fd5b611de233600754612dc8565b600060405180610100016040528060075481526020018681526020013373ffffffffffffffffffffffffffffffffffffffff168152602001428152602001858152602001848152602001600067ffffffffffffffff811115611e4757611e46613ab6565b5b604051908082528060200260200182016040528015611e755781602001602082028036833780820191505090505b50815260200183815250905080600a60006007548152602001908152602001600020600082015181600001556020820151816001019081611eb691906147c2565b5060408201518160020160006101000a81548173ffffffffffffffffffffffffffffffffffffffff021916908373ffffffffffffffffffffffffffffffffffffffff160217905550606082015181600301556080820151816004015560a0820151816005019081611f2791906147c2565b5060c0820151816006019080519060200190611f449291906133c2565b5060e0820151816007015590505060076000815480929190611f6590613f7d565b91905055506000805b600954811015611ff9573373ffffffffffffffffffffffffffffffffffffffff16600c600083815260200190815260200160002060000160009054906101000a900473ffffffffffffffffffffffffffffffffffffffff1673ffffffffffffffffffffffffffffffffffffffff1603611fe657600191505b8080611ff190613f7d565b915050611f6e565b50806120cb57600060405180604001604052803373ffffffffffffffffffffffffffffffffffffffff16815260200160001515815250905080600c6000600954815260200190815260200160002060008201518160000160006101000a81548173ffffffffffffffffffffffffffffffffffffffff021916908373ffffffffffffffffffffffffffffffffffffffff16021790555060208201518160000160146101000a81548160ff021916908315150217905550905050600960008154809291906120c490613f7d565b9190505550505b505050505050565b60095481565b6120e1612996565b600073ffffffffffffffffffffffffffffffffffffffff168173ffffffffffffffffffffffffffffffffffffffff1603612150576040517f08c379a000000000000000000000000000000000000000000000000000000000815260040161214790614906565b60405180910390fd5b61215981612a14565b50565b60007f01ffc9a7000000000000000000000000000000000000000000000000000000007bffffffffffffffffffffffffffffffffffffffffffffffffffffffff1916827bffffffffffffffffffffffffffffffffffffffffffffffffffffffff1916149050919050565b60008173ffffffffffffffffffffffffffffffffffffffff16600a600085815260200190815260200160002060020160009054906101000a900473ffffffffffffffffffffffffffffffffffffffff1673ffffffffffffffffffffffffffffffffffffffff160361223a576001905061223f565b600090505b92915050565b600080600090505b600a600085815260200190815260200160002060060180549050811015612310578273ffffffffffffffffffffffffffffffffffffffff16600a600086815260200190815260200160002060060182815481106122ad576122ac6141b5565b5b9060005260206000200160009054906101000a900473ffffffffffffffffffffffffffffffffffffffff1673ffffffffffffffffffffffffffffffffffffffff16036122fd576001915050612316565b808061230890613f7d565b91505061224d565b50600090505b92915050565b600080600a600085815260200190815260200160002060020160009054906101000a900473ffffffffffffffffffffffffffffffffffffffff1690506000600b60008373ffffffffffffffffffffffffffffffffffffffff1673ffffffffffffffffffffffffffffffffffffffff168152602001908152602001600020905060005b81805490508110156124b1578473ffffffffffffffffffffffffffffffffffffffff168282815481106123d4576123d36141b5565b5b906000526020600020906005020160000160009054906101000a900473ffffffffffffffffffffffffffffffffffffffff1673ffffffffffffffffffffffffffffffffffffffff1614801561244c575085828281548110612438576124376141b5565b5b906000526020600020906005020160020154145b801561248d57506000151582828154811061246a576124696141b5565b5b906000526020600020906005020160040160009054906101000a900460ff161515145b1561249e57600193505050506124b9565b80806124a990613f7d565b91505061239e565b506000925050505b92915050565b6124c881612c46565b612507576040517f08c379a00000000000000000000000000000000000000000000000000000000081526004016124fe906142c2565b60405180910390fd5b50565b600033905090565b816004600083815260200190815260200160002060006101000a81548173ffffffffffffffffffffffffffffffffffffffff021916908373ffffffffffffffffffffffffffffffffffffffff160217905550808273ffffffffffffffffffffffffffffffffffffffff16612585836110fa565b73ffffffffffffffffffffffffffffffffffffffff167f8c5be1e5ebec7d5bd14f71427d1e84f3dd0314c0f7b2291e5b200ac8c7c3b92560405160405180910390a45050565b6000806125d7836110fa565b90508073ffffffffffffffffffffffffffffffffffffffff168473ffffffffffffffffffffffffffffffffffffffff16148061261957506126188185611c2e565b5b8061265757508373ffffffffffffffffffffffffffffffffffffffff1661263f84610b4d565b73ffffffffffffffffffffffffffffffffffffffff16145b91505092915050565b8273ffffffffffffffffffffffffffffffffffffffff16612680826110fa565b73ffffffffffffffffffffffffffffffffffffffff16146126d6576040517f08c379a00000000000000000000000000000000000000000000000000000000081526004016126cd90614998565b60405180910390fd5b600073ffffffffffffffffffffffffffffffffffffffff168273ffffffffffffffffffffffffffffffffffffffff1603612745576040517f08c379a000000000000000000000000000000000000000000000000000000000815260040161273c90614a2a565b60405180910390fd5b6127528383836001612de6565b8273ffffffffffffffffffffffffffffffffffffffff16612772826110fa565b73ffffffffffffffffffffffffffffffffffffffff16146127c8576040517f08c379a00000000000000000000000000000000000000000000000000000000081526004016127bf90614998565b60405180910390fd5b6004600082815260200190815260200160002060006101000a81549073ffffffffffffffffffffffffffffffffffffffff02191690556001600360008573ffffffffffffffffffffffffffffffffffffffff1673ffffffffffffffffffffffffffffffffffffffff168152602001908152602001600020600082825403925050819055506001600360008473ffffffffffffffffffffffffffffffffffffffff1673ffffffffffffffffffffffffffffffffffffffff16815260200190815260200160002060008282540192505081905550816002600083815260200190815260200160002060006101000a81548173ffffffffffffffffffffffffffffffffffffffff021916908373ffffffffffffffffffffffffffffffffffffffff160217905550808273ffffffffffffffffffffffffffffffffffffffff168473ffffffffffffffffffffffffffffffffffffffff167fddf252ad1be2c89b69c2b068fc378daa952ba7f163c4a11628f55a4df523b3ef60405160405180910390a46129548383836001612dec565b505050565b60006002600083815260200190815260200160002060009054906101000a900473ffffffffffffffffffffffffffffffffffffffff169050919050565b61299e61250a565b73ffffffffffffffffffffffffffffffffffffffff166129bc611410565b73ffffffffffffffffffffffffffffffffffffffff1614612a12576040517f08c379a0000000000000000000000000000000000000000000000000000000008152600401612a0990614a96565b60405180910390fd5b565b6000600660009054906101000a900473ffffffffffffffffffffffffffffffffffffffff16905081600660006101000a81548173ffffffffffffffffffffffffffffffffffffffff021916908373ffffffffffffffffffffffffffffffffffffffff1602179055508173ffffffffffffffffffffffffffffffffffffffff168173ffffffffffffffffffffffffffffffffffffffff167f8be0079c531659141344cd1fd0a4f28419497f9722a3daafe3b4186f6b6457e060405160405180910390a35050565b8173ffffffffffffffffffffffffffffffffffffffff168373ffffffffffffffffffffffffffffffffffffffff1603612b48576040517f08c379a0000000000000000000000000000000000000000000000000000000008152600401612b3f90614b02565b60405180910390fd5b80600560008573ffffffffffffffffffffffffffffffffffffffff1673ffffffffffffffffffffffffffffffffffffffff16815260200190815260200160002060008473ffffffffffffffffffffffffffffffffffffffff1673ffffffffffffffffffffffffffffffffffffffff16815260200190815260200160002060006101000a81548160ff0219169083151502179055508173ffffffffffffffffffffffffffffffffffffffff168373ffffffffffffffffffffffffffffffffffffffff167f17307eab39ab6107e8899845ad3d59bd9653f200f220920489ca2b5937696c3183604051612c39919061351d565b60405180910390a3505050565b60008073ffffffffffffffffffffffffffffffffffffffff16612c6883612959565b73ffffffffffffffffffffffffffffffffffffffff1614159050919050565b612c92848484612660565b612c9e84848484612df2565b612cdd576040517f08c379a0000000000000000000000000000000000000000000000000000000008152600401612cd490614b94565b60405180910390fd5b50505050565b606060405180602001604052806000815250905090565b606060006001612d0984612f79565b01905060008167ffffffffffffffff811115612d2857612d27613ab6565b5b6040519080825280601f01601f191660200182016040528015612d5a5781602001600182028036833780820191505090505b509050600082602001820190505b600115612dbd578080600190039150507f3031323334353637383961626364656600000000000000000000000000000000600a86061a8153600a8581612db157612db0614bb4565b5b04945060008503612d68575b819350505050919050565b612de28282604051806020016040528060008152506130cc565b5050565b50505050565b50505050565b6000612e138473ffffffffffffffffffffffffffffffffffffffff16613127565b15612f6c578373ffffffffffffffffffffffffffffffffffffffff1663150b7a02612e3c61250a565b8786866040518563ffffffff1660e01b8152600401612e5e9493929190614c38565b6020604051808303816000875af1925050508015612e9a57506040513d601f19601f82011682018060405250810190612e979190614c99565b60015b612f1c573d8060008114612eca576040519150601f19603f3d011682016040523d82523d6000602084013e612ecf565b606091505b506000815103612f14576040517f08c379a0000000000000000000000000000000000000000000000000000000008152600401612f0b90614b94565b60405180910390fd5b805181602001fd5b63150b7a0260e01b7bffffffffffffffffffffffffffffffffffffffffffffffffffffffff1916817bffffffffffffffffffffffffffffffffffffffffffffffffffffffff191614915050612f71565b600190505b949350505050565b600080600090507a184f03e93ff9f4daa797ed6e38ed64bf6a1f0100000000000000008310612fd7577a184f03e93ff9f4daa797ed6e38ed64bf6a1f0100000000000000008381612fcd57612fcc614bb4565b5b0492506040810190505b6d04ee2d6d415b85acef81000000008310613014576d04ee2d6d415b85acef8100000000838161300a57613009614bb4565b5b0492506020810190505b662386f26fc10000831061304357662386f26fc10000838161303957613038614bb4565b5b0492506010810190505b6305f5e100831061306c576305f5e100838161306257613061614bb4565b5b0492506008810190505b612710831061309157612710838161308757613086614bb4565b5b0492506004810190505b606483106130b457606483816130aa576130a9614bb4565b5b0492506002810190505b600a83106130c3576001810190505b80915050919050565b6130d6838361314a565b6130e36000848484612df2565b613122576040517f08c379a000000000000000000000000000000000000000000000000000000000815260040161311990614b94565b60405180910390fd5b505050565b6000808273ffffffffffffffffffffffffffffffffffffffff163b119050919050565b600073ffffffffffffffffffffffffffffffffffffffff168273ffffffffffffffffffffffffffffffffffffffff16036131b9576040517f08c379a00000000000000000000000000000000000000000000000000000000081526004016131b090614d12565b60405180910390fd5b6131c281612c46565b15613202576040517f08c379a00000000000000000000000000000000000000000000000000000000081526004016131f990614d7e565b60405180910390fd5b613210600083836001612de6565b61321981612c46565b15613259576040517f08c379a000000000000000000000000000000000000000000000000000000000815260040161325090614d7e565b60405180910390fd5b6001600360008473ffffffffffffffffffffffffffffffffffffffff1673ffffffffffffffffffffffffffffffffffffffff16815260200190815260200160002060008282540192505081905550816002600083815260200190815260200160002060006101000a81548173ffffffffffffffffffffffffffffffffffffffff021916908373ffffffffffffffffffffffffffffffffffffffff160217905550808273ffffffffffffffffffffffffffffffffffffffff16600073ffffffffffffffffffffffffffffffffffffffff167fddf252ad1be2c89b69c2b068fc378daa952ba7f163c4a11628f55a4df523b3ef60405160405180910390a4613363600083836001612dec565b5050565b6040518061010001604052806000815260200160608152602001600073ffffffffffffffffffffffffffffffffffffffff16815260200160008152602001600081526020016060815260200160608152602001600081525090565b82805482825590600052602060002090810192821561343b579160200282015b8281111561343a5782518260006101000a81548173ffffffffffffffffffffffffffffffffffffffff021916908373ffffffffffffffffffffffffffffffffffffffff160217905550916020019190600101906133e2565b5b509050613448919061344c565b5090565b5b8082111561346557600081600090555060010161344d565b5090565b6000604051905090565b600080fd5b600080fd5b60007fffffffff0000000000000000000000000000000000000000000000000000000082169050919050565b6134b28161347d565b81146134bd57600080fd5b50565b6000813590506134cf816134a9565b92915050565b6000602082840312156134eb576134ea613473565b5b60006134f9848285016134c0565b91505092915050565b60008115159050919050565b61351781613502565b82525050565b6000602082019050613532600083018461350e565b92915050565b6000819050919050565b61354b81613538565b811461355657600080fd5b50565b60008135905061356881613542565b92915050565b60006020828403121561358457613583613473565b5b600061359284828501613559565b91505092915050565b600081519050919050565b600082825260208201905092915050565b60005b838110156135d55780820151818401526020810190506135ba565b60008484015250505050565b6000601f19601f8301169050919050565b60006135fd8261359b565b61360781856135a6565b93506136178185602086016135b7565b613620816135e1565b840191505092915050565b6000602082019050818103600083015261364581846135f2565b905092915050565b600073ffffffffffffffffffffffffffffffffffffffff82169050919050565b60006136788261364d565b9050919050565b6136888161366d565b82525050565b60006020820190506136a3600083018461367f565b92915050565b6136b28161366d565b81146136bd57600080fd5b50565b6000813590506136cf816136a9565b92915050565b600080604083850312156136ec576136eb613473565b5b60006136fa858286016136c0565b925050602061370b85828601613559565b9150509250929050565b61371e81613538565b82525050565b600060c082019050613739600083018961367f565b613746602083018861367f565b6137536040830187613715565b6137606060830186613715565b61376d608083018561350e565b61377a60a083018461350e565b979650505050505050565b600060408201905061379a600083018561367f565b6137a7602083018461350e565b9392505050565b6000806000606084860312156137c7576137c6613473565b5b60006137d5868287016136c0565b93505060206137e6868287016136c0565b92505060406137f786828701613559565b9150509250925092565b60006020828403121561381757613816613473565b5b6000613825848285016136c0565b91505092915050565b60006020820190506138436000830184613715565b92915050565b61385281613502565b811461385d57600080fd5b50565b60008135905061386f81613849565b92915050565b6000806040838503121561388c5761388b613473565b5b600061389a858286016136c0565b92505060206138ab85828601613860565b9150509250929050565b6138be81613538565b82525050565b600082825260208201905092915050565b60006138e08261359b565b6138ea81856138c4565b93506138fa8185602086016135b7565b613903816135e1565b840191505092915050565b6139178161366d565b82525050565b600081519050919050565b600082825260208201905092915050565b6000819050602082019050919050565b6000613955838361390e565b60208301905092915050565b6000602082019050919050565b60006139798261391d565b6139838185613928565b935061398e83613939565b8060005b838110156139bf5781516139a68882613949565b97506139b183613961565b925050600181019050613992565b5085935050505092915050565b6000610100830160008301516139e560008601826138b5565b50602083015184820360208601526139fd82826138d5565b9150506040830151613a12604086018261390e565b506060830151613a2560608601826138b5565b506080830151613a3860808601826138b5565b5060a083015184820360a0860152613a5082826138d5565b91505060c083015184820360c0860152613a6a828261396e565b91505060e0830151613a7f60e08601826138b5565b508091505092915050565b60006020820190508181036000830152613aa481846139cc565b905092915050565b600080fd5b600080fd5b7f4e487b7100000000000000000000000000000000000000000000000000000000600052604160045260246000fd5b613aee826135e1565b810181811067ffffffffffffffff82111715613b0d57613b0c613ab6565b5b80604052505050565b6000613b20613469565b9050613b2c8282613ae5565b919050565b600067ffffffffffffffff821115613b4c57613b4b613ab6565b5b613b55826135e1565b9050602081019050919050565b82818337600083830152505050565b6000613b84613b7f84613b31565b613b16565b905082815260208101848484011115613ba057613b9f613ab1565b5b613bab848285613b62565b509392505050565b600082601f830112613bc857613bc7613aac565b5b8135613bd8848260208601613b71565b91505092915050565b60008060008060808587031215613bfb57613bfa613473565b5b6000613c09878288016136c0565b9450506020613c1a878288016136c0565b9350506040613c2b87828801613559565b925050606085013567ffffffffffffffff811115613c4c57613c4b613478565b5b613c5887828801613bb3565b91505092959194509250565b60008060408385031215613c7b57613c7a613473565b5b6000613c89858286016136c0565b9250506020613c9a858286016136c0565b9150509250929050565b600067ffffffffffffffff821115613cbf57613cbe613ab6565b5b613cc8826135e1565b9050602081019050919050565b6000613ce8613ce384613ca4565b613b16565b905082815260208101848484011115613d0457613d03613ab1565b5b613d0f848285613b62565b509392505050565b600082601f830112613d2c57613d2b613aac565b5b8135613d3c848260208601613cd5565b91505092915050565b60008060008060808587031215613d5f57613d5e613473565b5b600085013567ffffffffffffffff811115613d7d57613d7c613478565b5b613d8987828801613d17565b9450506020613d9a87828801613559565b935050604085013567ffffffffffffffff811115613dbb57613dba613478565b5b613dc787828801613d17565b9250506060613dd887828801613559565b91505092959194509250565b7f4f776e6572206f6620746865204e46542063616e74206d616b6520726571756560008201527f7374000000000000000000000000000000000000000000000000000000000000602082015250565b6000613e406022836135a6565b9150613e4b82613de4565b604082019050919050565b60006020820190508181036000830152613e6f81613e33565b9050919050565b7f54686973206e667420697320416c6c7265616479206265656e20626f74000000600082015250565b6000613eac601d836135a6565b9150613eb782613e76565b602082019050919050565b60006020820190508181036000830152613edb81613e9f565b9050919050565b7f54686973207265717565737420616c6c72656164792065786973740000000000600082015250565b6000613f18601b836135a6565b9150613f2382613ee2565b602082019050919050565b60006020820190508181036000830152613f4781613f0b565b9050919050565b7f4e487b7100000000000000000000000000000000000000000000000000000000600052601160045260246000fd5b6000613f8882613538565b91507fffffffffffffffffffffffffffffffffffffffffffffffffffffffffffffffff8203613fba57613fb9613f4e565b5b600182019050919050565b7f4e487b7100000000000000000000000000000000000000000000000000000000600052602260045260246000fd5b6000600282049050600182168061400c57607f821691505b60208210810361401f5761401e613fc5565b5b50919050565b7f4552433732313a20617070726f76616c20746f2063757272656e74206f776e6560008201527f7200000000000000000000000000000000000000000000000000000000000000602082015250565b60006140816021836135a6565b915061408c82614025565b604082019050919050565b600060208201905081810360008301526140b081614074565b9050919050565b7f4552433732313a20617070726f76652063616c6c6572206973206e6f7420746f60008201527f6b656e206f776e6572206f7220617070726f76656420666f7220616c6c000000602082015250565b6000614113603d836135a6565b915061411e826140b7565b604082019050919050565b6000602082019050818103600083015261414281614106565b9050919050565b7f427579207265717565737420646f6573206e6f74206578697374000000000000600082015250565b600061417f601a836135a6565b915061418a82614149565b602082019050919050565b600060208201905081810360008301526141ae81614172565b9050919050565b7f4e487b7100000000000000000000000000000000000000000000000000000000600052603260045260246000fd5b7f4552433732313a2063616c6c6572206973206e6f7420746f6b656e206f776e6560008201527f72206f7220617070726f76656400000000000000000000000000000000000000602082015250565b6000614240602d836135a6565b915061424b826141e4565b604082019050919050565b6000602082019050818103600083015261426f81614233565b9050919050565b7f4552433732313a20696e76616c696420746f6b656e2049440000000000000000600082015250565b60006142ac6018836135a6565b91506142b782614276565b602082019050919050565b600060208201905081810360008301526142db8161429f565b9050919050565b7f4552433732313a2061646472657373207a65726f206973206e6f74206120766160008201527f6c6964206f776e65720000000000000000000000000000000000000000000000602082015250565b600061433e6029836135a6565b9150614349826142e2565b604082019050919050565b6000602082019050818103600083015261436d81614331565b9050919050565b7f546f6b656e20646f6573206e6f74206578697374000000000000000000000000600082015250565b60006143aa6014836135a6565b91506143b582614374565b602082019050919050565b600060208201905081810360008301526143d98161439d565b9050919050565b600081905092915050565b60006143f68261359b565b61440081856143e0565b93506144108185602086016135b7565b80840191505092915050565b600061442882856143eb565b915061443482846143eb565b91508190509392505050565b7f54686973207573657220697320626c6f636b656420666f72206d696e74696e6760008201527f206e667473000000000000000000000000000000000000000000000000000000602082015250565b600061449c6025836135a6565b91506144a782614440565b604082019050919050565b600060208201905081810360008301526144cb8161448f565b9050919050565b7f4e616d652063616e6e6f7420626520656d707479000000000000000000000000600082015250565b60006145086014836135a6565b9150614513826144d2565b602082019050919050565b60006020820190508181036000830152614537816144fb565b9050919050565b7f446174612063616e6e6f7420626520656d707479000000000000000000000000600082015250565b60006145746014836135a6565b915061457f8261453e565b602082019050919050565b600060208201905081810360008301526145a381614567565b9050919050565b7f5072696365206d7573742062652067726561746572207468616e207a65726f00600082015250565b60006145e0601f836135a6565b91506145eb826145aa565b602082019050919050565b6000602082019050818103600083015261460f816145d3565b9050919050565b60008190508160005260206000209050919050565b60006020601f8301049050919050565b600082821b905092915050565b6000600883026146787fffffffffffffffffffffffffffffffffffffffffffffffffffffffffffffffff8261463b565b614682868361463b565b95508019841693508086168417925050509392505050565b6000819050919050565b60006146bf6146ba6146b584613538565b61469a565b613538565b9050919050565b6000819050919050565b6146d9836146a4565b6146ed6146e5826146c6565b848454614648565b825550505050565b600090565b6147026146f5565b61470d8184846146d0565b505050565b5b81811015614731576147266000826146fa565b600181019050614713565b5050565b601f8211156147765761474781614616565b6147508461462b565b8101602085101561475f578190505b61477361476b8561462b565b830182614712565b50505b505050565b600082821c905092915050565b60006147996000198460080261477b565b1980831691505092915050565b60006147b28383614788565b9150826002028217905092915050565b6147cb8261359b565b67ffffffffffffffff8111156147e4576147e3613ab6565b5b6147ee8254613ff4565b6147f9828285614735565b600060209050601f83116001811461482c576000841561481a578287015190505b61482485826147a6565b86555061488c565b601f19841661483a86614616565b60005b828110156148625784890151825560018201915060208501945060208101905061483d565b8683101561487f578489015161487b601f891682614788565b8355505b6001600288020188555050505b505050505050565b7f4f776e61626c653a206e6577206f776e657220697320746865207a65726f206160008201527f6464726573730000000000000000000000000000000000000000000000000000602082015250565b60006148f06026836135a6565b91506148fb82614894565b604082019050919050565b6000602082019050818103600083015261491f816148e3565b9050919050565b7f4552433732313a207472616e736665722066726f6d20696e636f72726563742060008201527f6f776e6572000000000000000000000000000000000000000000000000000000602082015250565b60006149826025836135a6565b915061498d82614926565b604082019050919050565b600060208201905081810360008301526149b181614975565b9050919050565b7f4552433732313a207472616e7366657220746f20746865207a65726f2061646460008201527f7265737300000000000000000000000000000000000000000000000000000000602082015250565b6000614a146024836135a6565b9150614a1f826149b8565b604082019050919050565b60006020820190508181036000830152614a4381614a07565b9050919050565b7f4f776e61626c653a2063616c6c6572206973206e6f7420746865206f776e6572600082015250565b6000614a806020836135a6565b9150614a8b82614a4a565b602082019050919050565b60006020820190508181036000830152614aaf81614a73565b9050919050565b7f4552433732313a20617070726f766520746f2063616c6c657200000000000000600082015250565b6000614aec6019836135a6565b9150614af782614ab6565b602082019050919050565b60006020820190508181036000830152614b1b81614adf565b9050919050565b7f4552433732313a207472616e7366657220746f206e6f6e20455243373231526560008201527f63656976657220696d706c656d656e7465720000000000000000000000000000602082015250565b6000614b7e6032836135a6565b9150614b8982614b22565b604082019050919050565b60006020820190508181036000830152614bad81614b71565b9050919050565b7f4e487b7100000000000000000000000000000000000000000000000000000000600052601260045260246000fd5b600081519050919050565b600082825260208201905092915050565b6000614c0a82614be3565b614c148185614bee565b9350614c248185602086016135b7565b614c2d816135e1565b840191505092915050565b6000608082019050614c4d600083018761367f565b614c5a602083018661367f565b614c676040830185613715565b8181036060830152614c798184614bff565b905095945050505050565b600081519050614c93816134a9565b92915050565b600060208284031215614caf57614cae613473565b5b6000614cbd84828501614c84565b91505092915050565b7f4552433732313a206d696e7420746f20746865207a65726f2061646472657373600082015250565b6000614cfc6020836135a6565b9150614d0782614cc6565b602082019050919050565b60006020820190508181036000830152614d2b81614cef565b9050919050565b7f4552433732313a20746f6b656e20616c7265616479206d696e74656400000000600082015250565b6000614d68601c836135a6565b9150614d7382614d32565b602082019050919050565b60006020820190508181036000830152614d9781614d5b565b905091905056fea2646970667358221220e077113a7a98c765fe63f2efad675485f50267521e8d0a30fe1c6d44572bc6ca64736f6c63430008120033",
  "immutableReferences": {},
  "source": "// SPDX-License-Identifier: MIT\r\npragma solidity ^0.8.0;\r\n\r\nimport \"@openzeppelin/contracts/token/ERC721/ERC721.sol\";\r\nimport \"@openzeppelin/contracts/access/Ownable.sol\";\r\n\r\ncontract MedicalNFT is ERC721, Ownable {\r\n    uint256 public _tokenIdCounter;\r\n    uint256 public _buyRequestsCounter;\r\n    uint256 public _blockedCounter;\r\n\r\n    mapping(uint256 => MedicalData) private _tokenData;\r\n    mapping(address => BuyRequest[]) public _buyRequests;\r\n    mapping(uint256 => Patient) public _blocked;\r\n\r\n    struct Patient {\r\n        address _address;\r\n        bool _isblocked;\r\n    }\r\n\r\n    struct MedicalData {\r\n        uint256 tokenId;\r\n        string name;\r\n        address owner;\r\n        uint256 date;\r\n        uint256 price;\r\n        string data;\r\n        address[] buyers;\r\n        uint256 period;\r\n    }\r\n\r\n    struct BuyRequest {\r\n        address buyer;\r\n        address owner;\r\n        uint256 tokenId;\r\n        uint256 date;\r\n        bool isCompleted;\r\n        bool isAccepted;\r\n    }\r\n\r\n    constructor() ERC721(\"MedicalNFT\", \"MED\") {}\r\n\r\n    function toggleBlock(address _patient) public onlyOwner {\r\n        for (uint256 i = 0; i < _blockedCounter; i++) {\r\n            if (_blocked[i]._address == _patient) {\r\n                _blocked[i]._isblocked = !_blocked[i]._isblocked;\r\n            }\r\n        }\r\n    }\r\n\r\n    function _isblocked(address _patient) public view returns (bool) {\r\n        for (uint256 i = 0; i < _blockedCounter; i++) {\r\n            if (\r\n                _blocked[i]._address == _patient &&\r\n                _blocked[i]._isblocked == true\r\n            ) {\r\n                return true;\r\n            }\r\n        }\r\n        return false;\r\n    }\r\n\r\n    function _isBuyer(uint256 _tokenId, address _buyer)\r\n        private\r\n        view\r\n        returns (bool)\r\n    {\r\n        for (uint256 i = 0; i < _tokenData[_tokenId].buyers.length; i++) {\r\n            if (_tokenData[_tokenId].buyers[i] == _buyer) {\r\n                return true;\r\n            }\r\n        }\r\n        return false;\r\n    }\r\n\r\n    function _isOwner(uint256 _tokenId, address _owner)\r\n        private\r\n        view\r\n        returns (bool)\r\n    {\r\n        if (_tokenData[_tokenId].owner == _owner) {\r\n            return true;\r\n        }\r\n        return false;\r\n    }\r\n\r\n    function _isBuyRequestExists(uint256 _tokenId, address _buyer)\r\n        private\r\n        view\r\n        returns (bool)\r\n    {\r\n        address _owner = _tokenData[_tokenId].owner;\r\n        BuyRequest[] storage requests = _buyRequests[_owner];\r\n        for (uint256 i = 0; i < requests.length; i++) {\r\n            if (\r\n                requests[i].buyer == _buyer &&\r\n                requests[i].tokenId == _tokenId &&\r\n                requests[i].isCompleted == false\r\n            ) {\r\n                return true;\r\n            }\r\n        }\r\n        return false;\r\n    }\r\n\r\n    function addBuyRequest(uint256 _tokenId) public {\r\n        require(\r\n            !_isOwner(_tokenId, msg.sender),\r\n            \"Owner of the NFT cant make request\"\r\n        );\r\n        require(\r\n            !_isBuyer(_tokenId, msg.sender),\r\n            \"This nft is Allready been bot\"\r\n        );\r\n        require(\r\n            !_isBuyRequestExists(_tokenId, msg.sender),\r\n            \"This request allready exist\"\r\n        );\r\n        address _owner = _tokenData[_tokenId].owner;\r\n\r\n        BuyRequest memory dataStruct = BuyRequest({\r\n            buyer: msg.sender,\r\n            owner: _owner,\r\n            tokenId: _tokenId,\r\n            date: block.timestamp,\r\n            isCompleted: false,\r\n            isAccepted: false\r\n        });\r\n\r\n        _buyRequests[_owner].push(dataStruct);\r\n        _buyRequestsCounter++;\r\n    }\r\n\r\n    function approveBuyRequest(address _buyer, uint256 _tokenId)\r\n        public\r\n        payable\r\n    {\r\n        require(\r\n            _isBuyRequestExists(_tokenId, _buyer),\r\n            \"Buy request does not exist\"\r\n        );\r\n        for (uint256 i = 0; i < _buyRequests[msg.sender].length; i++) {\r\n            if (\r\n                _buyRequests[msg.sender][i].buyer == _buyer &&\r\n                _buyRequests[msg.sender][i].tokenId == _tokenId\r\n            ) {\r\n                _buyRequests[msg.sender][i].isAccepted = true;\r\n                _buyRequests[msg.sender][i].isCompleted = true;\r\n                payable(_tokenData[_tokenId].owner).transfer(\r\n                    _tokenData[_tokenId].price\r\n                ); // send ETH to owner\r\n                _tokenData[_tokenId].buyers.push(_buyer);\r\n                break;\r\n            }\r\n        }\r\n    }\r\n\r\n    function rejectBuyRequest(address _buyer, uint256 _tokenId) public {\r\n        require(\r\n            _isBuyRequestExists(_tokenId, _buyer),\r\n            \"Buy request does not exist\"\r\n        );\r\n        for (uint256 i = 0; i < _buyRequests[msg.sender].length; i++) {\r\n            if (\r\n                _buyRequests[msg.sender][i].buyer == _buyer &&\r\n                _buyRequests[msg.sender][i].tokenId == _tokenId\r\n            ) {\r\n                _buyRequests[msg.sender][i].isAccepted = false;\r\n                _buyRequests[msg.sender][i].isCompleted = true;\r\n                break;\r\n            }\r\n        }\r\n    }\r\n\r\n    function mint(\r\n        string memory name,\r\n        uint256 price,\r\n        string memory data,\r\n        uint256 period\r\n    ) public {\r\n        require(\r\n            !_isblocked(msg.sender),\r\n            \"This user is blocked for minting nfts\"\r\n        );\r\n        require(bytes(name).length > 0, \"Name cannot be empty\");\r\n        require(bytes(data).length > 0, \"Data cannot be empty\");\r\n        require(price > 0, \"Price must be greater than zero\");\r\n\r\n        _safeMint(msg.sender, _tokenIdCounter);\r\n\r\n        MedicalData memory dataStruct = MedicalData({\r\n            tokenId: _tokenIdCounter,\r\n            name: name,\r\n            owner: msg.sender,\r\n            date: block.timestamp,\r\n            price: price,\r\n            data: data,\r\n            buyers: new address[](0),\r\n            period: period\r\n        });\r\n\r\n        _tokenData[_tokenIdCounter] = dataStruct;\r\n        _tokenIdCounter++;\r\n\r\n        bool _exist = false;\r\n        for (uint256 i = 0; i < _blockedCounter; i++) {\r\n            if (_blocked[i]._address == msg.sender) {\r\n                _exist = true;\r\n            }\r\n        }\r\n\r\n        if (!_exist) {\r\n            Patient memory patientdata = Patient({\r\n                _address: msg.sender,\r\n                _isblocked: false\r\n            });\r\n\r\n            _blocked[_blockedCounter] = patientdata;\r\n            _blockedCounter++;\r\n        }\r\n    }\r\n\r\n    function getTokenData(uint256 tokenId)\r\n        public\r\n        view\r\n        returns (MedicalData memory)\r\n    {\r\n        require(_exists(tokenId), \"Token does not exist\");\r\n        return _tokenData[tokenId];\r\n    }\r\n}\r\n",
  "sourcePath": "D:\\Marketpalce\\contracts\\MedicalNFT.sol",
  "compiler": {
    "name": "solc",
    "version": "0.8.18+commit.87f61d96.Emscripten.clang"
  },
  "schemaVersion": "3.4.12",
  "updatedAt": "2023-04-27T02:41:45.863Z",
  "networkType": "ethereum",
  "devdoc": {
    "events": {
      "Approval(address,address,uint256)": {
        "details": "Emitted when `owner` enables `approved` to manage the `tokenId` token."
      },
      "ApprovalForAll(address,address,bool)": {
        "details": "Emitted when `owner` enables or disables (`approved`) `operator` to manage all of its assets."
      },
      "Transfer(address,address,uint256)": {
        "details": "Emitted when `tokenId` token is transferred from `from` to `to`."
      }
    },
    "kind": "dev",
    "methods": {
      "approve(address,uint256)": {
        "details": "See {IERC721-approve}."
      },
      "balanceOf(address)": {
        "details": "See {IERC721-balanceOf}."
      },
      "getApproved(uint256)": {
        "details": "See {IERC721-getApproved}."
      },
      "isApprovedForAll(address,address)": {
        "details": "See {IERC721-isApprovedForAll}."
      },
      "name()": {
        "details": "See {IERC721Metadata-name}."
      },
      "owner()": {
        "details": "Returns the address of the current owner."
      },
      "ownerOf(uint256)": {
        "details": "See {IERC721-ownerOf}."
      },
      "renounceOwnership()": {
        "details": "Leaves the contract without owner. It will not be possible to call `onlyOwner` functions anymore. Can only be called by the current owner. NOTE: Renouncing ownership will leave the contract without an owner, thereby removing any functionality that is only available to the owner."
      },
      "safeTransferFrom(address,address,uint256)": {
        "details": "See {IERC721-safeTransferFrom}."
      },
      "safeTransferFrom(address,address,uint256,bytes)": {
        "details": "See {IERC721-safeTransferFrom}."
      },
      "setApprovalForAll(address,bool)": {
        "details": "See {IERC721-setApprovalForAll}."
      },
      "supportsInterface(bytes4)": {
        "details": "See {IERC165-supportsInterface}."
      },
      "symbol()": {
        "details": "See {IERC721Metadata-symbol}."
      },
      "tokenURI(uint256)": {
        "details": "See {IERC721Metadata-tokenURI}."
      },
      "transferFrom(address,address,uint256)": {
        "details": "See {IERC721-transferFrom}."
      },
      "transferOwnership(address)": {
        "details": "Transfers ownership of the contract to a new account (`newOwner`). Can only be called by the current owner."
      }
    },
    "version": 1
  },
  "userdoc": {
    "kind": "user",
    "methods": {},
    "version": 1
  }
}